{
  "contractName": "PeoplesCasino",
  "abi": [
    {
      "constant": true,
      "inputs": [
        {
          "name": "interfaceId",
          "type": "bytes4"
        }
      ],
      "name": "supportsInterface",
      "outputs": [
        {
          "name": "",
          "type": "bool"
        }
      ],
      "payable": false,
      "stateMutability": "view",
      "type": "function"
    },
    {
      "constant": true,
      "inputs": [],
      "name": "name",
      "outputs": [
        {
          "name": "",
          "type": "string"
        }
      ],
      "payable": false,
      "stateMutability": "view",
      "type": "function"
    },
    {
      "constant": true,
      "inputs": [
        {
          "name": "tokenId",
          "type": "uint256"
        }
      ],
      "name": "getApproved",
      "outputs": [
        {
          "name": "",
          "type": "address"
        }
      ],
      "payable": false,
      "stateMutability": "view",
      "type": "function"
    },
    {
      "constant": false,
      "inputs": [
        {
          "name": "to",
          "type": "address"
        },
        {
          "name": "tokenId",
          "type": "uint256"
        }
      ],
      "name": "approve",
      "outputs": [],
      "payable": false,
      "stateMutability": "nonpayable",
      "type": "function"
    },
    {
      "constant": true,
      "inputs": [],
      "name": "totalSupply",
      "outputs": [
        {
          "name": "",
          "type": "uint256"
        }
      ],
      "payable": false,
      "stateMutability": "view",
      "type": "function"
    },
    {
      "constant": false,
      "inputs": [
        {
          "name": "from",
          "type": "address"
        },
        {
          "name": "to",
          "type": "address"
        },
        {
          "name": "tokenId",
          "type": "uint256"
        }
      ],
      "name": "transferFrom",
      "outputs": [],
      "payable": false,
      "stateMutability": "nonpayable",
      "type": "function"
    },
    {
      "constant": true,
      "inputs": [
        {
          "name": "owner",
          "type": "address"
        },
        {
          "name": "index",
          "type": "uint256"
        }
      ],
      "name": "tokenOfOwnerByIndex",
      "outputs": [
        {
          "name": "",
          "type": "uint256"
        }
      ],
      "payable": false,
      "stateMutability": "view",
      "type": "function"
    },
    {
      "constant": false,
      "inputs": [
        {
          "name": "from",
          "type": "address"
        },
        {
          "name": "to",
          "type": "address"
        },
        {
          "name": "tokenId",
          "type": "uint256"
        }
      ],
      "name": "safeTransferFrom",
      "outputs": [],
      "payable": false,
      "stateMutability": "nonpayable",
      "type": "function"
    },
    {
      "constant": true,
      "inputs": [
        {
          "name": "index",
          "type": "uint256"
        }
      ],
      "name": "tokenByIndex",
      "outputs": [
        {
          "name": "",
          "type": "uint256"
        }
      ],
      "payable": false,
      "stateMutability": "view",
      "type": "function"
    },
    {
      "constant": true,
      "inputs": [
        {
          "name": "tokenId",
          "type": "uint256"
        }
      ],
      "name": "ownerOf",
      "outputs": [
        {
          "name": "",
          "type": "address"
        }
      ],
      "payable": false,
      "stateMutability": "view",
      "type": "function"
    },
    {
      "constant": true,
      "inputs": [
        {
          "name": "owner",
          "type": "address"
        }
      ],
      "name": "balanceOf",
      "outputs": [
        {
          "name": "",
          "type": "uint256"
        }
      ],
      "payable": false,
      "stateMutability": "view",
      "type": "function"
    },
    {
      "constant": false,
      "inputs": [],
      "name": "renounceOwnership",
      "outputs": [],
      "payable": false,
      "stateMutability": "nonpayable",
      "type": "function"
    },
    {
      "constant": false,
      "inputs": [
        {
          "name": "_to",
          "type": "address"
        }
      ],
      "name": "mintTo",
      "outputs": [],
      "payable": false,
      "stateMutability": "nonpayable",
      "type": "function"
    },
    {
      "constant": true,
      "inputs": [],
      "name": "owner",
      "outputs": [
        {
          "name": "",
          "type": "address"
        }
      ],
      "payable": false,
      "stateMutability": "view",
      "type": "function"
    },
    {
      "constant": true,
      "inputs": [],
      "name": "isOwner",
      "outputs": [
        {
          "name": "",
          "type": "bool"
        }
      ],
      "payable": false,
      "stateMutability": "view",
      "type": "function"
    },
    {
      "constant": true,
      "inputs": [],
      "name": "symbol",
      "outputs": [
        {
          "name": "",
          "type": "string"
        }
      ],
      "payable": false,
      "stateMutability": "view",
      "type": "function"
    },
    {
      "constant": false,
      "inputs": [
        {
          "name": "to",
          "type": "address"
        },
        {
          "name": "approved",
          "type": "bool"
        }
      ],
      "name": "setApprovalForAll",
      "outputs": [],
      "payable": false,
      "stateMutability": "nonpayable",
      "type": "function"
    },
    {
      "constant": false,
      "inputs": [
        {
          "name": "from",
          "type": "address"
        },
        {
          "name": "to",
          "type": "address"
        },
        {
          "name": "tokenId",
          "type": "uint256"
        },
        {
          "name": "_data",
          "type": "bytes"
        }
      ],
      "name": "safeTransferFrom",
      "outputs": [],
      "payable": false,
      "stateMutability": "nonpayable",
      "type": "function"
    },
    {
      "constant": true,
      "inputs": [
        {
          "name": "_tokenId",
          "type": "uint256"
        }
      ],
      "name": "tokenURI",
      "outputs": [
        {
          "name": "",
          "type": "string"
        }
      ],
      "payable": false,
      "stateMutability": "view",
      "type": "function"
    },
    {
      "constant": true,
      "inputs": [
        {
          "name": "owner",
          "type": "address"
        },
        {
          "name": "operator",
          "type": "address"
        }
      ],
      "name": "isApprovedForAll",
      "outputs": [
        {
          "name": "",
          "type": "bool"
        }
      ],
      "payable": false,
      "stateMutability": "view",
      "type": "function"
    },
    {
      "constant": false,
      "inputs": [
        {
          "name": "newOwner",
          "type": "address"
        }
      ],
      "name": "transferOwnership",
      "outputs": [],
      "payable": false,
      "stateMutability": "nonpayable",
      "type": "function"
    },
    {
      "inputs": [
        {
          "name": "_proxyRegistryAddress",
          "type": "address"
        }
      ],
      "payable": false,
      "stateMutability": "nonpayable",
      "type": "constructor"
    },
    {
      "anonymous": false,
      "inputs": [
        {
          "indexed": false,
          "name": "tokenId",
          "type": "uint256"
        },
        {
          "indexed": false,
          "name": "roll",
          "type": "uint256"
        },
        {
          "indexed": false,
          "name": "win",
          "type": "bool"
        }
      ],
      "name": "BetResult",
      "type": "event"
    },
    {
      "anonymous": false,
      "inputs": [
        {
          "indexed": true,
          "name": "previousOwner",
          "type": "address"
        },
        {
          "indexed": true,
          "name": "newOwner",
          "type": "address"
        }
      ],
      "name": "OwnershipTransferred",
      "type": "event"
    },
    {
      "anonymous": false,
      "inputs": [
        {
          "indexed": true,
          "name": "from",
          "type": "address"
        },
        {
          "indexed": true,
          "name": "to",
          "type": "address"
        },
        {
          "indexed": true,
          "name": "tokenId",
          "type": "uint256"
        }
      ],
      "name": "Transfer",
      "type": "event"
    },
    {
      "anonymous": false,
      "inputs": [
        {
          "indexed": true,
          "name": "owner",
          "type": "address"
        },
        {
          "indexed": true,
          "name": "approved",
          "type": "address"
        },
        {
          "indexed": true,
          "name": "tokenId",
          "type": "uint256"
        }
      ],
      "name": "Approval",
      "type": "event"
    },
    {
      "anonymous": false,
      "inputs": [
        {
          "indexed": true,
          "name": "owner",
          "type": "address"
        },
        {
          "indexed": true,
          "name": "operator",
          "type": "address"
        },
        {
          "indexed": false,
          "name": "approved",
          "type": "bool"
        }
      ],
      "name": "ApprovalForAll",
      "type": "event"
    },
    {
      "constant": true,
      "inputs": [],
      "name": "baseTokenURI",
      "outputs": [
        {
          "name": "",
          "type": "string"
        }
      ],
      "payable": false,
      "stateMutability": "view",
      "type": "function"
    },
    {
      "constant": false,
      "inputs": [
        {
          "name": "tokenId",
          "type": "uint256"
        }
      ],
      "name": "mint",
      "outputs": [],
      "payable": true,
      "stateMutability": "payable",
      "type": "function"
    },
    {
      "constant": false,
      "inputs": [
        {
          "name": "tokenURI",
          "type": "string"
        }
      ],
      "name": "setBaseTokenURI",
      "outputs": [],
      "payable": true,
      "stateMutability": "payable",
      "type": "function"
    },
    {
      "constant": false,
      "inputs": [
        {
          "name": "maxPayout",
          "type": "uint256"
        }
      ],
      "name": "setMaxPayout",
      "outputs": [],
      "payable": true,
      "stateMutability": "payable",
      "type": "function"
    },
    {
      "constant": true,
      "inputs": [
        {
          "name": "tokenId",
          "type": "uint256"
        }
      ],
      "name": "getHouseReserve",
      "outputs": [
        {
          "name": "",
          "type": "uint256"
        }
      ],
      "payable": false,
      "stateMutability": "view",
      "type": "function"
    },
    {
      "constant": false,
      "inputs": [
        {
          "name": "tokenId",
          "type": "uint256"
        }
      ],
      "name": "addToHouseReserve",
      "outputs": [],
      "payable": true,
      "stateMutability": "payable",
      "type": "function"
    },
    {
      "constant": false,
      "inputs": [
        {
          "name": "tokenId",
          "type": "uint256"
        },
        {
          "name": "amount",
          "type": "uint256"
        }
      ],
      "name": "subtractFromHouseReserve",
      "outputs": [],
      "payable": true,
      "stateMutability": "payable",
      "type": "function"
    },
    {
      "constant": false,
      "inputs": [
        {
          "name": "tokenId",
          "type": "uint256"
        },
        {
          "name": "oddsPercentage",
          "type": "uint256"
        }
      ],
      "name": "makeBet",
      "outputs": [],
      "payable": true,
      "stateMutability": "payable",
      "type": "function"
    },
    {
      "constant": false,
      "inputs": [
        {
          "name": "tokenId",
          "type": "uint256"
        },
        {
          "name": "data",
          "type": "string"
        }
      ],
      "name": "setExtraData",
      "outputs": [],
      "payable": true,
      "stateMutability": "payable",
      "type": "function"
    }
  ],
  "bytecode": "0x60806040526000600e556729a2241af62c000060105560405180602001604052806000815250601190805190602001906200003c92919062000396565b503480156200004a57600080fd5b5060405160208062003e67833981018060405260208110156200006c57600080fd5b81019080805190602001909291905050506040518060400160405280600d81526020017f50656f706c6573436173696e6f000000000000000000000000000000000000008152506040518060400160405280600381526020017f50435400000000000000000000000000000000000000000000000000000000008152508282828181620001066301ffc9a760e01b6200028d60201b60201c565b6200011e6380ac58cd60e01b6200028d60201b60201c565b6200013663780e9d6360e01b6200028d60201b60201c565b81600990805190602001906200014e92919062000396565b5080600a90805190602001906200016792919062000396565b5062000180635b5e139f60e01b6200028d60201b60201c565b5050505033600c60006101000a81548173ffffffffffffffffffffffffffffffffffffffff021916908373ffffffffffffffffffffffffffffffffffffffff160217905550600c60009054906101000a900473ffffffffffffffffffffffffffffffffffffffff1673ffffffffffffffffffffffffffffffffffffffff16600073ffffffffffffffffffffffffffffffffffffffff167f8be0079c531659141344cd1fd0a4f28419497f9722a3daafe3b4186f6b6457e060405160405180910390a380600d60006101000a81548173ffffffffffffffffffffffffffffffffffffffff021916908373ffffffffffffffffffffffffffffffffffffffff1602179055505050505062000445565b63ffffffff60e01b817bffffffffffffffffffffffffffffffffffffffffffffffffffffffff191614156200032a576040517f08c379a000000000000000000000000000000000000000000000000000000000815260040180806020018281038252601c8152602001807f4552433136353a20696e76616c696420696e746572666163652069640000000081525060200191505060405180910390fd5b6001600080837bffffffffffffffffffffffffffffffffffffffffffffffffffffffff19167bffffffffffffffffffffffffffffffffffffffffffffffffffffffff1916815260200190815260200160002060006101000a81548160ff02191690831515021790555050565b828054600181600116156101000203166002900490600052602060002090601f016020900481019282601f10620003d957805160ff19168380011785556200040a565b828001600101855582156200040a579182015b8281111562000409578251825591602001919060010190620003ec565b5b5090506200041991906200041d565b5090565b6200044291905b808211156200043e57600081600090555060010162000424565b5090565b90565b613a1280620004556000396000f3fe6080604052600436106101cd5760003560e01c806370a08231116100f7578063a0712d6811610095578063d547cfb711610064578063d547cfb714610c9b578063df898e3214610d2b578063e985e9c514610d63578063f2fde38b14610dec576101cd565b8063a0712d6814610a4a578063a22cb46514610a78578063b88d4fde14610ad5578063c87b56dd14610be7576101cd565b80638da5cb5b116100d15780638da5cb5b146109065780638f32d59b1461095d57806395d89b411461098c57806396c86dea14610a1c576101cd565b806370a0823114610839578063715018a61461089e578063755edd17146108b5576101cd565b806330176e131161016f5780634abd8cbb1161013e5780634abd8cbb146107095780634f6ccce71461074157806356b4997f146107905780636352211e146107be576101cd565b806330176e13146104bf5780633a0753b11461057a5780634044474c146105c957806342842e0e1461068e576101cd565b8063095ea7b3116101ab578063095ea7b31461034f57806318160ddd146103aa57806323b872dd146103d55780632f745c5914610450576101cd565b806301ffc9a7146101d257806306fdde0314610244578063081812fc146102d4575b600080fd5b3480156101de57600080fd5b5061022a600480360360208110156101f557600080fd5b8101908080357bffffffffffffffffffffffffffffffffffffffffffffffffffffffff19169060200190929190505050610e3d565b604051808215151515815260200191505060405180910390f35b34801561025057600080fd5b50610259610ea4565b6040518080602001828103825283818151815260200191508051906020019080838360005b8381101561029957808201518184015260208101905061027e565b50505050905090810190601f1680156102c65780820380516001836020036101000a031916815260200191505b509250505060405180910390f35b3480156102e057600080fd5b5061030d600480360360208110156102f757600080fd5b8101908080359060200190929190505050610f46565b604051808273ffffffffffffffffffffffffffffffffffffffff1673ffffffffffffffffffffffffffffffffffffffff16815260200191505060405180910390f35b34801561035b57600080fd5b506103a86004803603604081101561037257600080fd5b81019080803573ffffffffffffffffffffffffffffffffffffffff16906020019092919080359060200190929190505050610fe1565b005b3480156103b657600080fd5b506103bf6111ba565b6040518082815260200191505060405180910390f35b3480156103e157600080fd5b5061044e600480360360608110156103f857600080fd5b81019080803573ffffffffffffffffffffffffffffffffffffffff169060200190929190803573ffffffffffffffffffffffffffffffffffffffff169060200190929190803590602001909291905050506111c7565b005b34801561045c57600080fd5b506104a96004803603604081101561047357600080fd5b81019080803573ffffffffffffffffffffffffffffffffffffffff16906020019092919080359060200190929190505050611236565b6040518082815260200191505060405180910390f35b610578600480360360208110156104d557600080fd5b81019080803590602001906401000000008111156104f257600080fd5b82018360208201111561050457600080fd5b8035906020019184600183028401116401000000008311171561052657600080fd5b91908080601f016020809104026020016040519081016040528093929190818152602001838380828437600081840152601f19601f8201169050808301925050505050505091929192905050506112f5565b005b34801561058657600080fd5b506105b36004803603602081101561059d57600080fd5b8101908080359060200190929190505050611389565b6040518082815260200191505060405180910390f35b61068c600480360360408110156105df57600080fd5b81019080803590602001909291908035906020019064010000000081111561060657600080fd5b82018360208201111561061857600080fd5b8035906020019184600183028401116401000000008311171561063a57600080fd5b91908080601f016020809104026020016040519081016040528093929190818152602001838380828437600081840152601f19601f8201169050808301925050505050505091929192905050506113e7565b005b34801561069a57600080fd5b50610707600480360360608110156106b157600080fd5b81019080803573ffffffffffffffffffffffffffffffffffffffff169060200190929190803573ffffffffffffffffffffffffffffffffffffffff16906020019092919080359060200190929190505050611455565b005b61073f6004803603604081101561071f57600080fd5b810190808035906020019092919080359060200190929190505050611475565b005b34801561074d57600080fd5b5061077a6004803603602081101561076457600080fd5b8101908080359060200190929190505050611541565b6040518082815260200191505060405180910390f35b6107bc600480360360208110156107a657600080fd5b81019080803590602001909291905050506115c1565b005b3480156107ca57600080fd5b506107f7600480360360208110156107e157600080fd5b8101908080359060200190929190505050611645565b604051808273ffffffffffffffffffffffffffffffffffffffff1673ffffffffffffffffffffffffffffffffffffffff16815260200191505060405180910390f35b34801561084557600080fd5b506108886004803603602081101561085c57600080fd5b81019080803573ffffffffffffffffffffffffffffffffffffffff16906020019092919050505061170d565b6040518082815260200191505060405180910390f35b3480156108aa57600080fd5b506108b36117e2565b005b3480156108c157600080fd5b50610904600480360360208110156108d857600080fd5b81019080803573ffffffffffffffffffffffffffffffffffffffff16906020019092919050505061191d565b005b34801561091257600080fd5b5061091b6119b9565b604051808273ffffffffffffffffffffffffffffffffffffffff1673ffffffffffffffffffffffffffffffffffffffff16815260200191505060405180910390f35b34801561096957600080fd5b506109726119e3565b604051808215151515815260200191505060405180910390f35b34801561099857600080fd5b506109a1611a3b565b6040518080602001828103825283818151815260200191508051906020019080838360005b838110156109e15780820151818401526020810190506109c6565b50505050905090810190601f168015610a0e5780820380516001836020036101000a031916815260200191505b509250505060405180910390f35b610a4860048036036020811015610a3257600080fd5b8101908080359060200190929190505050611add565b005b610a7660048036036020811015610a6057600080fd5b8101908080359060200190929190505050611b43565b005b348015610a8457600080fd5b50610ad360048036036040811015610a9b57600080fd5b81019080803573ffffffffffffffffffffffffffffffffffffffff169060200190929190803515159060200190929190505050611bca565b005b348015610ae157600080fd5b50610be560048036036080811015610af857600080fd5b81019080803573ffffffffffffffffffffffffffffffffffffffff169060200190929190803573ffffffffffffffffffffffffffffffffffffffff1690602001909291908035906020019092919080359060200190640100000000811115610b5f57600080fd5b820183602082011115610b7157600080fd5b80359060200191846001830284011164010000000083111715610b9357600080fd5b91908080601f016020809104026020016040519081016040528093929190818152602001838380828437600081840152601f19601f820116905080830192505050505050509192919290505050611d6d565b005b348015610bf357600080fd5b50610c2060048036036020811015610c0a57600080fd5b8101908080359060200190929190505050611ddf565b6040518080602001828103825283818151815260200191508051906020019080838360005b83811015610c60578082015181840152602081019050610c45565b50505050905090810190601f168015610c8d5780820380516001836020036101000a031916815260200191505b509250505060405180910390f35b348015610ca757600080fd5b50610cb0611e01565b6040518080602001828103825283818151815260200191508051906020019080838360005b83811015610cf0578082015181840152602081019050610cd5565b50505050905090810190601f168015610d1d5780820380516001836020036101000a031916815260200191505b509250505060405180910390f35b610d6160048036036040811015610d4157600080fd5b810190808035906020019092919080359060200190929190505050611ea3565b005b348015610d6f57600080fd5b50610dd260048036036040811015610d8657600080fd5b81019080803573ffffffffffffffffffffffffffffffffffffffff169060200190929190803573ffffffffffffffffffffffffffffffffffffffff169060200190929190505050612091565b604051808215151515815260200191505060405180910390f35b348015610df857600080fd5b50610e3b60048036036020811015610e0f57600080fd5b81019080803573ffffffffffffffffffffffffffffffffffffffff1690602001909291905050506121c2565b005b6000806000837bffffffffffffffffffffffffffffffffffffffffffffffffffffffff19167bffffffffffffffffffffffffffffffffffffffffffffffffffffffff1916815260200190815260200160002060009054906101000a900460ff169050919050565b606060098054600181600116156101000203166002900480601f016020809104026020016040519081016040528092919081815260200182805460018160011615610100020316600290048015610f3c5780601f10610f1157610100808354040283529160200191610f3c565b820191906000526020600020905b815481529060010190602001808311610f1f57829003601f168201915b5050505050905090565b6000610f5182612248565b610fa6576040517f08c379a000000000000000000000000000000000000000000000000000000000815260040180806020018281038252602c815260200180613914602c913960400191505060405180910390fd5b6002600083815260200190815260200160002060009054906101000a900473ffffffffffffffffffffffffffffffffffffffff169050919050565b6000610fec82611645565b90508073ffffffffffffffffffffffffffffffffffffffff168373ffffffffffffffffffffffffffffffffffffffff161415611073576040517f08c379a00000000000000000000000000000000000000000000000000000000081526004018080602001828103825260218152602001806139696021913960400191505060405180910390fd5b8073ffffffffffffffffffffffffffffffffffffffff163373ffffffffffffffffffffffffffffffffffffffff1614806110b357506110b28133612091565b5b611108576040517f08c379a00000000000000000000000000000000000000000000000000000000081526004018080602001828103825260388152602001806138686038913960400191505060405180910390fd5b826002600084815260200190815260200160002060006101000a81548173ffffffffffffffffffffffffffffffffffffffff021916908373ffffffffffffffffffffffffffffffffffffffff160217905550818373ffffffffffffffffffffffffffffffffffffffff168273ffffffffffffffffffffffffffffffffffffffff167f8c5be1e5ebec7d5bd14f71427d1e84f3dd0314c0f7b2291e5b200ac8c7c3b92560405160405180910390a4505050565b6000600780549050905090565b6111d133826122ba565b611226576040517f08c379a000000000000000000000000000000000000000000000000000000000815260040180806020018281038252603181526020018061398a6031913960400191505060405180910390fd5b6112318383836123ae565b505050565b60006112418361170d565b8210611298576040517f08c379a000000000000000000000000000000000000000000000000000000000815260040180806020018281038252602b815260200180613795602b913960400191505060405180910390fd5b600560008473ffffffffffffffffffffffffffffffffffffffff1673ffffffffffffffffffffffffffffffffffffffff16815260200190815260200160002082815481106112e257fe5b9060005260206000200154905092915050565b6112fd6119e3565b61136f576040517f08c379a00000000000000000000000000000000000000000000000000000000081526004018080602001828103825260208152602001807f4f776e61626c653a2063616c6c6572206973206e6f7420746865206f776e657281525060200191505060405180910390fd5b80601190805190602001906113859291906136c3565b5050565b60008073ffffffffffffffffffffffffffffffffffffffff166113ab83611645565b73ffffffffffffffffffffffffffffffffffffffff1614156113cc57600080fd5b600f6000838152602001908152602001600020549050919050565b600073ffffffffffffffffffffffffffffffffffffffff1661140883611645565b73ffffffffffffffffffffffffffffffffffffffff16141561142957600080fd5b806012600084815260200190815260200160002090805190602001906114509291906136c3565b505050565b61147083838360405180602001604052806000815250611d6d565b505050565b61147e82611645565b73ffffffffffffffffffffffffffffffffffffffff163373ffffffffffffffffffffffffffffffffffffffff16146114b557600080fd5b80600f60008481526020019081526020016000205410156114d557600080fd5b80600f6000848152602001908152602001600020600082825403925050819055503373ffffffffffffffffffffffffffffffffffffffff166108fc829081150290604051600060405180830381858888f1935050505015801561153c573d6000803e3d6000fd5b505050565b600061154b6111ba565b82106115a2576040517f08c379a000000000000000000000000000000000000000000000000000000000815260040180806020018281038252602c8152602001806139bb602c913960400191505060405180910390fd5b600782815481106115af57fe5b90600052602060002001549050919050565b6115c96119e3565b61163b576040517f08c379a00000000000000000000000000000000000000000000000000000000081526004018080602001828103825260208152602001807f4f776e61626c653a2063616c6c6572206973206e6f7420746865206f776e657281525060200191505060405180910390fd5b8060108190555050565b6000806001600084815260200190815260200160002060009054906101000a900473ffffffffffffffffffffffffffffffffffffffff169050600073ffffffffffffffffffffffffffffffffffffffff168173ffffffffffffffffffffffffffffffffffffffff161415611704576040517f08c379a00000000000000000000000000000000000000000000000000000000081526004018080602001828103825260298152602001806138ca6029913960400191505060405180910390fd5b80915050919050565b60008073ffffffffffffffffffffffffffffffffffffffff168273ffffffffffffffffffffffffffffffffffffffff161415611794576040517f08c379a000000000000000000000000000000000000000000000000000000000815260040180806020018281038252602a8152602001806138a0602a913960400191505060405180910390fd5b6117db600360008473ffffffffffffffffffffffffffffffffffffffff1673ffffffffffffffffffffffffffffffffffffffff1681526020019081526020016000206123d2565b9050919050565b6117ea6119e3565b61185c576040517f08c379a00000000000000000000000000000000000000000000000000000000081526004018080602001828103825260208152602001807f4f776e61626c653a2063616c6c6572206973206e6f7420746865206f776e657281525060200191505060405180910390fd5b600073ffffffffffffffffffffffffffffffffffffffff16600c60009054906101000a900473ffffffffffffffffffffffffffffffffffffffff1673ffffffffffffffffffffffffffffffffffffffff167f8be0079c531659141344cd1fd0a4f28419497f9722a3daafe3b4186f6b6457e060405160405180910390a36000600c60006101000a81548173ffffffffffffffffffffffffffffffffffffffff021916908373ffffffffffffffffffffffffffffffffffffffff160217905550565b6119256119e3565b611997576040517f08c379a00000000000000000000000000000000000000000000000000000000081526004018080602001828103825260208152602001807f4f776e61626c653a2063616c6c6572206973206e6f7420746865206f776e657281525060200191505060405180910390fd5b60006119a16123e0565b90506119ad82826123fd565b6119b561241e565b5050565b6000600c60009054906101000a900473ffffffffffffffffffffffffffffffffffffffff16905090565b6000600c60009054906101000a900473ffffffffffffffffffffffffffffffffffffffff1673ffffffffffffffffffffffffffffffffffffffff163373ffffffffffffffffffffffffffffffffffffffff1614905090565b6060600a8054600181600116156101000203166002900480601f016020809104026020016040519081016040528092919081815260200182805460018160011615610100020316600290048015611ad35780601f10611aa857610100808354040283529160200191611ad3565b820191906000526020600020905b815481529060010190602001808311611ab657829003601f168201915b5050505050905090565b600073ffffffffffffffffffffffffffffffffffffffff16611afe82611645565b73ffffffffffffffffffffffffffffffffffffffff161415611b1f57600080fd5b34600f60008381526020019081526020016000206000828254019250508190555050565b611b4b6119e3565b611bbd576040517f08c379a00000000000000000000000000000000000000000000000000000000081526004018080602001828103825260208152602001807f4f776e61626c653a2063616c6c6572206973206e6f7420746865206f776e657281525060200191505060405180910390fd5b611bc733826123fd565b50565b3373ffffffffffffffffffffffffffffffffffffffff168273ffffffffffffffffffffffffffffffffffffffff161415611c6c576040517f08c379a00000000000000000000000000000000000000000000000000000000081526004018080602001828103825260198152602001807f4552433732313a20617070726f766520746f2063616c6c65720000000000000081525060200191505060405180910390fd5b80600460003373ffffffffffffffffffffffffffffffffffffffff1673ffffffffffffffffffffffffffffffffffffffff16815260200190815260200160002060008473ffffffffffffffffffffffffffffffffffffffff1673ffffffffffffffffffffffffffffffffffffffff16815260200190815260200160002060006101000a81548160ff0219169083151502179055508173ffffffffffffffffffffffffffffffffffffffff163373ffffffffffffffffffffffffffffffffffffffff167f17307eab39ab6107e8899845ad3d59bd9653f200f220920489ca2b5937696c3183604051808215151515815260200191505060405180910390a35050565b611d788484846111c7565b611d8484848484612432565b611dd9576040517f08c379a00000000000000000000000000000000000000000000000000000000081526004018080602001828103825260328152602001806137c06032913960400191505060405180910390fd5b50505050565b6060611dfa611dec611e01565b611df58461261b565b612748565b9050919050565b606060118054600181600116156101000203166002900480601f016020809104026020016040519081016040528092919081815260200182805460018160011615610100020316600290048015611e995780601f10611e6e57610100808354040283529160200191611e99565b820191906000526020600020905b815481529060010190602001808311611e7c57829003601f168201915b5050505050905090565b600073ffffffffffffffffffffffffffffffffffffffff16611ec483611645565b73ffffffffffffffffffffffffffffffffffffffff161415611ee557600080fd5b60018111611ef257600080fd5b60638110611eff57600080fd5b6000611f2782611f1960633461278c90919063ffffffff16565b61281290919063ffffffff16565b9050611f4f34600f6000868152602001908152602001600020546128a190919063ffffffff16565b8110611f5a57600080fd5b6010548110611f6857600080fd5b611f8e34600f6000868152602001908152602001600020546128a190919063ffffffff16565b600f6000858152602001908152602001600020819055506000611faf612929565b905082811161203d573373ffffffffffffffffffffffffffffffffffffffff166108fc839081150290604051600060405180830381858888f19350505050158015611ffe573d6000803e3d6000fd5b5061202582600f60008781526020019081526020016000205461296c90919063ffffffff16565b600f6000868152602001908152602001600020819055505b7fdb4b7005665283bfd1d097c977c13417b3d207197fa5cfd5ab2cc023d28458368482858411156040518084815260200183815260200182151515158152602001935050505060405180910390a150505050565b600080600d60009054906101000a900473ffffffffffffffffffffffffffffffffffffffff1690508273ffffffffffffffffffffffffffffffffffffffff168173ffffffffffffffffffffffffffffffffffffffff1663c4552791866040518263ffffffff1660e01b8152600401808273ffffffffffffffffffffffffffffffffffffffff1673ffffffffffffffffffffffffffffffffffffffff16815260200191505060206040518083038186803b15801561214d57600080fd5b505afa158015612161573d6000803e3d6000fd5b505050506040513d602081101561217757600080fd5b810190808051906020019092919050505073ffffffffffffffffffffffffffffffffffffffff1614156121ae5760019150506121bc565b6121b884846129f5565b9150505b92915050565b6121ca6119e3565b61223c576040517f08c379a00000000000000000000000000000000000000000000000000000000081526004018080602001828103825260208152602001807f4f776e61626c653a2063616c6c6572206973206e6f7420746865206f776e657281525060200191505060405180910390fd5b61224581612a89565b50565b6000806001600084815260200190815260200160002060009054906101000a900473ffffffffffffffffffffffffffffffffffffffff169050600073ffffffffffffffffffffffffffffffffffffffff168173ffffffffffffffffffffffffffffffffffffffff161415915050919050565b60006122c582612248565b61231a576040517f08c379a000000000000000000000000000000000000000000000000000000000815260040180806020018281038252602c81526020018061383c602c913960400191505060405180910390fd5b600061232583611645565b90508073ffffffffffffffffffffffffffffffffffffffff168473ffffffffffffffffffffffffffffffffffffffff16148061239457508373ffffffffffffffffffffffffffffffffffffffff1661237c84610f46565b73ffffffffffffffffffffffffffffffffffffffff16145b806123a557506123a48185612091565b5b91505092915050565b6123b9838383612bcf565b6123c38382612e2a565b6123cd8282612fc8565b505050565b600081600001549050919050565b60006123f86001600e546128a190919063ffffffff16565b905090565b612407828261308f565b6124118282612fc8565b61241a816132a7565b5050565b600e60008154809291906001019190505550565b60006124538473ffffffffffffffffffffffffffffffffffffffff166132f3565b6124605760019050612613565b60008473ffffffffffffffffffffffffffffffffffffffff1663150b7a02338887876040518563ffffffff1660e01b8152600401808573ffffffffffffffffffffffffffffffffffffffff1673ffffffffffffffffffffffffffffffffffffffff1681526020018473ffffffffffffffffffffffffffffffffffffffff1673ffffffffffffffffffffffffffffffffffffffff16815260200183815260200180602001828103825283818151815260200191508051906020019080838360005b8381101561253b578082015181840152602081019050612520565b50505050905090810190601f1680156125685780820380516001836020036101000a031916815260200191505b5095505050505050602060405180830381600087803b15801561258a57600080fd5b505af115801561259e573d6000803e3d6000fd5b505050506040513d60208110156125b457600080fd5b8101908080519060200190929190505050905063150b7a0260e01b7bffffffffffffffffffffffffffffffffffffffffffffffffffffffff1916817bffffffffffffffffffffffffffffffffffffffffffffffffffffffff1916149150505b949350505050565b60606000821415612663576040518060400160405280600181526020017f30000000000000000000000000000000000000000000000000000000000000008152509050612743565b600082905060005b6000821461268d578080600101915050600a828161268557fe5b04915061266b565b6060816040519080825280601f01601f1916602001820160405280156126c25781602001600182028038833980820191505090505b50905060006001830390505b6000861461273b57600a86816126e057fe5b0660300160f81b828280600190039350815181106126fa57fe5b60200101907effffffffffffffffffffffffffffffffffffffffffffffffffffffffffffff1916908160001a905350600a868161273357fe5b0495506126ce565b819450505050505b919050565b60606127848383604051806020016040528060008152506040518060200160405280600081525060405180602001604052806000815250613306565b905092915050565b60008083141561279f576000905061280c565b60008284029050828482816127b057fe5b0414612807576040517f08c379a00000000000000000000000000000000000000000000000000000000081526004018080602001828103825260218152602001806138f36021913960400191505060405180910390fd5b809150505b92915050565b6000808211612889576040517f08c379a000000000000000000000000000000000000000000000000000000000815260040180806020018281038252601a8152602001807f536166654d6174683a206469766973696f6e206279207a65726f00000000000081525060200191505060405180910390fd5b600082848161289457fe5b0490508091505092915050565b60008082840190508381101561291f576040517f08c379a000000000000000000000000000000000000000000000000000000000815260040180806020018281038252601b8152602001807f536166654d6174683a206164646974696f6e206f766572666c6f77000000000081525060200191505060405180910390fd5b8091505092915050565b60006064424460405160200180838152602001828152602001925050506040516020818303038152906040528051906020012060001c8161296657fe5b06905090565b6000828211156129e4576040517f08c379a000000000000000000000000000000000000000000000000000000000815260040180806020018281038252601e8152602001807f536166654d6174683a207375627472616374696f6e206f766572666c6f77000081525060200191505060405180910390fd5b600082840390508091505092915050565b6000600460008473ffffffffffffffffffffffffffffffffffffffff1673ffffffffffffffffffffffffffffffffffffffff16815260200190815260200160002060008373ffffffffffffffffffffffffffffffffffffffff1673ffffffffffffffffffffffffffffffffffffffff16815260200190815260200160002060009054906101000a900460ff16905092915050565b600073ffffffffffffffffffffffffffffffffffffffff168173ffffffffffffffffffffffffffffffffffffffff161415612b0f576040517f08c379a00000000000000000000000000000000000000000000000000000000081526004018080602001828103825260268152602001806137f26026913960400191505060405180910390fd5b8073ffffffffffffffffffffffffffffffffffffffff16600c60009054906101000a900473ffffffffffffffffffffffffffffffffffffffff1673ffffffffffffffffffffffffffffffffffffffff167f8be0079c531659141344cd1fd0a4f28419497f9722a3daafe3b4186f6b6457e060405160405180910390a380600c60006101000a81548173ffffffffffffffffffffffffffffffffffffffff021916908373ffffffffffffffffffffffffffffffffffffffff16021790555050565b8273ffffffffffffffffffffffffffffffffffffffff16612bef82611645565b73ffffffffffffffffffffffffffffffffffffffff1614612c5b576040517f08c379a00000000000000000000000000000000000000000000000000000000081526004018080602001828103825260298152602001806139406029913960400191505060405180910390fd5b600073ffffffffffffffffffffffffffffffffffffffff168273ffffffffffffffffffffffffffffffffffffffff161415612ce1576040517f08c379a00000000000000000000000000000000000000000000000000000000081526004018080602001828103825260248152602001806138186024913960400191505060405180910390fd5b612cea816135cc565b612d31600360008573ffffffffffffffffffffffffffffffffffffffff1673ffffffffffffffffffffffffffffffffffffffff16815260200190815260200160002061368a565b612d78600360008473ffffffffffffffffffffffffffffffffffffffff1673ffffffffffffffffffffffffffffffffffffffff1681526020019081526020016000206136ad565b816001600083815260200190815260200160002060006101000a81548173ffffffffffffffffffffffffffffffffffffffff021916908373ffffffffffffffffffffffffffffffffffffffff160217905550808273ffffffffffffffffffffffffffffffffffffffff168473ffffffffffffffffffffffffffffffffffffffff167fddf252ad1be2c89b69c2b068fc378daa952ba7f163c4a11628f55a4df523b3ef60405160405180910390a4505050565b6000612e826001600560008673ffffffffffffffffffffffffffffffffffffffff1673ffffffffffffffffffffffffffffffffffffffff1681526020019081526020016000208054905061296c90919063ffffffff16565b9050600060066000848152602001908152602001600020549050818114612f6f576000600560008673ffffffffffffffffffffffffffffffffffffffff1673ffffffffffffffffffffffffffffffffffffffff1681526020019081526020016000208381548110612eef57fe5b9060005260206000200154905080600560008773ffffffffffffffffffffffffffffffffffffffff1673ffffffffffffffffffffffffffffffffffffffff1681526020019081526020016000208381548110612f4757fe5b9060005260206000200181905550816006600083815260200190815260200160002081905550505b600560008573ffffffffffffffffffffffffffffffffffffffff1673ffffffffffffffffffffffffffffffffffffffff168152602001908152602001600020805480919060019003612fc19190613743565b5050505050565b600560008373ffffffffffffffffffffffffffffffffffffffff1673ffffffffffffffffffffffffffffffffffffffff168152602001908152602001600020805490506006600083815260200190815260200160002081905550600560008373ffffffffffffffffffffffffffffffffffffffff1673ffffffffffffffffffffffffffffffffffffffff1681526020019081526020016000208190806001815401808255809150509060018203906000526020600020016000909192909190915055505050565b600073ffffffffffffffffffffffffffffffffffffffff168273ffffffffffffffffffffffffffffffffffffffff161415613132576040517f08c379a00000000000000000000000000000000000000000000000000000000081526004018080602001828103825260208152602001807f4552433732313a206d696e7420746f20746865207a65726f206164647265737381525060200191505060405180910390fd5b61313b81612248565b156131ae576040517f08c379a000000000000000000000000000000000000000000000000000000000815260040180806020018281038252601c8152602001807f4552433732313a20746f6b656e20616c7265616479206d696e7465640000000081525060200191505060405180910390fd5b816001600083815260200190815260200160002060006101000a81548173ffffffffffffffffffffffffffffffffffffffff021916908373ffffffffffffffffffffffffffffffffffffffff160217905550613247600360008473ffffffffffffffffffffffffffffffffffffffff1673ffffffffffffffffffffffffffffffffffffffff1681526020019081526020016000206136ad565b808273ffffffffffffffffffffffffffffffffffffffff16600073ffffffffffffffffffffffffffffffffffffffff167fddf252ad1be2c89b69c2b068fc378daa952ba7f163c4a11628f55a4df523b3ef60405160405180910390a45050565b6007805490506008600083815260200190815260200160002081905550600781908060018154018082558091505090600182039060005260206000200160009091929091909150555050565b600080823b905060008111915050919050565b6060808690506060869050606086905060608690506060869050606081518351855187518951010101016040519080825280601f01601f1916602001820160405280156133625781602001600182028038833980820191505090505b5090506060819050600080905060008090505b88518110156133e35788818151811061338a57fe5b602001015160f81c60f81b8383806001019450815181106133a757fe5b60200101907effffffffffffffffffffffffffffffffffffffffffffffffffffffffffffff1916908160001a9053508080600101915050613375565b5060008090505b8751811015613458578781815181106133ff57fe5b602001015160f81c60f81b83838060010194508151811061341c57fe5b60200101907effffffffffffffffffffffffffffffffffffffffffffffffffffffffffffff1916908160001a90535080806001019150506133ea565b5060008090505b86518110156134cd5786818151811061347457fe5b602001015160f81c60f81b83838060010194508151811061349157fe5b60200101907effffffffffffffffffffffffffffffffffffffffffffffffffffffffffffff1916908160001a905350808060010191505061345f565b5060008090505b8551811015613542578581815181106134e957fe5b602001015160f81c60f81b83838060010194508151811061350657fe5b60200101907effffffffffffffffffffffffffffffffffffffffffffffffffffffffffffff1916908160001a90535080806001019150506134d4565b5060008090505b84518110156135b75784818151811061355e57fe5b602001015160f81c60f81b83838060010194508151811061357b57fe5b60200101907effffffffffffffffffffffffffffffffffffffffffffffffffffffffffffff1916908160001a9053508080600101915050613549565b50819850505050505050505095945050505050565b600073ffffffffffffffffffffffffffffffffffffffff166002600083815260200190815260200160002060009054906101000a900473ffffffffffffffffffffffffffffffffffffffff1673ffffffffffffffffffffffffffffffffffffffff16146136875760006002600083815260200190815260200160002060006101000a81548173ffffffffffffffffffffffffffffffffffffffff021916908373ffffffffffffffffffffffffffffffffffffffff1602179055505b50565b6136a26001826000015461296c90919063ffffffff16565b816000018190555050565b6001816000016000828254019250508190555050565b828054600181600116156101000203166002900490600052602060002090601f016020900481019282601f1061370457805160ff1916838001178555613732565b82800160010185558215613732579182015b82811115613731578251825591602001919060010190613716565b5b50905061373f919061376f565b5090565b81548183558181111561376a57818360005260206000209182019101613769919061376f565b5b505050565b61379191905b8082111561378d576000816000905550600101613775565b5090565b9056fe455243373231456e756d657261626c653a206f776e657220696e646578206f7574206f6620626f756e64734552433732313a207472616e7366657220746f206e6f6e20455243373231526563656976657220696d706c656d656e7465724f776e61626c653a206e6577206f776e657220697320746865207a65726f20616464726573734552433732313a207472616e7366657220746f20746865207a65726f20616464726573734552433732313a206f70657261746f7220717565727920666f72206e6f6e6578697374656e7420746f6b656e4552433732313a20617070726f76652063616c6c6572206973206e6f74206f776e6572206e6f7220617070726f76656420666f7220616c6c4552433732313a2062616c616e636520717565727920666f7220746865207a65726f20616464726573734552433732313a206f776e657220717565727920666f72206e6f6e6578697374656e7420746f6b656e536166654d6174683a206d756c7469706c69636174696f6e206f766572666c6f774552433732313a20617070726f76656420717565727920666f72206e6f6e6578697374656e7420746f6b656e4552433732313a207472616e73666572206f6620746f6b656e2074686174206973206e6f74206f776e4552433732313a20617070726f76616c20746f2063757272656e74206f776e65724552433732313a207472616e736665722063616c6c6572206973206e6f74206f776e6572206e6f7220617070726f766564455243373231456e756d657261626c653a20676c6f62616c20696e646578206f7574206f6620626f756e6473a165627a7a7230582091473ba2613f686889e64bdbe3f56b318fed69ab43daca666a65b9ed3262f8af0029",
  "source": "pragma solidity ^0.5.0;\r\n\r\nimport \"./TradeableERC721Token.sol\";\r\nimport \"openzeppelin-solidity/contracts/ownership/Ownable.sol\";\r\nimport \"openzeppelin-solidity/contracts/math/SafeMath.sol\";\r\n\r\n/**\r\n * @title PeoplesCasino\r\n * PeoplesCasino - a contract for non-fungible functional casino games.\r\n */\r\ncontract PeoplesCasino is TradeableERC721Token {\r\n\r\n  using SafeMath for uint;\r\n  mapping(uint => uint) houseReserves;\r\n  uint MAX_PAYOUT = 3 ether;\r\n  event BetResult(uint tokenId, uint roll, bool win);\r\n  string _baseTokenURI = \"\";\r\n  mapping(uint => string) extraData;\r\n\r\n  constructor(address _proxyRegistryAddress) \r\n  TradeableERC721Token(\"PeoplesCasino\", \"PCT\", _proxyRegistryAddress) \r\n  public {}\r\n\r\n  function baseTokenURI() public view returns (string memory) {\r\n    return _baseTokenURI;\r\n  }\r\n\r\n  function mint(uint tokenId) public payable onlyOwner {\r\n    _mint(msg.sender, tokenId);\r\n  }\r\n\r\n  function setBaseTokenURI(string memory tokenURI) public payable onlyOwner {\r\n    _baseTokenURI = tokenURI;\r\n  } \r\n\r\n  function setMaxPayout(uint maxPayout) public payable onlyOwner {\r\n    MAX_PAYOUT = maxPayout;\r\n  }\r\n\r\n  function getHouseReserve(uint tokenId) public view returns (uint) {\r\n    require(ownerOf(tokenId) != address(0));\r\n    return houseReserves[tokenId];\r\n  } \r\n\r\n  function addToHouseReserve(uint tokenId) public payable {\r\n    require(ownerOf(tokenId) != address(0));\r\n    houseReserves[tokenId] += msg.value;\r\n  } \r\n\r\n  function subtractFromHouseReserve(uint tokenId, uint amount) public payable {\r\n    require(msg.sender == ownerOf(tokenId));\r\n    require(houseReserves[tokenId] >= amount);\r\n    houseReserves[tokenId] -= amount;\r\n    msg.sender.transfer(amount);\r\n  } \r\n\r\n  function getRandomPercent() internal view returns (uint) {\r\n    return uint256(keccak256(abi.encodePacked(block.timestamp, block.difficulty))) % 100;\r\n  }\r\n\r\n  function makeBet(uint tokenId, uint oddsPercentage) public payable {\r\n    require(ownerOf(tokenId) != address(0));\r\n    require(oddsPercentage > 1);\r\n    require(oddsPercentage < 99);\r\n    // Remove 1% house charges\r\n    uint payout = msg.value.mul(99).div(oddsPercentage);\r\n    require(payout < houseReserves[tokenId].add(msg.value));\r\n    require(payout < MAX_PAYOUT);\r\n    // Bet is now underway. \r\n    // Add wager to house.\r\n    houseReserves[tokenId] = houseReserves[tokenId].add(msg.value);\r\n    // Roll the dice\r\n    uint roll = getRandomPercent();\r\n    // Payout winner if needed\r\n    if (roll <= oddsPercentage) {\r\n      msg.sender.transfer(payout);\r\n      // Remove winnings from house.\r\n      houseReserves[tokenId] = houseReserves[tokenId].sub(payout);\r\n    }\r\n    // Make the result available\r\n    emit BetResult(tokenId, roll, roll <= oddsPercentage);\r\n  }\r\n\r\n  function setExtraData(uint tokenId, string memory data) public payable {\r\n    require(ownerOf(tokenId) != address(0));\r\n    extraData[tokenId] = data;\r\n  } \r\n\r\n}",
  "sourcePath": "D:/dapps/peoples-casino/contracts/PeoplesCasino.sol",
  "compiler": {
    "name": "solc",
    "version": "0.5.8+commit.23d335f2.Emscripten.clang"
  },
  "schemaVersion": "3.0.11",
  "updatedAt": "2019-08-25T02:54:24.341Z",
  "devdoc": {
    "methods": {
      "approve(address,uint256)": {
        "details": "Approves another address to transfer the given token ID The zero address indicates there is no approved address. There can only be one approved address per token at a given time. Can only be called by the token owner or an approved operator.",
        "params": {
          "to": "address to be approved for the given token ID",
          "tokenId": "uint256 ID of the token to be approved"
        }
      },
      "balanceOf(address)": {
        "details": "Gets the balance of the specified address.",
        "params": {
          "owner": "address to query the balance of"
        },
        "return": "uint256 representing the amount owned by the passed address"
      },
      "getApproved(uint256)": {
        "details": "Gets the approved address for a token ID, or zero if no address set Reverts if the token ID does not exist.",
        "params": {
          "tokenId": "uint256 ID of the token to query the approval of"
        },
        "return": "address currently approved for the given token ID"
      },
      "isOwner()": {
        "details": "Returns true if the caller is the current owner."
      },
      "mintTo(address)": {
        "details": "Mints a token to an address with a tokenURI.\r",
        "params": {
          "_to": "address of the future owner of the token\r"
        }
      },
      "name()": {
        "details": "Gets the token name.",
        "return": "string representing the token name"
      },
      "owner()": {
        "details": "Returns the address of the current owner."
      },
      "ownerOf(uint256)": {
        "details": "Gets the owner of the specified token ID.",
        "params": {
          "tokenId": "uint256 ID of the token to query the owner of"
        },
        "return": "address currently marked as the owner of the given token ID"
      },
      "renounceOwnership()": {
        "details": "Leaves the contract without owner. It will not be possible to call `onlyOwner` functions anymore. Can only be called by the current owner.     * > Note: Renouncing ownership will leave the contract without an owner, thereby removing any functionality that is only available to the owner."
      },
      "safeTransferFrom(address,address,uint256)": {
        "details": "Safely transfers the ownership of a given token ID to another address If the target address is a contract, it must implement `onERC721Received`, which is called upon a safe transfer, and return the magic value `bytes4(keccak256(\"onERC721Received(address,address,uint256,bytes)\"))`; otherwise, the transfer is reverted. Requires the msg.sender to be the owner, approved, or operator",
        "params": {
          "from": "current owner of the token",
          "to": "address to receive the ownership of the given token ID",
          "tokenId": "uint256 ID of the token to be transferred"
        }
      },
      "safeTransferFrom(address,address,uint256,bytes)": {
        "details": "Safely transfers the ownership of a given token ID to another address If the target address is a contract, it must implement `onERC721Received`, which is called upon a safe transfer, and return the magic value `bytes4(keccak256(\"onERC721Received(address,address,uint256,bytes)\"))`; otherwise, the transfer is reverted. Requires the msg.sender to be the owner, approved, or operator",
        "params": {
          "_data": "bytes data to send along with a safe transfer check",
          "from": "current owner of the token",
          "to": "address to receive the ownership of the given token ID",
          "tokenId": "uint256 ID of the token to be transferred"
        }
      },
      "setApprovalForAll(address,bool)": {
        "details": "Sets or unsets the approval of a given operator An operator is allowed to transfer all tokens of the sender on their behalf.",
        "params": {
          "approved": "representing the status of the approval to be set",
          "to": "operator address to set the approval"
        }
      },
      "supportsInterface(bytes4)": {
        "details": "See `IERC165.supportsInterface`.     * Time complexity O(1), guaranteed to always use less than 30 000 gas."
      },
      "symbol()": {
        "details": "Gets the token symbol.",
        "return": "string representing the token symbol"
      },
      "tokenByIndex(uint256)": {
        "details": "Gets the token ID at a given index of all the tokens in this contract Reverts if the index is greater or equal to the total number of tokens.",
        "params": {
          "index": "uint256 representing the index to be accessed of the tokens list"
        },
        "return": "uint256 token ID at the given index of the tokens list"
      },
      "tokenOfOwnerByIndex(address,uint256)": {
        "details": "Gets the token ID at a given index of the tokens list of the requested owner.",
        "params": {
          "index": "uint256 representing the index to be accessed of the requested tokens list",
          "owner": "address owning the tokens list to be accessed"
        },
        "return": "uint256 token ID at the given index of the tokens list owned by the requested address"
      },
      "totalSupply()": {
        "details": "Gets the total amount of tokens stored by the contract.",
        "return": "uint256 representing the total amount of tokens"
      },
      "transferFrom(address,address,uint256)": {
        "details": "Transfers the ownership of a given token ID to another address. Usage of this method is discouraged, use `safeTransferFrom` whenever possible. Requires the msg.sender to be the owner, approved, or operator.",
        "params": {
          "from": "current owner of the token",
          "to": "address to receive the ownership of the given token ID",
          "tokenId": "uint256 ID of the token to be transferred"
        }
      },
      "transferOwnership(address)": {
        "details": "Transfers ownership of the contract to a new account (`newOwner`). Can only be called by the current owner."
      }
    },
    "title": "PeoplesCasino\r PeoplesCasino - a contract for non-fungible functional casino games.\r"
  },
  "userdoc": {
    "methods": {
      "isApprovedForAll(address,address)": {
        "notice": "Override isApprovedForAll to whitelist user's OpenSea proxy accounts to enable gas-less listings.\r"
      }
    }
  }
}