{
  "contractName": "PeoplesCasino",
  "abi": [
    {
      "constant": true,
      "inputs": [
        {
          "name": "interfaceId",
          "type": "bytes4"
        }
      ],
      "name": "supportsInterface",
      "outputs": [
        {
          "name": "",
          "type": "bool"
        }
      ],
      "payable": false,
      "stateMutability": "view",
      "type": "function"
    },
    {
      "constant": true,
      "inputs": [],
      "name": "name",
      "outputs": [
        {
          "name": "",
          "type": "string"
        }
      ],
      "payable": false,
      "stateMutability": "view",
      "type": "function"
    },
    {
      "constant": true,
      "inputs": [
        {
          "name": "tokenId",
          "type": "uint256"
        }
      ],
      "name": "getApproved",
      "outputs": [
        {
          "name": "",
          "type": "address"
        }
      ],
      "payable": false,
      "stateMutability": "view",
      "type": "function"
    },
    {
      "constant": false,
      "inputs": [
        {
          "name": "to",
          "type": "address"
        },
        {
          "name": "tokenId",
          "type": "uint256"
        }
      ],
      "name": "approve",
      "outputs": [],
      "payable": false,
      "stateMutability": "nonpayable",
      "type": "function"
    },
    {
      "constant": true,
      "inputs": [],
      "name": "totalSupply",
      "outputs": [
        {
          "name": "",
          "type": "uint256"
        }
      ],
      "payable": false,
      "stateMutability": "view",
      "type": "function"
    },
    {
      "constant": false,
      "inputs": [
        {
          "name": "from",
          "type": "address"
        },
        {
          "name": "to",
          "type": "address"
        },
        {
          "name": "tokenId",
          "type": "uint256"
        }
      ],
      "name": "transferFrom",
      "outputs": [],
      "payable": false,
      "stateMutability": "nonpayable",
      "type": "function"
    },
    {
      "constant": true,
      "inputs": [
        {
          "name": "owner",
          "type": "address"
        },
        {
          "name": "index",
          "type": "uint256"
        }
      ],
      "name": "tokenOfOwnerByIndex",
      "outputs": [
        {
          "name": "",
          "type": "uint256"
        }
      ],
      "payable": false,
      "stateMutability": "view",
      "type": "function"
    },
    {
      "constant": false,
      "inputs": [
        {
          "name": "from",
          "type": "address"
        },
        {
          "name": "to",
          "type": "address"
        },
        {
          "name": "tokenId",
          "type": "uint256"
        }
      ],
      "name": "safeTransferFrom",
      "outputs": [],
      "payable": false,
      "stateMutability": "nonpayable",
      "type": "function"
    },
    {
      "constant": true,
      "inputs": [
        {
          "name": "index",
          "type": "uint256"
        }
      ],
      "name": "tokenByIndex",
      "outputs": [
        {
          "name": "",
          "type": "uint256"
        }
      ],
      "payable": false,
      "stateMutability": "view",
      "type": "function"
    },
    {
      "constant": true,
      "inputs": [
        {
          "name": "tokenId",
          "type": "uint256"
        }
      ],
      "name": "ownerOf",
      "outputs": [
        {
          "name": "",
          "type": "address"
        }
      ],
      "payable": false,
      "stateMutability": "view",
      "type": "function"
    },
    {
      "constant": true,
      "inputs": [
        {
          "name": "owner",
          "type": "address"
        }
      ],
      "name": "balanceOf",
      "outputs": [
        {
          "name": "",
          "type": "uint256"
        }
      ],
      "payable": false,
      "stateMutability": "view",
      "type": "function"
    },
    {
      "constant": false,
      "inputs": [],
      "name": "renounceOwnership",
      "outputs": [],
      "payable": false,
      "stateMutability": "nonpayable",
      "type": "function"
    },
    {
      "constant": false,
      "inputs": [
        {
          "name": "_to",
          "type": "address"
        }
      ],
      "name": "mintTo",
      "outputs": [],
      "payable": false,
      "stateMutability": "nonpayable",
      "type": "function"
    },
    {
      "constant": true,
      "inputs": [],
      "name": "owner",
      "outputs": [
        {
          "name": "",
          "type": "address"
        }
      ],
      "payable": false,
      "stateMutability": "view",
      "type": "function"
    },
    {
      "constant": true,
      "inputs": [],
      "name": "isOwner",
      "outputs": [
        {
          "name": "",
          "type": "bool"
        }
      ],
      "payable": false,
      "stateMutability": "view",
      "type": "function"
    },
    {
      "constant": true,
      "inputs": [],
      "name": "symbol",
      "outputs": [
        {
          "name": "",
          "type": "string"
        }
      ],
      "payable": false,
      "stateMutability": "view",
      "type": "function"
    },
    {
      "constant": false,
      "inputs": [
        {
          "name": "to",
          "type": "address"
        },
        {
          "name": "approved",
          "type": "bool"
        }
      ],
      "name": "setApprovalForAll",
      "outputs": [],
      "payable": false,
      "stateMutability": "nonpayable",
      "type": "function"
    },
    {
      "constant": false,
      "inputs": [
        {
          "name": "from",
          "type": "address"
        },
        {
          "name": "to",
          "type": "address"
        },
        {
          "name": "tokenId",
          "type": "uint256"
        },
        {
          "name": "_data",
          "type": "bytes"
        }
      ],
      "name": "safeTransferFrom",
      "outputs": [],
      "payable": false,
      "stateMutability": "nonpayable",
      "type": "function"
    },
    {
      "constant": true,
      "inputs": [
        {
          "name": "_tokenId",
          "type": "uint256"
        }
      ],
      "name": "tokenURI",
      "outputs": [
        {
          "name": "",
          "type": "string"
        }
      ],
      "payable": false,
      "stateMutability": "view",
      "type": "function"
    },
    {
      "constant": true,
      "inputs": [
        {
          "name": "owner",
          "type": "address"
        },
        {
          "name": "operator",
          "type": "address"
        }
      ],
      "name": "isApprovedForAll",
      "outputs": [
        {
          "name": "",
          "type": "bool"
        }
      ],
      "payable": false,
      "stateMutability": "view",
      "type": "function"
    },
    {
      "constant": false,
      "inputs": [
        {
          "name": "newOwner",
          "type": "address"
        }
      ],
      "name": "transferOwnership",
      "outputs": [],
      "payable": false,
      "stateMutability": "nonpayable",
      "type": "function"
    },
    {
      "inputs": [],
      "payable": false,
      "stateMutability": "nonpayable",
      "type": "constructor"
    },
    {
      "anonymous": false,
      "inputs": [
        {
          "indexed": false,
          "name": "tokenId",
          "type": "uint256"
        },
        {
          "indexed": false,
          "name": "random",
          "type": "uint256"
        },
        {
          "indexed": false,
          "name": "oddsPercentage",
          "type": "uint256"
        }
      ],
      "name": "BetResult",
      "type": "event"
    },
    {
      "anonymous": false,
      "inputs": [
        {
          "indexed": true,
          "name": "previousOwner",
          "type": "address"
        },
        {
          "indexed": true,
          "name": "newOwner",
          "type": "address"
        }
      ],
      "name": "OwnershipTransferred",
      "type": "event"
    },
    {
      "anonymous": false,
      "inputs": [
        {
          "indexed": true,
          "name": "from",
          "type": "address"
        },
        {
          "indexed": true,
          "name": "to",
          "type": "address"
        },
        {
          "indexed": true,
          "name": "tokenId",
          "type": "uint256"
        }
      ],
      "name": "Transfer",
      "type": "event"
    },
    {
      "anonymous": false,
      "inputs": [
        {
          "indexed": true,
          "name": "owner",
          "type": "address"
        },
        {
          "indexed": true,
          "name": "approved",
          "type": "address"
        },
        {
          "indexed": true,
          "name": "tokenId",
          "type": "uint256"
        }
      ],
      "name": "Approval",
      "type": "event"
    },
    {
      "anonymous": false,
      "inputs": [
        {
          "indexed": true,
          "name": "owner",
          "type": "address"
        },
        {
          "indexed": true,
          "name": "operator",
          "type": "address"
        },
        {
          "indexed": false,
          "name": "approved",
          "type": "bool"
        }
      ],
      "name": "ApprovalForAll",
      "type": "event"
    },
    {
      "constant": true,
      "inputs": [],
      "name": "baseTokenURI",
      "outputs": [
        {
          "name": "",
          "type": "string"
        }
      ],
      "payable": false,
      "stateMutability": "view",
      "type": "function"
    },
    {
      "constant": false,
      "inputs": [
        {
          "name": "tokenId",
          "type": "uint256"
        }
      ],
      "name": "mint",
      "outputs": [],
      "payable": true,
      "stateMutability": "payable",
      "type": "function"
    },
    {
      "constant": false,
      "inputs": [
        {
          "name": "tokenIdStart",
          "type": "uint256"
        },
        {
          "name": "tokenIdEnd",
          "type": "uint256"
        }
      ],
      "name": "mintMultiple",
      "outputs": [],
      "payable": true,
      "stateMutability": "payable",
      "type": "function"
    },
    {
      "constant": false,
      "inputs": [
        {
          "name": "tokenURI",
          "type": "string"
        }
      ],
      "name": "setBaseTokenURI",
      "outputs": [],
      "payable": true,
      "stateMutability": "payable",
      "type": "function"
    },
    {
      "constant": false,
      "inputs": [
        {
          "name": "maxPayout",
          "type": "uint256"
        }
      ],
      "name": "setMaxPayout",
      "outputs": [],
      "payable": true,
      "stateMutability": "payable",
      "type": "function"
    },
    {
      "constant": true,
      "inputs": [
        {
          "name": "tokenId",
          "type": "uint256"
        }
      ],
      "name": "getHouseReserve",
      "outputs": [
        {
          "name": "",
          "type": "uint256"
        }
      ],
      "payable": false,
      "stateMutability": "view",
      "type": "function"
    },
    {
      "constant": false,
      "inputs": [
        {
          "name": "tokenId",
          "type": "uint256"
        }
      ],
      "name": "depositHouseReserve",
      "outputs": [],
      "payable": true,
      "stateMutability": "payable",
      "type": "function"
    },
    {
      "constant": false,
      "inputs": [
        {
          "name": "tokenId",
          "type": "uint256"
        },
        {
          "name": "amount",
          "type": "uint256"
        }
      ],
      "name": "withdrawalHouseReserve",
      "outputs": [],
      "payable": true,
      "stateMutability": "payable",
      "type": "function"
    },
    {
      "constant": true,
      "inputs": [
        {
          "name": "tokenId",
          "type": "uint256"
        }
      ],
      "name": "getOngoingBetSender",
      "outputs": [
        {
          "name": "",
          "type": "address"
        }
      ],
      "payable": false,
      "stateMutability": "view",
      "type": "function"
    },
    {
      "constant": false,
      "inputs": [
        {
          "name": "tokenId",
          "type": "uint256"
        },
        {
          "name": "oddsPercentage",
          "type": "uint256"
        }
      ],
      "name": "commitBet",
      "outputs": [],
      "payable": true,
      "stateMutability": "payable",
      "type": "function"
    },
    {
      "constant": false,
      "inputs": [
        {
          "name": "tokenId",
          "type": "uint256"
        }
      ],
      "name": "getResult",
      "outputs": [],
      "payable": true,
      "stateMutability": "payable",
      "type": "function"
    },
    {
      "constant": false,
      "inputs": [
        {
          "name": "tokenId",
          "type": "uint256"
        },
        {
          "name": "data",
          "type": "string"
        }
      ],
      "name": "setExtraData",
      "outputs": [],
      "payable": true,
      "stateMutability": "payable",
      "type": "function"
    },
    {
      "constant": true,
      "inputs": [
        {
          "name": "tokenId",
          "type": "uint256"
        }
      ],
      "name": "getExtraData",
      "outputs": [
        {
          "name": "",
          "type": "string"
        }
      ],
      "payable": false,
      "stateMutability": "view",
      "type": "function"
    }
  ],
  "bytecode": "0x60806040526000600e556729a2241af62c00006010556040518060600160405280602181526020016200498b60219139601190805190602001906200004692919062000381565b503480156200005457600080fd5b506040518060400160405280600d81526020017f50656f706c6573436173696e6f000000000000000000000000000000000000008152506040518060400160405280600381526020017f504354000000000000000000000000000000000000000000000000000000000081525073a5409ec958c83c3f309868babaca7c86dcb077c182828181620000f26301ffc9a760e01b6200027860201b60201c565b6200010a6380ac58cd60e01b6200027860201b60201c565b6200012263780e9d6360e01b6200027860201b60201c565b81600990805190602001906200013a92919062000381565b5080600a90805190602001906200015392919062000381565b506200016c635b5e139f60e01b6200027860201b60201c565b5050505033600c60006101000a81548173ffffffffffffffffffffffffffffffffffffffff021916908373ffffffffffffffffffffffffffffffffffffffff160217905550600c60009054906101000a900473ffffffffffffffffffffffffffffffffffffffff1673ffffffffffffffffffffffffffffffffffffffff16600073ffffffffffffffffffffffffffffffffffffffff167f8be0079c531659141344cd1fd0a4f28419497f9722a3daafe3b4186f6b6457e060405160405180910390a380600d60006101000a81548173ffffffffffffffffffffffffffffffffffffffff021916908373ffffffffffffffffffffffffffffffffffffffff16021790555050505062000430565b63ffffffff60e01b817bffffffffffffffffffffffffffffffffffffffffffffffffffffffff1916141562000315576040517f08c379a000000000000000000000000000000000000000000000000000000000815260040180806020018281038252601c8152602001807f4552433136353a20696e76616c696420696e746572666163652069640000000081525060200191505060405180910390fd5b6001600080837bffffffffffffffffffffffffffffffffffffffffffffffffffffffff19167bffffffffffffffffffffffffffffffffffffffffffffffffffffffff1916815260200190815260200160002060006101000a81548160ff02191690831515021790555050565b828054600181600116156101000203166002900490600052602060002090601f016020900481019282601f10620003c457805160ff1916838001178555620003f5565b82800160010185558215620003f5579182015b82811115620003f4578251825591602001919060010190620003d7565b5b50905062000404919062000408565b5090565b6200042d91905b80821115620004295760008160009055506001016200040f565b5090565b90565b61454b80620004406000396000f3fe6080604052600436106101f85760003560e01c806370a082311161010d57806395d89b41116100a0578063b88d4fde1161006f578063b88d4fde14610ccd578063c87b56dd14610ddf578063d547cfb714610e93578063e985e9c514610f23578063f2fde38b14610fac576101f8565b806395d89b4114610b84578063995e433914610c14578063a0712d6814610c42578063a22cb46514610c70576101f8565b80638322bc9a116100dc5780638322bc9a14610a555780638ad0ee8214610ad05780638da5cb5b14610afe5780638f32d59b14610b55576101f8565b806370a0823114610950578063715018a6146109b5578063755edd17146109cc578063822df28f14610a1d576101f8565b806330176e131161019057806342842e0e1161015f57806342842e0e146107a55780634f6ccce71461082057806354ff74761461086f57806356b4997f146108a75780636352211e146108d5576101f8565b806330176e13146105225780633a0753b1146105dd5780633c79ca031461062c5780634044474c146106e0576101f8565b8063095ea7b3116101cc578063095ea7b3146103b257806318160ddd1461040d57806323b872dd146104385780632f745c59146104b3576101f8565b8062c2e49a146101fd57806301ffc9a71461023557806306fdde03146102a7578063081812fc14610337575b600080fd5b6102336004803603604081101561021357600080fd5b810190808035906020019092919080359060200190929190505050610ffd565b005b34801561024157600080fd5b5061028d6004803603602081101561025857600080fd5b8101908080357bffffffffffffffffffffffffffffffffffffffffffffffffffffffff1916906020019092919050505061112c565b604051808215151515815260200191505060405180910390f35b3480156102b357600080fd5b506102bc611193565b6040518080602001828103825283818151815260200191508051906020019080838360005b838110156102fc5780820151818401526020810190506102e1565b50505050905090810190601f1680156103295780820380516001836020036101000a031916815260200191505b509250505060405180910390f35b34801561034357600080fd5b506103706004803603602081101561035a57600080fd5b8101908080359060200190929190505050611235565b604051808273ffffffffffffffffffffffffffffffffffffffff1673ffffffffffffffffffffffffffffffffffffffff16815260200191505060405180910390f35b3480156103be57600080fd5b5061040b600480360360408110156103d557600080fd5b81019080803573ffffffffffffffffffffffffffffffffffffffff169060200190929190803590602001909291905050506112d0565b005b34801561041957600080fd5b506104226114a9565b6040518082815260200191505060405180910390f35b34801561044457600080fd5b506104b16004803603606081101561045b57600080fd5b81019080803573ffffffffffffffffffffffffffffffffffffffff169060200190929190803573ffffffffffffffffffffffffffffffffffffffff169060200190929190803590602001909291905050506114b6565b005b3480156104bf57600080fd5b5061050c600480360360408110156104d657600080fd5b81019080803573ffffffffffffffffffffffffffffffffffffffff16906020019092919080359060200190929190505050611525565b6040518082815260200191505060405180910390f35b6105db6004803603602081101561053857600080fd5b810190808035906020019064010000000081111561055557600080fd5b82018360208201111561056757600080fd5b8035906020019184600183028401116401000000008311171561058957600080fd5b91908080601f016020809104026020016040519081016040528093929190818152602001838380828437600081840152601f19601f8201169050808301925050505050505091929192905050506115e4565b005b3480156105e957600080fd5b506106166004803603602081101561060057600080fd5b8101908080359060200190929190505050611678565b6040518082815260200191505060405180910390f35b34801561063857600080fd5b506106656004803603602081101561064f57600080fd5b81019080803590602001909291905050506116b4565b6040518080602001828103825283818151815260200191508051906020019080838360005b838110156106a557808201518184015260208101905061068a565b50505050905090810190601f1680156106d25780820380516001836020036101000a031916815260200191505b509250505060405180910390f35b6107a3600480360360408110156106f657600080fd5b81019080803590602001909291908035906020019064010000000081111561071d57600080fd5b82018360208201111561072f57600080fd5b8035906020019184600183028401116401000000008311171561075157600080fd5b91908080601f016020809104026020016040519081016040528093929190818152602001838380828437600081840152601f19601f820116905080830192505050505050509192919290505050611769565b005b3480156107b157600080fd5b5061081e600480360360608110156107c857600080fd5b81019080803573ffffffffffffffffffffffffffffffffffffffff169060200190929190803573ffffffffffffffffffffffffffffffffffffffff16906020019092919080359060200190929190505050611821565b005b34801561082c57600080fd5b506108596004803603602081101561084357600080fd5b8101908080359060200190929190505050611841565b6040518082815260200191505060405180910390f35b6108a56004803603604081101561088557600080fd5b8101908080359060200190929190803590602001909291905050506118c1565b005b6108d3600480360360208110156108bd57600080fd5b8101908080359060200190929190505050611cdb565b005b3480156108e157600080fd5b5061090e600480360360208110156108f857600080fd5b8101908080359060200190929190505050611d5f565b604051808273ffffffffffffffffffffffffffffffffffffffff1673ffffffffffffffffffffffffffffffffffffffff16815260200191505060405180910390f35b34801561095c57600080fd5b5061099f6004803603602081101561097357600080fd5b81019080803573ffffffffffffffffffffffffffffffffffffffff169060200190929190505050611e27565b6040518082815260200191505060405180910390f35b3480156109c157600080fd5b506109ca611efc565b005b3480156109d857600080fd5b50610a1b600480360360208110156109ef57600080fd5b81019080803573ffffffffffffffffffffffffffffffffffffffff169060200190929190505050612037565b005b610a5360048036036040811015610a3357600080fd5b8101908080359060200190929190803590602001909291905050506120d3565b005b348015610a6157600080fd5b50610a8e60048036036020811015610a7857600080fd5b8101908080359060200190929190505050612176565b604051808273ffffffffffffffffffffffffffffffffffffffff1673ffffffffffffffffffffffffffffffffffffffff16815260200191505060405180910390f35b610afc60048036036020811015610ae657600080fd5b81019080803590602001909291905050506121b6565b005b348015610b0a57600080fd5b50610b136122a1565b604051808273ffffffffffffffffffffffffffffffffffffffff1673ffffffffffffffffffffffffffffffffffffffff16815260200191505060405180910390f35b348015610b6157600080fd5b50610b6a6122cb565b604051808215151515815260200191505060405180910390f35b348015610b9057600080fd5b50610b99612323565b6040518080602001828103825283818151815260200191508051906020019080838360005b83811015610bd9578082015181840152602081019050610bbe565b50505050905090810190601f168015610c065780820380516001836020036101000a031916815260200191505b509250505060405180910390f35b610c4060048036036020811015610c2a57600080fd5b81019080803590602001909291905050506123c5565b005b610c6e60048036036020811015610c5857600080fd5b8101908080359060200190929190505050612784565b005b348015610c7c57600080fd5b50610ccb60048036036040811015610c9357600080fd5b81019080803573ffffffffffffffffffffffffffffffffffffffff16906020019092919080351515906020019092919050505061280b565b005b348015610cd957600080fd5b50610ddd60048036036080811015610cf057600080fd5b81019080803573ffffffffffffffffffffffffffffffffffffffff169060200190929190803573ffffffffffffffffffffffffffffffffffffffff1690602001909291908035906020019092919080359060200190640100000000811115610d5757600080fd5b820183602082011115610d6957600080fd5b80359060200191846001830284011164010000000083111715610d8b57600080fd5b91908080601f016020809104026020016040519081016040528093929190818152602001838380828437600081840152601f19601f8201169050808301925050505050505091929192905050506129ae565b005b348015610deb57600080fd5b50610e1860048036036020811015610e0257600080fd5b8101908080359060200190929190505050612a20565b6040518080602001828103825283818151815260200191508051906020019080838360005b83811015610e58578082015181840152602081019050610e3d565b50505050905090810190601f168015610e855780820380516001836020036101000a031916815260200191505b509250505060405180910390f35b348015610e9f57600080fd5b50610ea8612a42565b6040518080602001828103825283818151815260200191508051906020019080838360005b83811015610ee8578082015181840152602081019050610ecd565b50505050905090810190601f168015610f155780820380516001836020036101000a031916815260200191505b509250505060405180910390f35b348015610f2f57600080fd5b50610f9260048036036040811015610f4657600080fd5b81019080803573ffffffffffffffffffffffffffffffffffffffff169060200190929190803573ffffffffffffffffffffffffffffffffffffffff169060200190929190505050612ae4565b604051808215151515815260200191505060405180910390f35b348015610fb857600080fd5b50610ffb60048036036020811015610fcf57600080fd5b81019080803573ffffffffffffffffffffffffffffffffffffffff169060200190929190505050612c15565b005b61100682611d5f565b73ffffffffffffffffffffffffffffffffffffffff163373ffffffffffffffffffffffffffffffffffffffff1614611089576040517f08c379a00000000000000000000000000000000000000000000000000000000081526004018080602001828103825260258152602001806142a96025913960400191505060405180910390fd5b600061109483611678565b9050818110156110a357600080fd5b6110c982600f600086815260200190815260200160002054612c9b90919063ffffffff16565b600f6000858152602001908152602001600020819055503373ffffffffffffffffffffffffffffffffffffffff166108fc839081150290604051600060405180830381858888f19350505050158015611126573d6000803e3d6000fd5b50505050565b6000806000837bffffffffffffffffffffffffffffffffffffffffffffffffffffffff19167bffffffffffffffffffffffffffffffffffffffffffffffffffffffff1916815260200190815260200160002060009054906101000a900460ff169050919050565b606060098054600181600116156101000203166002900480601f01602080910402602001604051908101604052809291908181526020018280546001816001161561010002031660029004801561122b5780601f106112005761010080835404028352916020019161122b565b820191906000526020600020905b81548152906001019060200180831161120e57829003601f168201915b5050505050905090565b600061124082612d24565b611295576040517f08c379a000000000000000000000000000000000000000000000000000000000815260040180806020018281038252602c81526020018061444d602c913960400191505060405180910390fd5b6002600083815260200190815260200160002060009054906101000a900473ffffffffffffffffffffffffffffffffffffffff169050919050565b60006112db82611d5f565b90508073ffffffffffffffffffffffffffffffffffffffff168373ffffffffffffffffffffffffffffffffffffffff161415611362576040517f08c379a00000000000000000000000000000000000000000000000000000000081526004018080602001828103825260218152602001806144a26021913960400191505060405180910390fd5b8073ffffffffffffffffffffffffffffffffffffffff163373ffffffffffffffffffffffffffffffffffffffff1614806113a257506113a18133612ae4565b5b6113f7576040517f08c379a00000000000000000000000000000000000000000000000000000000081526004018080602001828103825260388152602001806143a16038913960400191505060405180910390fd5b826002600084815260200190815260200160002060006101000a81548173ffffffffffffffffffffffffffffffffffffffff021916908373ffffffffffffffffffffffffffffffffffffffff160217905550818373ffffffffffffffffffffffffffffffffffffffff168273ffffffffffffffffffffffffffffffffffffffff167f8c5be1e5ebec7d5bd14f71427d1e84f3dd0314c0f7b2291e5b200ac8c7c3b92560405160405180910390a4505050565b6000600780549050905090565b6114c03382612d96565b611515576040517f08c379a00000000000000000000000000000000000000000000000000000000081526004018080602001828103825260318152602001806144c36031913960400191505060405180910390fd5b611520838383612e8a565b505050565b600061153083611e27565b8210611587576040517f08c379a000000000000000000000000000000000000000000000000000000000815260040180806020018281038252602b8152602001806142ce602b913960400191505060405180910390fd5b600560008473ffffffffffffffffffffffffffffffffffffffff1673ffffffffffffffffffffffffffffffffffffffff16815260200190815260200160002082815481106115d157fe5b9060005260206000200154905092915050565b6115ec6122cb565b61165e576040517f08c379a00000000000000000000000000000000000000000000000000000000081526004018080602001828103825260208152602001807f4f776e61626c653a2063616c6c6572206973206e6f7420746865206f776e657281525060200191505060405180910390fd5b80601190805190602001906116749291906141d7565b5050565b60008061168483612eae565b90506116ac81600f600086815260200190815260200160002054612c9b90919063ffffffff16565b915050919050565b6060601260008381526020019081526020016000208054600181600116156101000203166002900480601f01602080910402602001604051908101604052809291908181526020018280546001816001161561010002031660029004801561175d5780601f106117325761010080835404028352916020019161175d565b820191906000526020600020905b81548152906001019060200180831161174057829003601f168201915b50505050509050919050565b61177282611d5f565b73ffffffffffffffffffffffffffffffffffffffff163373ffffffffffffffffffffffffffffffffffffffff16146117f5576040517f08c379a00000000000000000000000000000000000000000000000000000000081526004018080602001828103825260258152602001806142a96025913960400191505060405180910390fd5b8060126000848152602001908152602001600020908051906020019061181c9291906141d7565b505050565b61183c838383604051806020016040528060008152506129ae565b505050565b600061184b6114a9565b82106118a2576040517f08c379a000000000000000000000000000000000000000000000000000000000815260040180806020018281038252602c8152602001806144f4602c913960400191505060405180910390fd5b600782815481106118af57fe5b90600052602060002001549050919050565b600073ffffffffffffffffffffffffffffffffffffffff166118e283611d5f565b73ffffffffffffffffffffffffffffffffffffffff16141561196c576040517f08c379a00000000000000000000000000000000000000000000000000000000081526004018080602001828103825260158152602001807f436173696e6f20646f6573206e6f74206578697374000000000000000000000081525060200191505060405180910390fd5b61197582612f11565b156119e8576040517f08c379a000000000000000000000000000000000000000000000000000000000815260040180806020018281038252600e8152602001807f436173696e6f20696e20706c617900000000000000000000000000000000000081525060200191505060405180910390fd5b60018111611a5e576040517f08c379a000000000000000000000000000000000000000000000000000000000815260040180806020018281038252600e8152602001807f42657420697320746f6f206c6f7700000000000000000000000000000000000081525060200191505060405180910390fd5b60638110611ad4576040517f08c379a000000000000000000000000000000000000000000000000000000000815260040180806020018281038252600f8152602001807f42657420697320746f6f2068696768000000000000000000000000000000000081525060200191505060405180910390fd5b6000611ae03483612f82565b9050611b0834600f600086815260200190815260200160002054612fb290919063ffffffff16565b8110611b7c576040517f08c379a000000000000000000000000000000000000000000000000000000000815260040180806020018281038252600f8152602001807f436173696e6f20746f6f20706f6f72000000000000000000000000000000000081525060200191505060405180910390fd5b6010548110611bf3576040517f08c379a00000000000000000000000000000000000000000000000000000000081526004018080602001828103825260108152602001807f5061796f75742061626f7665206d61780000000000000000000000000000000081525060200191505060405180910390fd5b611c1934600f600086815260200190815260200160002054612fb290919063ffffffff16565b600f600085815260200190815260200160002081905550436013600085815260200190815260200160002060000181905550336013600085815260200190815260200160002060010160006101000a81548173ffffffffffffffffffffffffffffffffffffffff021916908373ffffffffffffffffffffffffffffffffffffffff160217905550346013600085815260200190815260200160002060020181905550816013600085815260200190815260200160002060030181905550505050565b611ce36122cb565b611d55576040517f08c379a00000000000000000000000000000000000000000000000000000000081526004018080602001828103825260208152602001807f4f776e61626c653a2063616c6c6572206973206e6f7420746865206f776e657281525060200191505060405180910390fd5b8060108190555050565b6000806001600084815260200190815260200160002060009054906101000a900473ffffffffffffffffffffffffffffffffffffffff169050600073ffffffffffffffffffffffffffffffffffffffff168173ffffffffffffffffffffffffffffffffffffffff161415611e1e576040517f08c379a00000000000000000000000000000000000000000000000000000000081526004018080602001828103825260298152602001806144036029913960400191505060405180910390fd5b80915050919050565b60008073ffffffffffffffffffffffffffffffffffffffff168273ffffffffffffffffffffffffffffffffffffffff161415611eae576040517f08c379a000000000000000000000000000000000000000000000000000000000815260040180806020018281038252602a8152602001806143d9602a913960400191505060405180910390fd5b611ef5600360008473ffffffffffffffffffffffffffffffffffffffff1673ffffffffffffffffffffffffffffffffffffffff16815260200190815260200160002061303a565b9050919050565b611f046122cb565b611f76576040517f08c379a00000000000000000000000000000000000000000000000000000000081526004018080602001828103825260208152602001807f4f776e61626c653a2063616c6c6572206973206e6f7420746865206f776e657281525060200191505060405180910390fd5b600073ffffffffffffffffffffffffffffffffffffffff16600c60009054906101000a900473ffffffffffffffffffffffffffffffffffffffff1673ffffffffffffffffffffffffffffffffffffffff167f8be0079c531659141344cd1fd0a4f28419497f9722a3daafe3b4186f6b6457e060405160405180910390a36000600c60006101000a81548173ffffffffffffffffffffffffffffffffffffffff021916908373ffffffffffffffffffffffffffffffffffffffff160217905550565b61203f6122cb565b6120b1576040517f08c379a00000000000000000000000000000000000000000000000000000000081526004018080602001828103825260208152602001807f4f776e61626c653a2063616c6c6572206973206e6f7420746865206f776e657281525060200191505060405180910390fd5b60006120bb613048565b90506120c78282613065565b6120cf613086565b5050565b6120db6122cb565b61214d576040517f08c379a00000000000000000000000000000000000000000000000000000000081526004018080602001828103825260208152602001807f4f776e61626c653a2063616c6c6572206973206e6f7420746865206f776e657281525060200191505060405180910390fd5b60008290505b818111612171576121643382613065565b8080600101915050612153565b505050565b60006013600083815260200190815260200160002060010160009054906101000a900473ffffffffffffffffffffffffffffffffffffffff169050919050565b600073ffffffffffffffffffffffffffffffffffffffff166121d782611d5f565b73ffffffffffffffffffffffffffffffffffffffff161415612261576040517f08c379a00000000000000000000000000000000000000000000000000000000081526004018080602001828103825260158152602001807f436173696e6f20646f6573206e6f74206578697374000000000000000000000081525060200191505060405180910390fd5b61228734600f600084815260200190815260200160002054612fb290919063ffffffff16565b600f60008381526020019081526020016000208190555050565b6000600c60009054906101000a900473ffffffffffffffffffffffffffffffffffffffff16905090565b6000600c60009054906101000a900473ffffffffffffffffffffffffffffffffffffffff1673ffffffffffffffffffffffffffffffffffffffff163373ffffffffffffffffffffffffffffffffffffffff1614905090565b6060600a8054600181600116156101000203166002900480601f0160208091040260200160405190810160405280929190818152602001828054600181600116156101000203166002900480156123bb5780601f10612390576101008083540402835291602001916123bb565b820191906000526020600020905b81548152906001019060200180831161239e57829003601f168201915b5050505050905090565b60006013600083815260200190815260200160002060000154905060008111612456576040517f08c379a000000000000000000000000000000000000000000000000000000000815260040180806020018281038252600f8152602001807f426574206e6f742073746172746564000000000000000000000000000000000081525060200191505060405180910390fd5b6001430381106124ce576040517f08c379a00000000000000000000000000000000000000000000000000000000081526004018080602001828103825260168152602001807f526573756c742063616c6c656420746f6f20736f6f6e0000000000000000000081525060200191505060405180910390fd5b3373ffffffffffffffffffffffffffffffffffffffff166013600084815260200190815260200160002060010160009054906101000a900473ffffffffffffffffffffffffffffffffffffffff1673ffffffffffffffffffffffffffffffffffffffff16146125a5576040517f08c379a00000000000000000000000000000000000000000000000000000000081526004018080602001828103825260118152602001807f53656e646572206e6f742062657474657200000000000000000000000000000081525060200191505060405180910390fd5b60006125bb600183612fb290919063ffffffff16565b409050600060136000858152602001908152602001600020600301549050600060136000868152602001908152602001600020600201549050600060648460001c8161260357fe5b06606403905060006126158385612f82565b905060006013600089815260200190815260200160002060010160009054906101000a900473ffffffffffffffffffffffffffffffffffffffff169050601360008981526020019081526020016000206000808201600090556001820160006101000a81549073ffffffffffffffffffffffffffffffffffffffff0219169055600282016000905560038201600090555050848311612733576126d482600f60008b815260200190815260200160002054612c9b90919063ffffffff16565b600f60008a8152602001908152602001600020819055508073ffffffffffffffffffffffffffffffffffffffff166108fc839081150290604051600060405180830381858888f19350505050158015612731573d6000803e3d6000fd5b505b7f8406982e62b8a8c06088d778f99e438413dedded850e622264d3faf77b2cac7688848760405180848152602001838152602001828152602001935050505060405180910390a15050505050505050565b61278c6122cb565b6127fe576040517f08c379a00000000000000000000000000000000000000000000000000000000081526004018080602001828103825260208152602001807f4f776e61626c653a2063616c6c6572206973206e6f7420746865206f776e657281525060200191505060405180910390fd5b6128083382613065565b50565b3373ffffffffffffffffffffffffffffffffffffffff168273ffffffffffffffffffffffffffffffffffffffff1614156128ad576040517f08c379a00000000000000000000000000000000000000000000000000000000081526004018080602001828103825260198152602001807f4552433732313a20617070726f766520746f2063616c6c65720000000000000081525060200191505060405180910390fd5b80600460003373ffffffffffffffffffffffffffffffffffffffff1673ffffffffffffffffffffffffffffffffffffffff16815260200190815260200160002060008473ffffffffffffffffffffffffffffffffffffffff1673ffffffffffffffffffffffffffffffffffffffff16815260200190815260200160002060006101000a81548160ff0219169083151502179055508173ffffffffffffffffffffffffffffffffffffffff163373ffffffffffffffffffffffffffffffffffffffff167f17307eab39ab6107e8899845ad3d59bd9653f200f220920489ca2b5937696c3183604051808215151515815260200191505060405180910390a35050565b6129b98484846114b6565b6129c58484848461309a565b612a1a576040517f08c379a00000000000000000000000000000000000000000000000000000000081526004018080602001828103825260328152602001806142f96032913960400191505060405180910390fd5b50505050565b6060612a3b612a2d612a42565b612a3684613283565b6133b0565b9050919050565b606060118054600181600116156101000203166002900480601f016020809104026020016040519081016040528092919081815260200182805460018160011615610100020316600290048015612ada5780601f10612aaf57610100808354040283529160200191612ada565b820191906000526020600020905b815481529060010190602001808311612abd57829003601f168201915b5050505050905090565b600080600d60009054906101000a900473ffffffffffffffffffffffffffffffffffffffff1690508273ffffffffffffffffffffffffffffffffffffffff168173ffffffffffffffffffffffffffffffffffffffff1663c4552791866040518263ffffffff1660e01b8152600401808273ffffffffffffffffffffffffffffffffffffffff1673ffffffffffffffffffffffffffffffffffffffff16815260200191505060206040518083038186803b158015612ba057600080fd5b505afa158015612bb4573d6000803e3d6000fd5b505050506040513d6020811015612bca57600080fd5b810190808051906020019092919050505073ffffffffffffffffffffffffffffffffffffffff161415612c01576001915050612c0f565b612c0b84846133f4565b9150505b92915050565b612c1d6122cb565b612c8f576040517f08c379a00000000000000000000000000000000000000000000000000000000081526004018080602001828103825260208152602001807f4f776e61626c653a2063616c6c6572206973206e6f7420746865206f776e657281525060200191505060405180910390fd5b612c9881613488565b50565b600082821115612d13576040517f08c379a000000000000000000000000000000000000000000000000000000000815260040180806020018281038252601e8152602001807f536166654d6174683a207375627472616374696f6e206f766572666c6f77000081525060200191505060405180910390fd5b600082840390508091505092915050565b6000806001600084815260200190815260200160002060009054906101000a900473ffffffffffffffffffffffffffffffffffffffff169050600073ffffffffffffffffffffffffffffffffffffffff168173ffffffffffffffffffffffffffffffffffffffff161415915050919050565b6000612da182612d24565b612df6576040517f08c379a000000000000000000000000000000000000000000000000000000000815260040180806020018281038252602c815260200180614375602c913960400191505060405180910390fd5b6000612e0183611d5f565b90508073ffffffffffffffffffffffffffffffffffffffff168473ffffffffffffffffffffffffffffffffffffffff161480612e7057508373ffffffffffffffffffffffffffffffffffffffff16612e5884611235565b73ffffffffffffffffffffffffffffffffffffffff16145b80612e815750612e808185612ae4565b5b91505092915050565b612e958383836135ce565b612e9f8382613829565b612ea982826139c7565b505050565b6000612eb982612f11565b15612f0757600060136000848152602001908152602001600020600201549050600060136000858152602001908152602001600020600301549050612efe8282612f82565b92505050612f0c565b600090505b919050565b6000806013600084815260200190815260200160002060000154905043612f42600183612fb290919063ffffffff16565b1415612f52576001915050612f7d565b600081118015612f7957506000801b612f75600183612fb290919063ffffffff16565b4014155b9150505b919050565b6000612faa82612f9c606086613a8e90919063ffffffff16565b613b1490919063ffffffff16565b905092915050565b600080828401905083811015613030576040517f08c379a000000000000000000000000000000000000000000000000000000000815260040180806020018281038252601b8152602001807f536166654d6174683a206164646974696f6e206f766572666c6f77000000000081525060200191505060405180910390fd5b8091505092915050565b600081600001549050919050565b60006130606001600e54612fb290919063ffffffff16565b905090565b61306f8282613ba3565b61307982826139c7565b61308281613dbb565b5050565b600e60008154809291906001019190505550565b60006130bb8473ffffffffffffffffffffffffffffffffffffffff16613e07565b6130c8576001905061327b565b60008473ffffffffffffffffffffffffffffffffffffffff1663150b7a02338887876040518563ffffffff1660e01b8152600401808573ffffffffffffffffffffffffffffffffffffffff1673ffffffffffffffffffffffffffffffffffffffff1681526020018473ffffffffffffffffffffffffffffffffffffffff1673ffffffffffffffffffffffffffffffffffffffff16815260200183815260200180602001828103825283818151815260200191508051906020019080838360005b838110156131a3578082015181840152602081019050613188565b50505050905090810190601f1680156131d05780820380516001836020036101000a031916815260200191505b5095505050505050602060405180830381600087803b1580156131f257600080fd5b505af1158015613206573d6000803e3d6000fd5b505050506040513d602081101561321c57600080fd5b8101908080519060200190929190505050905063150b7a0260e01b7bffffffffffffffffffffffffffffffffffffffffffffffffffffffff1916817bffffffffffffffffffffffffffffffffffffffffffffffffffffffff1916149150505b949350505050565b606060008214156132cb576040518060400160405280600181526020017f300000000000000000000000000000000000000000000000000000000000000081525090506133ab565b600082905060005b600082146132f5578080600101915050600a82816132ed57fe5b0491506132d3565b6060816040519080825280601f01601f19166020018201604052801561332a5781602001600182028038833980820191505090505b50905060006001830390505b600086146133a357600a868161334857fe5b0660300160f81b8282806001900393508151811061336257fe5b60200101907effffffffffffffffffffffffffffffffffffffffffffffffffffffffffffff1916908160001a905350600a868161339b57fe5b049550613336565b819450505050505b919050565b60606133ec8383604051806020016040528060008152506040518060200160405280600081525060405180602001604052806000815250613e1a565b905092915050565b6000600460008473ffffffffffffffffffffffffffffffffffffffff1673ffffffffffffffffffffffffffffffffffffffff16815260200190815260200160002060008373ffffffffffffffffffffffffffffffffffffffff1673ffffffffffffffffffffffffffffffffffffffff16815260200190815260200160002060009054906101000a900460ff16905092915050565b600073ffffffffffffffffffffffffffffffffffffffff168173ffffffffffffffffffffffffffffffffffffffff16141561350e576040517f08c379a000000000000000000000000000000000000000000000000000000000815260040180806020018281038252602681526020018061432b6026913960400191505060405180910390fd5b8073ffffffffffffffffffffffffffffffffffffffff16600c60009054906101000a900473ffffffffffffffffffffffffffffffffffffffff1673ffffffffffffffffffffffffffffffffffffffff167f8be0079c531659141344cd1fd0a4f28419497f9722a3daafe3b4186f6b6457e060405160405180910390a380600c60006101000a81548173ffffffffffffffffffffffffffffffffffffffff021916908373ffffffffffffffffffffffffffffffffffffffff16021790555050565b8273ffffffffffffffffffffffffffffffffffffffff166135ee82611d5f565b73ffffffffffffffffffffffffffffffffffffffff161461365a576040517f08c379a00000000000000000000000000000000000000000000000000000000081526004018080602001828103825260298152602001806144796029913960400191505060405180910390fd5b600073ffffffffffffffffffffffffffffffffffffffff168273ffffffffffffffffffffffffffffffffffffffff1614156136e0576040517f08c379a00000000000000000000000000000000000000000000000000000000081526004018080602001828103825260248152602001806143516024913960400191505060405180910390fd5b6136e9816140e0565b613730600360008573ffffffffffffffffffffffffffffffffffffffff1673ffffffffffffffffffffffffffffffffffffffff16815260200190815260200160002061419e565b613777600360008473ffffffffffffffffffffffffffffffffffffffff1673ffffffffffffffffffffffffffffffffffffffff1681526020019081526020016000206141c1565b816001600083815260200190815260200160002060006101000a81548173ffffffffffffffffffffffffffffffffffffffff021916908373ffffffffffffffffffffffffffffffffffffffff160217905550808273ffffffffffffffffffffffffffffffffffffffff168473ffffffffffffffffffffffffffffffffffffffff167fddf252ad1be2c89b69c2b068fc378daa952ba7f163c4a11628f55a4df523b3ef60405160405180910390a4505050565b60006138816001600560008673ffffffffffffffffffffffffffffffffffffffff1673ffffffffffffffffffffffffffffffffffffffff16815260200190815260200160002080549050612c9b90919063ffffffff16565b905060006006600084815260200190815260200160002054905081811461396e576000600560008673ffffffffffffffffffffffffffffffffffffffff1673ffffffffffffffffffffffffffffffffffffffff16815260200190815260200160002083815481106138ee57fe5b9060005260206000200154905080600560008773ffffffffffffffffffffffffffffffffffffffff1673ffffffffffffffffffffffffffffffffffffffff168152602001908152602001600020838154811061394657fe5b9060005260206000200181905550816006600083815260200190815260200160002081905550505b600560008573ffffffffffffffffffffffffffffffffffffffff1673ffffffffffffffffffffffffffffffffffffffff1681526020019081526020016000208054809190600190036139c09190614257565b5050505050565b600560008373ffffffffffffffffffffffffffffffffffffffff1673ffffffffffffffffffffffffffffffffffffffff168152602001908152602001600020805490506006600083815260200190815260200160002081905550600560008373ffffffffffffffffffffffffffffffffffffffff1673ffffffffffffffffffffffffffffffffffffffff1681526020019081526020016000208190806001815401808255809150509060018203906000526020600020016000909192909190915055505050565b600080831415613aa15760009050613b0e565b6000828402905082848281613ab257fe5b0414613b09576040517f08c379a000000000000000000000000000000000000000000000000000000000815260040180806020018281038252602181526020018061442c6021913960400191505060405180910390fd5b809150505b92915050565b6000808211613b8b576040517f08c379a000000000000000000000000000000000000000000000000000000000815260040180806020018281038252601a8152602001807f536166654d6174683a206469766973696f6e206279207a65726f00000000000081525060200191505060405180910390fd5b6000828481613b9657fe5b0490508091505092915050565b600073ffffffffffffffffffffffffffffffffffffffff168273ffffffffffffffffffffffffffffffffffffffff161415613c46576040517f08c379a00000000000000000000000000000000000000000000000000000000081526004018080602001828103825260208152602001807f4552433732313a206d696e7420746f20746865207a65726f206164647265737381525060200191505060405180910390fd5b613c4f81612d24565b15613cc2576040517f08c379a000000000000000000000000000000000000000000000000000000000815260040180806020018281038252601c8152602001807f4552433732313a20746f6b656e20616c7265616479206d696e7465640000000081525060200191505060405180910390fd5b816001600083815260200190815260200160002060006101000a81548173ffffffffffffffffffffffffffffffffffffffff021916908373ffffffffffffffffffffffffffffffffffffffff160217905550613d5b600360008473ffffffffffffffffffffffffffffffffffffffff1673ffffffffffffffffffffffffffffffffffffffff1681526020019081526020016000206141c1565b808273ffffffffffffffffffffffffffffffffffffffff16600073ffffffffffffffffffffffffffffffffffffffff167fddf252ad1be2c89b69c2b068fc378daa952ba7f163c4a11628f55a4df523b3ef60405160405180910390a45050565b6007805490506008600083815260200190815260200160002081905550600781908060018154018082558091505090600182039060005260206000200160009091929091909150555050565b600080823b905060008111915050919050565b6060808690506060869050606086905060608690506060869050606081518351855187518951010101016040519080825280601f01601f191660200182016040528015613e765781602001600182028038833980820191505090505b5090506060819050600080905060008090505b8851811015613ef757888181518110613e9e57fe5b602001015160f81c60f81b838380600101945081518110613ebb57fe5b60200101907effffffffffffffffffffffffffffffffffffffffffffffffffffffffffffff1916908160001a9053508080600101915050613e89565b5060008090505b8751811015613f6c57878181518110613f1357fe5b602001015160f81c60f81b838380600101945081518110613f3057fe5b60200101907effffffffffffffffffffffffffffffffffffffffffffffffffffffffffffff1916908160001a9053508080600101915050613efe565b5060008090505b8651811015613fe157868181518110613f8857fe5b602001015160f81c60f81b838380600101945081518110613fa557fe5b60200101907effffffffffffffffffffffffffffffffffffffffffffffffffffffffffffff1916908160001a9053508080600101915050613f73565b5060008090505b855181101561405657858181518110613ffd57fe5b602001015160f81c60f81b83838060010194508151811061401a57fe5b60200101907effffffffffffffffffffffffffffffffffffffffffffffffffffffffffffff1916908160001a9053508080600101915050613fe8565b5060008090505b84518110156140cb5784818151811061407257fe5b602001015160f81c60f81b83838060010194508151811061408f57fe5b60200101907effffffffffffffffffffffffffffffffffffffffffffffffffffffffffffff1916908160001a905350808060010191505061405d565b50819850505050505050505095945050505050565b600073ffffffffffffffffffffffffffffffffffffffff166002600083815260200190815260200160002060009054906101000a900473ffffffffffffffffffffffffffffffffffffffff1673ffffffffffffffffffffffffffffffffffffffff161461419b5760006002600083815260200190815260200160002060006101000a81548173ffffffffffffffffffffffffffffffffffffffff021916908373ffffffffffffffffffffffffffffffffffffffff1602179055505b50565b6141b660018260000154612c9b90919063ffffffff16565b816000018190555050565b6001816000016000828254019250508190555050565b828054600181600116156101000203166002900490600052602060002090601f016020900481019282601f1061421857805160ff1916838001178555614246565b82800160010185558215614246579182015b8281111561424557825182559160200191906001019061422a565b5b5090506142539190614283565b5090565b81548183558181111561427e5781836000526020600020918201910161427d9190614283565b5b505050565b6142a591905b808211156142a1576000816000905550600101614289565b5090565b9056fe53656e646572206973206e6f7420746865206f776e6572206f662074686520636173696e6f455243373231456e756d657261626c653a206f776e657220696e646578206f7574206f6620626f756e64734552433732313a207472616e7366657220746f206e6f6e20455243373231526563656976657220696d706c656d656e7465724f776e61626c653a206e6577206f776e657220697320746865207a65726f20616464726573734552433732313a207472616e7366657220746f20746865207a65726f20616464726573734552433732313a206f70657261746f7220717565727920666f72206e6f6e6578697374656e7420746f6b656e4552433732313a20617070726f76652063616c6c6572206973206e6f74206f776e6572206e6f7220617070726f76656420666f7220616c6c4552433732313a2062616c616e636520717565727920666f7220746865207a65726f20616464726573734552433732313a206f776e657220717565727920666f72206e6f6e6578697374656e7420746f6b656e536166654d6174683a206d756c7469706c69636174696f6e206f766572666c6f774552433732313a20617070726f76656420717565727920666f72206e6f6e6578697374656e7420746f6b656e4552433732313a207472616e73666572206f6620746f6b656e2074686174206973206e6f74206f776e4552433732313a20617070726f76616c20746f2063757272656e74206f776e65724552433732313a207472616e736665722063616c6c6572206973206e6f74206f776e6572206e6f7220617070726f766564455243373231456e756d657261626c653a20676c6f62616c20696e646578206f7574206f6620626f756e6473a165627a7a723058204999c42516d73608a1f11321039adc14c4efb61a647cf5c1e15610c02c2692bc002968747470733a2f2f70656f706c6573636173696e6f2e6f6e6c696e652f6170692f",
  "source": "pragma solidity ^0.5.0;\n\nimport \"./TradeableERC721Token.sol\";\nimport \"openzeppelin-solidity/contracts/ownership/Ownable.sol\";\nimport \"openzeppelin-solidity/contracts/math/SafeMath.sol\";\n\n/**\n * @title PeoplesCasino\n * PeoplesCasino - a contract for non-fungible functional casino games.\n */\ncontract PeoplesCasino is TradeableERC721Token {\n\n  using SafeMath for uint;\n  mapping(uint => uint) houseReserves;\n  uint MAX_PAYOUT = 3 ether;\n  event BetResult(uint tokenId, uint random, uint oddsPercentage);\n  string _baseTokenURI = \"https://peoplescasino.online/api/\";\n  mapping(uint => string) extraData;\n  struct Bet {\n    uint blockNumber;\n    address sender;\n    uint betAmount;\n    uint oddsPercentage;\n  }\n  mapping(uint => Bet) ongoingBets;\n\n  constructor() \n  TradeableERC721Token(\"PeoplesCasino\", \"PCT\", 0xa5409ec958C83C3f309868babACA7c86DCB077c1) \n  public {}\n\n  function baseTokenURI() public view returns (string memory) {\n    return _baseTokenURI;\n  }\n\n  function mint(uint tokenId) public payable onlyOwner {\n    _mint(msg.sender, tokenId);\n  }\n\n  function mintMultiple(uint tokenIdStart, uint tokenIdEnd) public payable onlyOwner {\n    for (uint id = tokenIdStart; id <= tokenIdEnd; id++) {\n      _mint(msg.sender, id);\n    }\n  }\n\n  function setBaseTokenURI(string memory tokenURI) public payable onlyOwner {\n    _baseTokenURI = tokenURI;\n  } \n\n  function setMaxPayout(uint maxPayout) public payable onlyOwner {\n    MAX_PAYOUT = maxPayout;\n  }\n\n  function getPayout(uint betAmount, uint oddsPercentage) internal pure returns (uint) {\n    return betAmount.mul(96).div(oddsPercentage); // 4% house edge\n  }\n\n  function getIsBetActive(uint tokenId) internal view returns (bool) {\n    uint blockNumber = ongoingBets[tokenId].blockNumber;\n    if (blockNumber.add(1) == block.number) {\n      return true;\n    }\n    return blockNumber > 0 && blockhash(blockNumber.add(1)) != bytes32(0);\n  }\n\n  function getPayoutFromBet(uint tokenId) internal view returns (uint) {\n    if (getIsBetActive(tokenId)) {\n      uint betAmount = ongoingBets[tokenId].betAmount;\n      uint oddsPercentage = ongoingBets[tokenId].oddsPercentage;\n      return getPayout(betAmount, oddsPercentage);\n    }\n    return 0;\n  }\n\n  function getHouseReserve(uint tokenId) public view returns (uint) {\n    uint currentBetPayout = getPayoutFromBet(tokenId);\n    return houseReserves[tokenId].sub(currentBetPayout);\n  } \n\n  function depositHouseReserve(uint tokenId) public payable {\n    require(ownerOf(tokenId) != address(0), \"Casino does not exist\");\n    houseReserves[tokenId] = houseReserves[tokenId].add(msg.value);\n  } \n\n  function withdrawalHouseReserve(uint tokenId, uint amount) public payable {\n    require(msg.sender == ownerOf(tokenId), \"Sender is not the owner of the casino\");\n    uint houseReserve = getHouseReserve(tokenId);\n    require(houseReserve >= amount);\n    houseReserves[tokenId] = houseReserves[tokenId].sub(amount);\n    msg.sender.transfer(amount);\n  }\n\n  function getOngoingBetSender(uint tokenId) public view returns (address) {\n    return ongoingBets[tokenId].sender;\n  }\n\n  function commitBet(uint tokenId, uint oddsPercentage) public payable {\n    require(ownerOf(tokenId) != address(0), \"Casino does not exist\");\n    require(!getIsBetActive(tokenId), \"Casino in play\");\n    require(oddsPercentage > 1, \"Bet is too low\");\n    require(oddsPercentage < 99, \"Bet is too high\");\n    uint payout = getPayout(msg.value, oddsPercentage);\n    require(payout < houseReserves[tokenId].add(msg.value), \"Casino too poor\");\n    require(payout < MAX_PAYOUT, \"Payout above max\");\n    houseReserves[tokenId] = houseReserves[tokenId].add(msg.value);\n    ongoingBets[tokenId].blockNumber = block.number;\n    ongoingBets[tokenId].sender = msg.sender;\n    ongoingBets[tokenId].betAmount = msg.value;\n    ongoingBets[tokenId].oddsPercentage = oddsPercentage;\n  }\n\n  function getResult(uint tokenId) public payable {\n    uint blockNumber = ongoingBets[tokenId].blockNumber;\n    require(blockNumber > 0, \"Bet not started\");\n    require(blockNumber < block.number - 1, \"Result called too soon\");\n    require(ongoingBets[tokenId].sender == msg.sender, \"Sender not better\");\n    bytes32 nextBlockhash = blockhash(blockNumber.add(1));\n    uint oddsPercentage = ongoingBets[tokenId].oddsPercentage;\n    uint betAmount = ongoingBets[tokenId].betAmount;\n    uint randomPercent = 100 - uint256(nextBlockhash) % 100;\n    uint payout = getPayout(betAmount, oddsPercentage);\n    address payable sender = address(uint160(ongoingBets[tokenId].sender));\n    delete ongoingBets[tokenId];\n    if (randomPercent <= oddsPercentage) {\n      houseReserves[tokenId] = houseReserves[tokenId].sub(payout);\n      sender.transfer(payout);\n    }\n    emit BetResult(tokenId, randomPercent, oddsPercentage);\n  }\n\n  function setExtraData(uint tokenId, string memory data) public payable {\n    require(msg.sender == ownerOf(tokenId), \"Sender is not the owner of the casino\");\n    extraData[tokenId] = data;\n  } \n\n  function getExtraData(uint tokenId) public view returns (string memory) {\n    return extraData[tokenId];\n  } \n\n}",
  "sourcePath": "D:/dapps/peoples-casino/contracts/PeoplesCasino.sol",
  "compiler": {
    "name": "solc",
    "version": "0.5.8+commit.23d335f2.Emscripten.clang"
  },
  "schemaVersion": "3.0.11",
  "updatedAt": "2019-09-24T08:50:58.140Z",
  "devdoc": {
    "methods": {
      "approve(address,uint256)": {
        "details": "Approves another address to transfer the given token ID The zero address indicates there is no approved address. There can only be one approved address per token at a given time. Can only be called by the token owner or an approved operator.",
        "params": {
          "to": "address to be approved for the given token ID",
          "tokenId": "uint256 ID of the token to be approved"
        }
      },
      "balanceOf(address)": {
        "details": "Gets the balance of the specified address.",
        "params": {
          "owner": "address to query the balance of"
        },
        "return": "uint256 representing the amount owned by the passed address"
      },
      "getApproved(uint256)": {
        "details": "Gets the approved address for a token ID, or zero if no address set Reverts if the token ID does not exist.",
        "params": {
          "tokenId": "uint256 ID of the token to query the approval of"
        },
        "return": "address currently approved for the given token ID"
      },
      "isOwner()": {
        "details": "Returns true if the caller is the current owner."
      },
      "mintTo(address)": {
        "details": "Mints a token to an address with a tokenURI.\r",
        "params": {
          "_to": "address of the future owner of the token\r"
        }
      },
      "name()": {
        "details": "Gets the token name.",
        "return": "string representing the token name"
      },
      "owner()": {
        "details": "Returns the address of the current owner."
      },
      "ownerOf(uint256)": {
        "details": "Gets the owner of the specified token ID.",
        "params": {
          "tokenId": "uint256 ID of the token to query the owner of"
        },
        "return": "address currently marked as the owner of the given token ID"
      },
      "renounceOwnership()": {
        "details": "Leaves the contract without owner. It will not be possible to call `onlyOwner` functions anymore. Can only be called by the current owner.     * > Note: Renouncing ownership will leave the contract without an owner, thereby removing any functionality that is only available to the owner."
      },
      "safeTransferFrom(address,address,uint256)": {
        "details": "Safely transfers the ownership of a given token ID to another address If the target address is a contract, it must implement `onERC721Received`, which is called upon a safe transfer, and return the magic value `bytes4(keccak256(\"onERC721Received(address,address,uint256,bytes)\"))`; otherwise, the transfer is reverted. Requires the msg.sender to be the owner, approved, or operator",
        "params": {
          "from": "current owner of the token",
          "to": "address to receive the ownership of the given token ID",
          "tokenId": "uint256 ID of the token to be transferred"
        }
      },
      "safeTransferFrom(address,address,uint256,bytes)": {
        "details": "Safely transfers the ownership of a given token ID to another address If the target address is a contract, it must implement `onERC721Received`, which is called upon a safe transfer, and return the magic value `bytes4(keccak256(\"onERC721Received(address,address,uint256,bytes)\"))`; otherwise, the transfer is reverted. Requires the msg.sender to be the owner, approved, or operator",
        "params": {
          "_data": "bytes data to send along with a safe transfer check",
          "from": "current owner of the token",
          "to": "address to receive the ownership of the given token ID",
          "tokenId": "uint256 ID of the token to be transferred"
        }
      },
      "setApprovalForAll(address,bool)": {
        "details": "Sets or unsets the approval of a given operator An operator is allowed to transfer all tokens of the sender on their behalf.",
        "params": {
          "approved": "representing the status of the approval to be set",
          "to": "operator address to set the approval"
        }
      },
      "supportsInterface(bytes4)": {
        "details": "See `IERC165.supportsInterface`.     * Time complexity O(1), guaranteed to always use less than 30 000 gas."
      },
      "symbol()": {
        "details": "Gets the token symbol.",
        "return": "string representing the token symbol"
      },
      "tokenByIndex(uint256)": {
        "details": "Gets the token ID at a given index of all the tokens in this contract Reverts if the index is greater or equal to the total number of tokens.",
        "params": {
          "index": "uint256 representing the index to be accessed of the tokens list"
        },
        "return": "uint256 token ID at the given index of the tokens list"
      },
      "tokenOfOwnerByIndex(address,uint256)": {
        "details": "Gets the token ID at a given index of the tokens list of the requested owner.",
        "params": {
          "index": "uint256 representing the index to be accessed of the requested tokens list",
          "owner": "address owning the tokens list to be accessed"
        },
        "return": "uint256 token ID at the given index of the tokens list owned by the requested address"
      },
      "totalSupply()": {
        "details": "Gets the total amount of tokens stored by the contract.",
        "return": "uint256 representing the total amount of tokens"
      },
      "transferFrom(address,address,uint256)": {
        "details": "Transfers the ownership of a given token ID to another address. Usage of this method is discouraged, use `safeTransferFrom` whenever possible. Requires the msg.sender to be the owner, approved, or operator.",
        "params": {
          "from": "current owner of the token",
          "to": "address to receive the ownership of the given token ID",
          "tokenId": "uint256 ID of the token to be transferred"
        }
      },
      "transferOwnership(address)": {
        "details": "Transfers ownership of the contract to a new account (`newOwner`). Can only be called by the current owner."
      }
    },
    "title": "PeoplesCasino PeoplesCasino - a contract for non-fungible functional casino games."
  },
  "userdoc": {
    "methods": {
      "isApprovedForAll(address,address)": {
        "notice": "Override isApprovedForAll to whitelist user's OpenSea proxy accounts to enable gas-less listings.\r"
      }
    }
  }
}