{
  "contractName": "PeoplesCasino",
  "abi": [
    {
      "constant": true,
      "inputs": [
        {
          "name": "interfaceId",
          "type": "bytes4"
        }
      ],
      "name": "supportsInterface",
      "outputs": [
        {
          "name": "",
          "type": "bool"
        }
      ],
      "payable": false,
      "stateMutability": "view",
      "type": "function"
    },
    {
      "constant": true,
      "inputs": [],
      "name": "name",
      "outputs": [
        {
          "name": "",
          "type": "string"
        }
      ],
      "payable": false,
      "stateMutability": "view",
      "type": "function"
    },
    {
      "constant": true,
      "inputs": [
        {
          "name": "tokenId",
          "type": "uint256"
        }
      ],
      "name": "getApproved",
      "outputs": [
        {
          "name": "",
          "type": "address"
        }
      ],
      "payable": false,
      "stateMutability": "view",
      "type": "function"
    },
    {
      "constant": false,
      "inputs": [
        {
          "name": "to",
          "type": "address"
        },
        {
          "name": "tokenId",
          "type": "uint256"
        }
      ],
      "name": "approve",
      "outputs": [],
      "payable": false,
      "stateMutability": "nonpayable",
      "type": "function"
    },
    {
      "constant": true,
      "inputs": [],
      "name": "totalSupply",
      "outputs": [
        {
          "name": "",
          "type": "uint256"
        }
      ],
      "payable": false,
      "stateMutability": "view",
      "type": "function"
    },
    {
      "constant": false,
      "inputs": [
        {
          "name": "from",
          "type": "address"
        },
        {
          "name": "to",
          "type": "address"
        },
        {
          "name": "tokenId",
          "type": "uint256"
        }
      ],
      "name": "transferFrom",
      "outputs": [],
      "payable": false,
      "stateMutability": "nonpayable",
      "type": "function"
    },
    {
      "constant": true,
      "inputs": [
        {
          "name": "owner",
          "type": "address"
        },
        {
          "name": "index",
          "type": "uint256"
        }
      ],
      "name": "tokenOfOwnerByIndex",
      "outputs": [
        {
          "name": "",
          "type": "uint256"
        }
      ],
      "payable": false,
      "stateMutability": "view",
      "type": "function"
    },
    {
      "constant": false,
      "inputs": [
        {
          "name": "from",
          "type": "address"
        },
        {
          "name": "to",
          "type": "address"
        },
        {
          "name": "tokenId",
          "type": "uint256"
        }
      ],
      "name": "safeTransferFrom",
      "outputs": [],
      "payable": false,
      "stateMutability": "nonpayable",
      "type": "function"
    },
    {
      "constant": true,
      "inputs": [
        {
          "name": "index",
          "type": "uint256"
        }
      ],
      "name": "tokenByIndex",
      "outputs": [
        {
          "name": "",
          "type": "uint256"
        }
      ],
      "payable": false,
      "stateMutability": "view",
      "type": "function"
    },
    {
      "constant": true,
      "inputs": [
        {
          "name": "tokenId",
          "type": "uint256"
        }
      ],
      "name": "ownerOf",
      "outputs": [
        {
          "name": "",
          "type": "address"
        }
      ],
      "payable": false,
      "stateMutability": "view",
      "type": "function"
    },
    {
      "constant": true,
      "inputs": [
        {
          "name": "owner",
          "type": "address"
        }
      ],
      "name": "balanceOf",
      "outputs": [
        {
          "name": "",
          "type": "uint256"
        }
      ],
      "payable": false,
      "stateMutability": "view",
      "type": "function"
    },
    {
      "constant": false,
      "inputs": [],
      "name": "renounceOwnership",
      "outputs": [],
      "payable": false,
      "stateMutability": "nonpayable",
      "type": "function"
    },
    {
      "constant": false,
      "inputs": [
        {
          "name": "_to",
          "type": "address"
        }
      ],
      "name": "mintTo",
      "outputs": [],
      "payable": false,
      "stateMutability": "nonpayable",
      "type": "function"
    },
    {
      "constant": true,
      "inputs": [],
      "name": "owner",
      "outputs": [
        {
          "name": "",
          "type": "address"
        }
      ],
      "payable": false,
      "stateMutability": "view",
      "type": "function"
    },
    {
      "constant": true,
      "inputs": [],
      "name": "isOwner",
      "outputs": [
        {
          "name": "",
          "type": "bool"
        }
      ],
      "payable": false,
      "stateMutability": "view",
      "type": "function"
    },
    {
      "constant": true,
      "inputs": [],
      "name": "symbol",
      "outputs": [
        {
          "name": "",
          "type": "string"
        }
      ],
      "payable": false,
      "stateMutability": "view",
      "type": "function"
    },
    {
      "constant": false,
      "inputs": [
        {
          "name": "to",
          "type": "address"
        },
        {
          "name": "approved",
          "type": "bool"
        }
      ],
      "name": "setApprovalForAll",
      "outputs": [],
      "payable": false,
      "stateMutability": "nonpayable",
      "type": "function"
    },
    {
      "constant": false,
      "inputs": [
        {
          "name": "from",
          "type": "address"
        },
        {
          "name": "to",
          "type": "address"
        },
        {
          "name": "tokenId",
          "type": "uint256"
        },
        {
          "name": "_data",
          "type": "bytes"
        }
      ],
      "name": "safeTransferFrom",
      "outputs": [],
      "payable": false,
      "stateMutability": "nonpayable",
      "type": "function"
    },
    {
      "constant": true,
      "inputs": [
        {
          "name": "_tokenId",
          "type": "uint256"
        }
      ],
      "name": "tokenURI",
      "outputs": [
        {
          "name": "",
          "type": "string"
        }
      ],
      "payable": false,
      "stateMutability": "view",
      "type": "function"
    },
    {
      "constant": true,
      "inputs": [
        {
          "name": "owner",
          "type": "address"
        },
        {
          "name": "operator",
          "type": "address"
        }
      ],
      "name": "isApprovedForAll",
      "outputs": [
        {
          "name": "",
          "type": "bool"
        }
      ],
      "payable": false,
      "stateMutability": "view",
      "type": "function"
    },
    {
      "constant": false,
      "inputs": [
        {
          "name": "newOwner",
          "type": "address"
        }
      ],
      "name": "transferOwnership",
      "outputs": [],
      "payable": false,
      "stateMutability": "nonpayable",
      "type": "function"
    },
    {
      "inputs": [],
      "payable": false,
      "stateMutability": "nonpayable",
      "type": "constructor"
    },
    {
      "anonymous": false,
      "inputs": [
        {
          "indexed": false,
          "name": "tokenId",
          "type": "uint256"
        },
        {
          "indexed": false,
          "name": "roll",
          "type": "uint256"
        },
        {
          "indexed": false,
          "name": "rollUnder",
          "type": "uint256"
        }
      ],
      "name": "BetResult",
      "type": "event"
    },
    {
      "anonymous": false,
      "inputs": [
        {
          "indexed": true,
          "name": "previousOwner",
          "type": "address"
        },
        {
          "indexed": true,
          "name": "newOwner",
          "type": "address"
        }
      ],
      "name": "OwnershipTransferred",
      "type": "event"
    },
    {
      "anonymous": false,
      "inputs": [
        {
          "indexed": true,
          "name": "from",
          "type": "address"
        },
        {
          "indexed": true,
          "name": "to",
          "type": "address"
        },
        {
          "indexed": true,
          "name": "tokenId",
          "type": "uint256"
        }
      ],
      "name": "Transfer",
      "type": "event"
    },
    {
      "anonymous": false,
      "inputs": [
        {
          "indexed": true,
          "name": "owner",
          "type": "address"
        },
        {
          "indexed": true,
          "name": "approved",
          "type": "address"
        },
        {
          "indexed": true,
          "name": "tokenId",
          "type": "uint256"
        }
      ],
      "name": "Approval",
      "type": "event"
    },
    {
      "anonymous": false,
      "inputs": [
        {
          "indexed": true,
          "name": "owner",
          "type": "address"
        },
        {
          "indexed": true,
          "name": "operator",
          "type": "address"
        },
        {
          "indexed": false,
          "name": "approved",
          "type": "bool"
        }
      ],
      "name": "ApprovalForAll",
      "type": "event"
    },
    {
      "constant": true,
      "inputs": [],
      "name": "baseTokenURI",
      "outputs": [
        {
          "name": "",
          "type": "string"
        }
      ],
      "payable": false,
      "stateMutability": "view",
      "type": "function"
    },
    {
      "constant": false,
      "inputs": [
        {
          "name": "tokenId",
          "type": "uint256"
        }
      ],
      "name": "mint",
      "outputs": [],
      "payable": true,
      "stateMutability": "payable",
      "type": "function"
    },
    {
      "constant": false,
      "inputs": [
        {
          "name": "tokenIdStart",
          "type": "uint256"
        },
        {
          "name": "tokenIdEnd",
          "type": "uint256"
        }
      ],
      "name": "mintMultiple",
      "outputs": [],
      "payable": true,
      "stateMutability": "payable",
      "type": "function"
    },
    {
      "constant": false,
      "inputs": [
        {
          "name": "tokenURI",
          "type": "string"
        }
      ],
      "name": "setBaseTokenURI",
      "outputs": [],
      "payable": true,
      "stateMutability": "payable",
      "type": "function"
    },
    {
      "constant": false,
      "inputs": [
        {
          "name": "maxPayout",
          "type": "uint256"
        }
      ],
      "name": "setMaxPayout",
      "outputs": [],
      "payable": true,
      "stateMutability": "payable",
      "type": "function"
    },
    {
      "constant": true,
      "inputs": [
        {
          "name": "tokenId",
          "type": "uint256"
        }
      ],
      "name": "getHouseReserve",
      "outputs": [
        {
          "name": "",
          "type": "uint256"
        }
      ],
      "payable": false,
      "stateMutability": "view",
      "type": "function"
    },
    {
      "constant": false,
      "inputs": [
        {
          "name": "tokenId",
          "type": "uint256"
        }
      ],
      "name": "depositHouseReserve",
      "outputs": [],
      "payable": true,
      "stateMutability": "payable",
      "type": "function"
    },
    {
      "constant": false,
      "inputs": [
        {
          "name": "tokenId",
          "type": "uint256"
        },
        {
          "name": "amount",
          "type": "uint256"
        }
      ],
      "name": "withdrawalHouseReserve",
      "outputs": [],
      "payable": true,
      "stateMutability": "payable",
      "type": "function"
    },
    {
      "constant": false,
      "inputs": [
        {
          "name": "tokenId",
          "type": "uint256"
        },
        {
          "name": "oddsPercentage",
          "type": "uint256"
        }
      ],
      "name": "makeBet",
      "outputs": [],
      "payable": true,
      "stateMutability": "payable",
      "type": "function"
    },
    {
      "constant": false,
      "inputs": [
        {
          "name": "tokenId",
          "type": "uint256"
        },
        {
          "name": "data",
          "type": "string"
        }
      ],
      "name": "setExtraData",
      "outputs": [],
      "payable": true,
      "stateMutability": "payable",
      "type": "function"
    },
    {
      "constant": true,
      "inputs": [
        {
          "name": "tokenId",
          "type": "uint256"
        }
      ],
      "name": "getExtraData",
      "outputs": [
        {
          "name": "",
          "type": "string"
        }
      ],
      "payable": false,
      "stateMutability": "view",
      "type": "function"
    }
  ],
  "bytecode": "0x60806040526000600e556729a2241af62c00006010556040518060600160405280602181526020016200448160219139601190805190602001906200004692919062000381565b503480156200005457600080fd5b506040518060400160405280600d81526020017f50656f706c6573436173696e6f000000000000000000000000000000000000008152506040518060400160405280600381526020017f504354000000000000000000000000000000000000000000000000000000000081525073a5409ec958c83c3f309868babaca7c86dcb077c182828181620000f26301ffc9a760e01b6200027860201b60201c565b6200010a6380ac58cd60e01b6200027860201b60201c565b6200012263780e9d6360e01b6200027860201b60201c565b81600990805190602001906200013a92919062000381565b5080600a90805190602001906200015392919062000381565b506200016c635b5e139f60e01b6200027860201b60201c565b5050505033600c60006101000a81548173ffffffffffffffffffffffffffffffffffffffff021916908373ffffffffffffffffffffffffffffffffffffffff160217905550600c60009054906101000a900473ffffffffffffffffffffffffffffffffffffffff1673ffffffffffffffffffffffffffffffffffffffff16600073ffffffffffffffffffffffffffffffffffffffff167f8be0079c531659141344cd1fd0a4f28419497f9722a3daafe3b4186f6b6457e060405160405180910390a380600d60006101000a81548173ffffffffffffffffffffffffffffffffffffffff021916908373ffffffffffffffffffffffffffffffffffffffff16021790555050505062000430565b63ffffffff60e01b817bffffffffffffffffffffffffffffffffffffffffffffffffffffffff1916141562000315576040517f08c379a000000000000000000000000000000000000000000000000000000000815260040180806020018281038252601c8152602001807f4552433136353a20696e76616c696420696e746572666163652069640000000081525060200191505060405180910390fd5b6001600080837bffffffffffffffffffffffffffffffffffffffffffffffffffffffff19167bffffffffffffffffffffffffffffffffffffffffffffffffffffffff1916815260200190815260200160002060006101000a81548160ff02191690831515021790555050565b828054600181600116156101000203166002900490600052602060002090601f016020900481019282601f10620003c457805160ff1916838001178555620003f5565b82800160010185558215620003f5579182015b82811115620003f4578251825591602001919060010190620003d7565b5b50905062000404919062000408565b5090565b6200042d91905b80821115620004295760008160009055506001016200040f565b5090565b90565b61404180620004406000396000f3fe6080604052600436106101e25760003560e01c806370a0823111610102578063a0712d6811610095578063d547cfb711610064578063d547cfb714610d9c578063df898e3214610e2c578063e985e9c514610e64578063f2fde38b14610eed576101e2565b8063a0712d6814610b4b578063a22cb46514610b79578063b88d4fde14610bd6578063c87b56dd14610ce8576101e2565b80638ad0ee82116100d15780638ad0ee8214610a075780638da5cb5b14610a355780638f32d59b14610a8c57806395d89b4114610abb576101e2565b806370a0823114610902578063715018a614610967578063755edd171461097e578063822df28f146109cf576101e2565b806330176e131161017a57806342842e0e1161014957806342842e0e1461078f5780634f6ccce71461080a57806356b4997f146108595780636352211e14610887576101e2565b806330176e131461050c5780633a0753b1146105c75780633c79ca03146106165780634044474c146106ca576101e2565b8063095ea7b3116101b6578063095ea7b31461039c57806318160ddd146103f757806323b872dd146104225780632f745c591461049d576101e2565b8062c2e49a146101e757806301ffc9a71461021f57806306fdde0314610291578063081812fc14610321575b600080fd5b61021d600480360360408110156101fd57600080fd5b810190808035906020019092919080359060200190929190505050610f3e565b005b34801561022b57600080fd5b506102776004803603602081101561024257600080fd5b8101908080357bffffffffffffffffffffffffffffffffffffffffffffffffffffffff19169060200190929190505050611056565b604051808215151515815260200191505060405180910390f35b34801561029d57600080fd5b506102a66110bd565b6040518080602001828103825283818151815260200191508051906020019080838360005b838110156102e65780820151818401526020810190506102cb565b50505050905090810190601f1680156103135780820380516001836020036101000a031916815260200191505b509250505060405180910390f35b34801561032d57600080fd5b5061035a6004803603602081101561034457600080fd5b810190808035906020019092919050505061115f565b604051808273ffffffffffffffffffffffffffffffffffffffff1673ffffffffffffffffffffffffffffffffffffffff16815260200191505060405180910390f35b3480156103a857600080fd5b506103f5600480360360408110156103bf57600080fd5b81019080803573ffffffffffffffffffffffffffffffffffffffff169060200190929190803590602001909291905050506111fa565b005b34801561040357600080fd5b5061040c6113d3565b6040518082815260200191505060405180910390f35b34801561042e57600080fd5b5061049b6004803603606081101561044557600080fd5b81019080803573ffffffffffffffffffffffffffffffffffffffff169060200190929190803573ffffffffffffffffffffffffffffffffffffffff169060200190929190803590602001909291905050506113e0565b005b3480156104a957600080fd5b506104f6600480360360408110156104c057600080fd5b81019080803573ffffffffffffffffffffffffffffffffffffffff1690602001909291908035906020019092919050505061144f565b6040518082815260200191505060405180910390f35b6105c56004803603602081101561052257600080fd5b810190808035906020019064010000000081111561053f57600080fd5b82018360208201111561055157600080fd5b8035906020019184600183028401116401000000008311171561057357600080fd5b91908080601f016020809104026020016040519081016040528093929190818152602001838380828437600081840152601f19601f82011690508083019250505050505050919291929050505061150e565b005b3480156105d357600080fd5b50610600600480360360208110156105ea57600080fd5b81019080803590602001909291905050506115a2565b6040518082815260200191505060405180910390f35b34801561062257600080fd5b5061064f6004803603602081101561063957600080fd5b8101908080359060200190929190505050611669565b6040518080602001828103825283818151815260200191508051906020019080838360005b8381101561068f578082015181840152602081019050610674565b50505050905090810190601f1680156106bc5780820380516001836020036101000a031916815260200191505b509250505060405180910390f35b61078d600480360360408110156106e057600080fd5b81019080803590602001909291908035906020019064010000000081111561070757600080fd5b82018360208201111561071957600080fd5b8035906020019184600183028401116401000000008311171561073b57600080fd5b91908080601f016020809104026020016040519081016040528093929190818152602001838380828437600081840152601f19601f820116905080830192505050505050509192919290505050611760565b005b34801561079b57600080fd5b50610808600480360360608110156107b257600080fd5b81019080803573ffffffffffffffffffffffffffffffffffffffff169060200190929190803573ffffffffffffffffffffffffffffffffffffffff16906020019092919080359060200190929190505050611818565b005b34801561081657600080fd5b506108436004803603602081101561082d57600080fd5b8101908080359060200190929190505050611838565b6040518082815260200191505060405180910390f35b6108856004803603602081101561086f57600080fd5b81019080803590602001909291905050506118b8565b005b34801561089357600080fd5b506108c0600480360360208110156108aa57600080fd5b810190808035906020019092919050505061193c565b604051808273ffffffffffffffffffffffffffffffffffffffff1673ffffffffffffffffffffffffffffffffffffffff16815260200191505060405180910390f35b34801561090e57600080fd5b506109516004803603602081101561092557600080fd5b81019080803573ffffffffffffffffffffffffffffffffffffffff169060200190929190505050611a04565b6040518082815260200191505060405180910390f35b34801561097357600080fd5b5061097c611ad9565b005b34801561098a57600080fd5b506109cd600480360360208110156109a157600080fd5b81019080803573ffffffffffffffffffffffffffffffffffffffff169060200190929190505050611c14565b005b610a05600480360360408110156109e557600080fd5b810190808035906020019092919080359060200190929190505050611cb0565b005b610a3360048036036020811015610a1d57600080fd5b8101908080359060200190929190505050611d53565b005b348015610a4157600080fd5b50610a4a611e22565b604051808273ffffffffffffffffffffffffffffffffffffffff1673ffffffffffffffffffffffffffffffffffffffff16815260200191505060405180910390f35b348015610a9857600080fd5b50610aa1611e4c565b604051808215151515815260200191505060405180910390f35b348015610ac757600080fd5b50610ad0611ea4565b6040518080602001828103825283818151815260200191508051906020019080838360005b83811015610b10578082015181840152602081019050610af5565b50505050905090810190601f168015610b3d5780820380516001836020036101000a031916815260200191505b509250505060405180910390f35b610b7760048036036020811015610b6157600080fd5b8101908080359060200190929190505050611f46565b005b348015610b8557600080fd5b50610bd460048036036040811015610b9c57600080fd5b81019080803573ffffffffffffffffffffffffffffffffffffffff169060200190929190803515159060200190929190505050611fcd565b005b348015610be257600080fd5b50610ce660048036036080811015610bf957600080fd5b81019080803573ffffffffffffffffffffffffffffffffffffffff169060200190929190803573ffffffffffffffffffffffffffffffffffffffff1690602001909291908035906020019092919080359060200190640100000000811115610c6057600080fd5b820183602082011115610c7257600080fd5b80359060200191846001830284011164010000000083111715610c9457600080fd5b91908080601f016020809104026020016040519081016040528093929190818152602001838380828437600081840152601f19601f820116905080830192505050505050509192919290505050612170565b005b348015610cf457600080fd5b50610d2160048036036020811015610d0b57600080fd5b81019080803590602001909291905050506121e2565b6040518080602001828103825283818151815260200191508051906020019080838360005b83811015610d61578082015181840152602081019050610d46565b50505050905090810190601f168015610d8e5780820380516001836020036101000a031916815260200191505b509250505060405180910390f35b348015610da857600080fd5b50610db1612204565b6040518080602001828103825283818151815260200191508051906020019080838360005b83811015610df1578082015181840152602081019050610dd6565b50505050905090810190601f168015610e1e5780820380516001836020036101000a031916815260200191505b509250505060405180910390f35b610e6260048036036040811015610e4257600080fd5b8101908080359060200190929190803590602001909291905050506122a6565b005b348015610e7057600080fd5b50610ed360048036036040811015610e8757600080fd5b81019080803573ffffffffffffffffffffffffffffffffffffffff169060200190929190803573ffffffffffffffffffffffffffffffffffffffff16906020019092919050505061269a565b604051808215151515815260200191505060405180910390f35b348015610ef957600080fd5b50610f3c60048036036020811015610f1057600080fd5b81019080803573ffffffffffffffffffffffffffffffffffffffff1690602001909291905050506127cb565b005b610f478261193c565b73ffffffffffffffffffffffffffffffffffffffff163373ffffffffffffffffffffffffffffffffffffffff1614610fca576040517f08c379a0000000000000000000000000000000000000000000000000000000008152600401808060200182810382526026815260200180613e456026913960400191505060405180910390fd5b80600f6000848152602001908152602001600020541015610fea57600080fd5b80600f6000848152602001908152602001600020600082825403925050819055503373ffffffffffffffffffffffffffffffffffffffff166108fc829081150290604051600060405180830381858888f19350505050158015611051573d6000803e3d6000fd5b505050565b6000806000837bffffffffffffffffffffffffffffffffffffffffffffffffffffffff19167bffffffffffffffffffffffffffffffffffffffffffffffffffffffff1916815260200190815260200160002060009054906101000a900460ff169050919050565b606060098054600181600116156101000203166002900480601f0160208091040260200160405190810160405280929190818152602001828054600181600116156101000203166002900480156111555780601f1061112a57610100808354040283529160200191611155565b820191906000526020600020905b81548152906001019060200180831161113857829003601f168201915b5050505050905090565b600061116a82612851565b6111bf576040517f08c379a000000000000000000000000000000000000000000000000000000000815260040180806020018281038252602c815260200180613f43602c913960400191505060405180910390fd5b6002600083815260200190815260200160002060009054906101000a900473ffffffffffffffffffffffffffffffffffffffff169050919050565b60006112058261193c565b90508073ffffffffffffffffffffffffffffffffffffffff168373ffffffffffffffffffffffffffffffffffffffff16141561128c576040517f08c379a0000000000000000000000000000000000000000000000000000000008152600401808060200182810382526021815260200180613f986021913960400191505060405180910390fd5b8073ffffffffffffffffffffffffffffffffffffffff163373ffffffffffffffffffffffffffffffffffffffff1614806112cc57506112cb813361269a565b5b611321576040517f08c379a0000000000000000000000000000000000000000000000000000000008152600401808060200182810382526038815260200180613e976038913960400191505060405180910390fd5b826002600084815260200190815260200160002060006101000a81548173ffffffffffffffffffffffffffffffffffffffff021916908373ffffffffffffffffffffffffffffffffffffffff160217905550818373ffffffffffffffffffffffffffffffffffffffff168273ffffffffffffffffffffffffffffffffffffffff167f8c5be1e5ebec7d5bd14f71427d1e84f3dd0314c0f7b2291e5b200ac8c7c3b92560405160405180910390a4505050565b6000600780549050905090565b6113ea33826128c3565b61143f576040517f08c379a0000000000000000000000000000000000000000000000000000000008152600401808060200182810382526031815260200180613fb96031913960400191505060405180910390fd5b61144a8383836129b7565b505050565b600061145a83611a04565b82106114b1576040517f08c379a000000000000000000000000000000000000000000000000000000000815260040180806020018281038252602b815260200180613d9e602b913960400191505060405180910390fd5b600560008473ffffffffffffffffffffffffffffffffffffffff1673ffffffffffffffffffffffffffffffffffffffff16815260200190815260200160002082815481106114fb57fe5b9060005260206000200154905092915050565b611516611e4c565b611588576040517f08c379a00000000000000000000000000000000000000000000000000000000081526004018080602001828103825260208152602001807f4f776e61626c653a2063616c6c6572206973206e6f7420746865206f776e657281525060200191505060405180910390fd5b806011908051906020019061159e929190613ccc565b5050565b60008073ffffffffffffffffffffffffffffffffffffffff166115c48361193c565b73ffffffffffffffffffffffffffffffffffffffff16141561164e576040517f08c379a00000000000000000000000000000000000000000000000000000000081526004018080602001828103825260158152602001807f436173696e6f20646f6573206e6f74206578697374000000000000000000000081525060200191505060405180910390fd5b600f6000838152602001908152602001600020549050919050565b6060600073ffffffffffffffffffffffffffffffffffffffff1661168c8361193c565b73ffffffffffffffffffffffffffffffffffffffff1614156116ad57600080fd5b601260008381526020019081526020016000208054600181600116156101000203166002900480601f0160208091040260200160405190810160405280929190818152602001828054600181600116156101000203166002900480156117545780601f1061172957610100808354040283529160200191611754565b820191906000526020600020905b81548152906001019060200180831161173757829003601f168201915b50505050509050919050565b6117698261193c565b73ffffffffffffffffffffffffffffffffffffffff163373ffffffffffffffffffffffffffffffffffffffff16146117ec576040517f08c379a0000000000000000000000000000000000000000000000000000000008152600401808060200182810382526026815260200180613e456026913960400191505060405180910390fd5b80601260008481526020019081526020016000209080519060200190611813929190613ccc565b505050565b61183383838360405180602001604052806000815250612170565b505050565b60006118426113d3565b8210611899576040517f08c379a000000000000000000000000000000000000000000000000000000000815260040180806020018281038252602c815260200180613fea602c913960400191505060405180910390fd5b600782815481106118a657fe5b90600052602060002001549050919050565b6118c0611e4c565b611932576040517f08c379a00000000000000000000000000000000000000000000000000000000081526004018080602001828103825260208152602001807f4f776e61626c653a2063616c6c6572206973206e6f7420746865206f776e657281525060200191505060405180910390fd5b8060108190555050565b6000806001600084815260200190815260200160002060009054906101000a900473ffffffffffffffffffffffffffffffffffffffff169050600073ffffffffffffffffffffffffffffffffffffffff168173ffffffffffffffffffffffffffffffffffffffff1614156119fb576040517f08c379a0000000000000000000000000000000000000000000000000000000008152600401808060200182810382526029815260200180613ef96029913960400191505060405180910390fd5b80915050919050565b60008073ffffffffffffffffffffffffffffffffffffffff168273ffffffffffffffffffffffffffffffffffffffff161415611a8b576040517f08c379a000000000000000000000000000000000000000000000000000000000815260040180806020018281038252602a815260200180613ecf602a913960400191505060405180910390fd5b611ad2600360008473ffffffffffffffffffffffffffffffffffffffff1673ffffffffffffffffffffffffffffffffffffffff1681526020019081526020016000206129db565b9050919050565b611ae1611e4c565b611b53576040517f08c379a00000000000000000000000000000000000000000000000000000000081526004018080602001828103825260208152602001807f4f776e61626c653a2063616c6c6572206973206e6f7420746865206f776e657281525060200191505060405180910390fd5b600073ffffffffffffffffffffffffffffffffffffffff16600c60009054906101000a900473ffffffffffffffffffffffffffffffffffffffff1673ffffffffffffffffffffffffffffffffffffffff167f8be0079c531659141344cd1fd0a4f28419497f9722a3daafe3b4186f6b6457e060405160405180910390a36000600c60006101000a81548173ffffffffffffffffffffffffffffffffffffffff021916908373ffffffffffffffffffffffffffffffffffffffff160217905550565b611c1c611e4c565b611c8e576040517f08c379a00000000000000000000000000000000000000000000000000000000081526004018080602001828103825260208152602001807f4f776e61626c653a2063616c6c6572206973206e6f7420746865206f776e657281525060200191505060405180910390fd5b6000611c986129e9565b9050611ca48282612a06565b611cac612a27565b5050565b611cb8611e4c565b611d2a576040517f08c379a00000000000000000000000000000000000000000000000000000000081526004018080602001828103825260208152602001807f4f776e61626c653a2063616c6c6572206973206e6f7420746865206f776e657281525060200191505060405180910390fd5b60008290505b818111611d4e57611d413382612a06565b8080600101915050611d30565b505050565b600073ffffffffffffffffffffffffffffffffffffffff16611d748261193c565b73ffffffffffffffffffffffffffffffffffffffff161415611dfe576040517f08c379a00000000000000000000000000000000000000000000000000000000081526004018080602001828103825260158152602001807f436173696e6f20646f6573206e6f74206578697374000000000000000000000081525060200191505060405180910390fd5b34600f60008381526020019081526020016000206000828254019250508190555050565b6000600c60009054906101000a900473ffffffffffffffffffffffffffffffffffffffff16905090565b6000600c60009054906101000a900473ffffffffffffffffffffffffffffffffffffffff1673ffffffffffffffffffffffffffffffffffffffff163373ffffffffffffffffffffffffffffffffffffffff1614905090565b6060600a8054600181600116156101000203166002900480601f016020809104026020016040519081016040528092919081815260200182805460018160011615610100020316600290048015611f3c5780601f10611f1157610100808354040283529160200191611f3c565b820191906000526020600020905b815481529060010190602001808311611f1f57829003601f168201915b5050505050905090565b611f4e611e4c565b611fc0576040517f08c379a00000000000000000000000000000000000000000000000000000000081526004018080602001828103825260208152602001807f4f776e61626c653a2063616c6c6572206973206e6f7420746865206f776e657281525060200191505060405180910390fd5b611fca3382612a06565b50565b3373ffffffffffffffffffffffffffffffffffffffff168273ffffffffffffffffffffffffffffffffffffffff16141561206f576040517f08c379a00000000000000000000000000000000000000000000000000000000081526004018080602001828103825260198152602001807f4552433732313a20617070726f766520746f2063616c6c65720000000000000081525060200191505060405180910390fd5b80600460003373ffffffffffffffffffffffffffffffffffffffff1673ffffffffffffffffffffffffffffffffffffffff16815260200190815260200160002060008473ffffffffffffffffffffffffffffffffffffffff1673ffffffffffffffffffffffffffffffffffffffff16815260200190815260200160002060006101000a81548160ff0219169083151502179055508173ffffffffffffffffffffffffffffffffffffffff163373ffffffffffffffffffffffffffffffffffffffff167f17307eab39ab6107e8899845ad3d59bd9653f200f220920489ca2b5937696c3183604051808215151515815260200191505060405180910390a35050565b61217b8484846113e0565b61218784848484612a3b565b6121dc576040517f08c379a0000000000000000000000000000000000000000000000000000000008152600401808060200182810382526032815260200180613dc96032913960400191505060405180910390fd5b50505050565b60606121fd6121ef612204565b6121f884612c24565b612d51565b9050919050565b606060118054600181600116156101000203166002900480601f01602080910402602001604051908101604052809291908181526020018280546001816001161561010002031660029004801561229c5780601f106122715761010080835404028352916020019161229c565b820191906000526020600020905b81548152906001019060200180831161227f57829003601f168201915b5050505050905090565b600073ffffffffffffffffffffffffffffffffffffffff166122c78361193c565b73ffffffffffffffffffffffffffffffffffffffff161415612351576040517f08c379a00000000000000000000000000000000000000000000000000000000081526004018080602001828103825260158152602001807f436173696e6f20646f6573206e6f74206578697374000000000000000000000081525060200191505060405180910390fd5b600181116123c7576040517f08c379a000000000000000000000000000000000000000000000000000000000815260040180806020018281038252600e8152602001807f42657420697320746f6f206c6f7700000000000000000000000000000000000081525060200191505060405180910390fd5b6063811061243d576040517f08c379a000000000000000000000000000000000000000000000000000000000815260040180806020018281038252600f8152602001807f42657420697320746f6f2068696768000000000000000000000000000000000081525060200191505060405180910390fd5b600061246582612457606034612d9590919063ffffffff16565b612e1b90919063ffffffff16565b905061248d34600f600086815260200190815260200160002054612eaa90919063ffffffff16565b8110612501576040517f08c379a00000000000000000000000000000000000000000000000000000000081526004018080602001828103825260128152602001807f5061796f757420697320746f6f2068696768000000000000000000000000000081525060200191505060405180910390fd5b6010548110612578576040517f08c379a00000000000000000000000000000000000000000000000000000000081526004018080602001828103825260128152602001807f5061796f757420697320746f6f2068696768000000000000000000000000000081525060200191505060405180910390fd5b61259e34600f600086815260200190815260200160002054612eaa90919063ffffffff16565b600f60008581526020019081526020016000208190555060006125bf612f32565b905082811161264d576125ee82600f600087815260200190815260200160002054612f7590919063ffffffff16565b600f6000868152602001908152602001600020819055503373ffffffffffffffffffffffffffffffffffffffff166108fc839081150290604051600060405180830381858888f1935050505015801561264b573d6000803e3d6000fd5b505b7f8406982e62b8a8c06088d778f99e438413dedded850e622264d3faf77b2cac7684828560405180848152602001838152602001828152602001935050505060405180910390a150505050565b600080600d60009054906101000a900473ffffffffffffffffffffffffffffffffffffffff1690508273ffffffffffffffffffffffffffffffffffffffff168173ffffffffffffffffffffffffffffffffffffffff1663c4552791866040518263ffffffff1660e01b8152600401808273ffffffffffffffffffffffffffffffffffffffff1673ffffffffffffffffffffffffffffffffffffffff16815260200191505060206040518083038186803b15801561275657600080fd5b505afa15801561276a573d6000803e3d6000fd5b505050506040513d602081101561278057600080fd5b810190808051906020019092919050505073ffffffffffffffffffffffffffffffffffffffff1614156127b75760019150506127c5565b6127c18484612ffe565b9150505b92915050565b6127d3611e4c565b612845576040517f08c379a00000000000000000000000000000000000000000000000000000000081526004018080602001828103825260208152602001807f4f776e61626c653a2063616c6c6572206973206e6f7420746865206f776e657281525060200191505060405180910390fd5b61284e81613092565b50565b6000806001600084815260200190815260200160002060009054906101000a900473ffffffffffffffffffffffffffffffffffffffff169050600073ffffffffffffffffffffffffffffffffffffffff168173ffffffffffffffffffffffffffffffffffffffff161415915050919050565b60006128ce82612851565b612923576040517f08c379a000000000000000000000000000000000000000000000000000000000815260040180806020018281038252602c815260200180613e6b602c913960400191505060405180910390fd5b600061292e8361193c565b90508073ffffffffffffffffffffffffffffffffffffffff168473ffffffffffffffffffffffffffffffffffffffff16148061299d57508373ffffffffffffffffffffffffffffffffffffffff166129858461115f565b73ffffffffffffffffffffffffffffffffffffffff16145b806129ae57506129ad818561269a565b5b91505092915050565b6129c28383836131d8565b6129cc8382613433565b6129d682826135d1565b505050565b600081600001549050919050565b6000612a016001600e54612eaa90919063ffffffff16565b905090565b612a108282613698565b612a1a82826135d1565b612a23816138b0565b5050565b600e60008154809291906001019190505550565b6000612a5c8473ffffffffffffffffffffffffffffffffffffffff166138fc565b612a695760019050612c1c565b60008473ffffffffffffffffffffffffffffffffffffffff1663150b7a02338887876040518563ffffffff1660e01b8152600401808573ffffffffffffffffffffffffffffffffffffffff1673ffffffffffffffffffffffffffffffffffffffff1681526020018473ffffffffffffffffffffffffffffffffffffffff1673ffffffffffffffffffffffffffffffffffffffff16815260200183815260200180602001828103825283818151815260200191508051906020019080838360005b83811015612b44578082015181840152602081019050612b29565b50505050905090810190601f168015612b715780820380516001836020036101000a031916815260200191505b5095505050505050602060405180830381600087803b158015612b9357600080fd5b505af1158015612ba7573d6000803e3d6000fd5b505050506040513d6020811015612bbd57600080fd5b8101908080519060200190929190505050905063150b7a0260e01b7bffffffffffffffffffffffffffffffffffffffffffffffffffffffff1916817bffffffffffffffffffffffffffffffffffffffffffffffffffffffff1916149150505b949350505050565b60606000821415612c6c576040518060400160405280600181526020017f30000000000000000000000000000000000000000000000000000000000000008152509050612d4c565b600082905060005b60008214612c96578080600101915050600a8281612c8e57fe5b049150612c74565b6060816040519080825280601f01601f191660200182016040528015612ccb5781602001600182028038833980820191505090505b50905060006001830390505b60008614612d4457600a8681612ce957fe5b0660300160f81b82828060019003935081518110612d0357fe5b60200101907effffffffffffffffffffffffffffffffffffffffffffffffffffffffffffff1916908160001a905350600a8681612d3c57fe5b049550612cd7565b819450505050505b919050565b6060612d8d838360405180602001604052806000815250604051806020016040528060008152506040518060200160405280600081525061390f565b905092915050565b600080831415612da85760009050612e15565b6000828402905082848281612db957fe5b0414612e10576040517f08c379a0000000000000000000000000000000000000000000000000000000008152600401808060200182810382526021815260200180613f226021913960400191505060405180910390fd5b809150505b92915050565b6000808211612e92576040517f08c379a000000000000000000000000000000000000000000000000000000000815260040180806020018281038252601a8152602001807f536166654d6174683a206469766973696f6e206279207a65726f00000000000081525060200191505060405180910390fd5b6000828481612e9d57fe5b0490508091505092915050565b600080828401905083811015612f28576040517f08c379a000000000000000000000000000000000000000000000000000000000815260040180806020018281038252601b8152602001807f536166654d6174683a206164646974696f6e206f766572666c6f77000000000081525060200191505060405180910390fd5b8091505092915050565b60006064424460405160200180838152602001828152602001925050506040516020818303038152906040528051906020012060001c81612f6f57fe5b06905090565b600082821115612fed576040517f08c379a000000000000000000000000000000000000000000000000000000000815260040180806020018281038252601e8152602001807f536166654d6174683a207375627472616374696f6e206f766572666c6f77000081525060200191505060405180910390fd5b600082840390508091505092915050565b6000600460008473ffffffffffffffffffffffffffffffffffffffff1673ffffffffffffffffffffffffffffffffffffffff16815260200190815260200160002060008373ffffffffffffffffffffffffffffffffffffffff1673ffffffffffffffffffffffffffffffffffffffff16815260200190815260200160002060009054906101000a900460ff16905092915050565b600073ffffffffffffffffffffffffffffffffffffffff168173ffffffffffffffffffffffffffffffffffffffff161415613118576040517f08c379a0000000000000000000000000000000000000000000000000000000008152600401808060200182810382526026815260200180613dfb6026913960400191505060405180910390fd5b8073ffffffffffffffffffffffffffffffffffffffff16600c60009054906101000a900473ffffffffffffffffffffffffffffffffffffffff1673ffffffffffffffffffffffffffffffffffffffff167f8be0079c531659141344cd1fd0a4f28419497f9722a3daafe3b4186f6b6457e060405160405180910390a380600c60006101000a81548173ffffffffffffffffffffffffffffffffffffffff021916908373ffffffffffffffffffffffffffffffffffffffff16021790555050565b8273ffffffffffffffffffffffffffffffffffffffff166131f88261193c565b73ffffffffffffffffffffffffffffffffffffffff1614613264576040517f08c379a0000000000000000000000000000000000000000000000000000000008152600401808060200182810382526029815260200180613f6f6029913960400191505060405180910390fd5b600073ffffffffffffffffffffffffffffffffffffffff168273ffffffffffffffffffffffffffffffffffffffff1614156132ea576040517f08c379a0000000000000000000000000000000000000000000000000000000008152600401808060200182810382526024815260200180613e216024913960400191505060405180910390fd5b6132f381613bd5565b61333a600360008573ffffffffffffffffffffffffffffffffffffffff1673ffffffffffffffffffffffffffffffffffffffff168152602001908152602001600020613c93565b613381600360008473ffffffffffffffffffffffffffffffffffffffff1673ffffffffffffffffffffffffffffffffffffffff168152602001908152602001600020613cb6565b816001600083815260200190815260200160002060006101000a81548173ffffffffffffffffffffffffffffffffffffffff021916908373ffffffffffffffffffffffffffffffffffffffff160217905550808273ffffffffffffffffffffffffffffffffffffffff168473ffffffffffffffffffffffffffffffffffffffff167fddf252ad1be2c89b69c2b068fc378daa952ba7f163c4a11628f55a4df523b3ef60405160405180910390a4505050565b600061348b6001600560008673ffffffffffffffffffffffffffffffffffffffff1673ffffffffffffffffffffffffffffffffffffffff16815260200190815260200160002080549050612f7590919063ffffffff16565b9050600060066000848152602001908152602001600020549050818114613578576000600560008673ffffffffffffffffffffffffffffffffffffffff1673ffffffffffffffffffffffffffffffffffffffff16815260200190815260200160002083815481106134f857fe5b9060005260206000200154905080600560008773ffffffffffffffffffffffffffffffffffffffff1673ffffffffffffffffffffffffffffffffffffffff168152602001908152602001600020838154811061355057fe5b9060005260206000200181905550816006600083815260200190815260200160002081905550505b600560008573ffffffffffffffffffffffffffffffffffffffff1673ffffffffffffffffffffffffffffffffffffffff1681526020019081526020016000208054809190600190036135ca9190613d4c565b5050505050565b600560008373ffffffffffffffffffffffffffffffffffffffff1673ffffffffffffffffffffffffffffffffffffffff168152602001908152602001600020805490506006600083815260200190815260200160002081905550600560008373ffffffffffffffffffffffffffffffffffffffff1673ffffffffffffffffffffffffffffffffffffffff1681526020019081526020016000208190806001815401808255809150509060018203906000526020600020016000909192909190915055505050565b600073ffffffffffffffffffffffffffffffffffffffff168273ffffffffffffffffffffffffffffffffffffffff16141561373b576040517f08c379a00000000000000000000000000000000000000000000000000000000081526004018080602001828103825260208152602001807f4552433732313a206d696e7420746f20746865207a65726f206164647265737381525060200191505060405180910390fd5b61374481612851565b156137b7576040517f08c379a000000000000000000000000000000000000000000000000000000000815260040180806020018281038252601c8152602001807f4552433732313a20746f6b656e20616c7265616479206d696e7465640000000081525060200191505060405180910390fd5b816001600083815260200190815260200160002060006101000a81548173ffffffffffffffffffffffffffffffffffffffff021916908373ffffffffffffffffffffffffffffffffffffffff160217905550613850600360008473ffffffffffffffffffffffffffffffffffffffff1673ffffffffffffffffffffffffffffffffffffffff168152602001908152602001600020613cb6565b808273ffffffffffffffffffffffffffffffffffffffff16600073ffffffffffffffffffffffffffffffffffffffff167fddf252ad1be2c89b69c2b068fc378daa952ba7f163c4a11628f55a4df523b3ef60405160405180910390a45050565b6007805490506008600083815260200190815260200160002081905550600781908060018154018082558091505090600182039060005260206000200160009091929091909150555050565b600080823b905060008111915050919050565b6060808690506060869050606086905060608690506060869050606081518351855187518951010101016040519080825280601f01601f19166020018201604052801561396b5781602001600182028038833980820191505090505b5090506060819050600080905060008090505b88518110156139ec5788818151811061399357fe5b602001015160f81c60f81b8383806001019450815181106139b057fe5b60200101907effffffffffffffffffffffffffffffffffffffffffffffffffffffffffffff1916908160001a905350808060010191505061397e565b5060008090505b8751811015613a6157878181518110613a0857fe5b602001015160f81c60f81b838380600101945081518110613a2557fe5b60200101907effffffffffffffffffffffffffffffffffffffffffffffffffffffffffffff1916908160001a90535080806001019150506139f3565b5060008090505b8651811015613ad657868181518110613a7d57fe5b602001015160f81c60f81b838380600101945081518110613a9a57fe5b60200101907effffffffffffffffffffffffffffffffffffffffffffffffffffffffffffff1916908160001a9053508080600101915050613a68565b5060008090505b8551811015613b4b57858181518110613af257fe5b602001015160f81c60f81b838380600101945081518110613b0f57fe5b60200101907effffffffffffffffffffffffffffffffffffffffffffffffffffffffffffff1916908160001a9053508080600101915050613add565b5060008090505b8451811015613bc057848181518110613b6757fe5b602001015160f81c60f81b838380600101945081518110613b8457fe5b60200101907effffffffffffffffffffffffffffffffffffffffffffffffffffffffffffff1916908160001a9053508080600101915050613b52565b50819850505050505050505095945050505050565b600073ffffffffffffffffffffffffffffffffffffffff166002600083815260200190815260200160002060009054906101000a900473ffffffffffffffffffffffffffffffffffffffff1673ffffffffffffffffffffffffffffffffffffffff1614613c905760006002600083815260200190815260200160002060006101000a81548173ffffffffffffffffffffffffffffffffffffffff021916908373ffffffffffffffffffffffffffffffffffffffff1602179055505b50565b613cab60018260000154612f7590919063ffffffff16565b816000018190555050565b6001816000016000828254019250508190555050565b828054600181600116156101000203166002900490600052602060002090601f016020900481019282601f10613d0d57805160ff1916838001178555613d3b565b82800160010185558215613d3b579182015b82811115613d3a578251825591602001919060010190613d1f565b5b509050613d489190613d78565b5090565b815481835581811115613d7357818360005260206000209182019101613d729190613d78565b5b505050565b613d9a91905b80821115613d96576000816000905550600101613d7e565b5090565b9056fe455243373231456e756d657261626c653a206f776e657220696e646578206f7574206f6620626f756e64734552433732313a207472616e7366657220746f206e6f6e20455243373231526563656976657220696d706c656d656e7465724f776e61626c653a206e6577206f776e657220697320746865207a65726f20616464726573734552433732313a207472616e7366657220746f20746865207a65726f20616464726573734163636f756e74206973206e6f7420746865206f776e6572206f662074686520636173696e6f4552433732313a206f70657261746f7220717565727920666f72206e6f6e6578697374656e7420746f6b656e4552433732313a20617070726f76652063616c6c6572206973206e6f74206f776e6572206e6f7220617070726f76656420666f7220616c6c4552433732313a2062616c616e636520717565727920666f7220746865207a65726f20616464726573734552433732313a206f776e657220717565727920666f72206e6f6e6578697374656e7420746f6b656e536166654d6174683a206d756c7469706c69636174696f6e206f766572666c6f774552433732313a20617070726f76656420717565727920666f72206e6f6e6578697374656e7420746f6b656e4552433732313a207472616e73666572206f6620746f6b656e2074686174206973206e6f74206f776e4552433732313a20617070726f76616c20746f2063757272656e74206f776e65724552433732313a207472616e736665722063616c6c6572206973206e6f74206f776e6572206e6f7220617070726f766564455243373231456e756d657261626c653a20676c6f62616c20696e646578206f7574206f6620626f756e6473a165627a7a7230582003bea7acd770d1cfb8c76ce5e6c5bd2dc04b80a6906a10e6f4a98d0fe33eba16002968747470733a2f2f70656f706c6573636173696e6f2e6f6e6c696e652f6170692f",
  "source": "pragma solidity ^0.5.0;\r\n\r\nimport \"./TradeableERC721Token.sol\";\r\nimport \"openzeppelin-solidity/contracts/ownership/Ownable.sol\";\r\nimport \"openzeppelin-solidity/contracts/math/SafeMath.sol\";\r\n\r\n/**\r\n * @title PeoplesCasino\r\n * PeoplesCasino - a contract for non-fungible functional casino games.\r\n */\r\ncontract PeoplesCasino is TradeableERC721Token {\r\n\r\n  using SafeMath for uint;\r\n  mapping(uint => uint) houseReserves;\r\n  uint MAX_PAYOUT = 3 ether;\r\n  event BetResult(uint tokenId, uint roll, uint rollUnder);\r\n  string _baseTokenURI = \"https://peoplescasino.online/api/\";\r\n  mapping(uint => string) extraData;\r\n\r\n  constructor() \r\n  TradeableERC721Token(\"PeoplesCasino\", \"PCT\", 0xa5409ec958C83C3f309868babACA7c86DCB077c1) \r\n  public {}\r\n\r\n  function baseTokenURI() public view returns (string memory) {\r\n    return _baseTokenURI;\r\n  }\r\n\r\n  function mint(uint tokenId) public payable onlyOwner {\r\n    _mint(msg.sender, tokenId);\r\n  }\r\n\r\n  function mintMultiple(uint tokenIdStart, uint tokenIdEnd) public payable onlyOwner {\r\n    for (uint id = tokenIdStart; id <= tokenIdEnd; id++) {\r\n      _mint(msg.sender, id);\r\n    }\r\n  }\r\n\r\n  function setBaseTokenURI(string memory tokenURI) public payable onlyOwner {\r\n    _baseTokenURI = tokenURI;\r\n  } \r\n\r\n  function setMaxPayout(uint maxPayout) public payable onlyOwner {\r\n    MAX_PAYOUT = maxPayout;\r\n  }\r\n\r\n  function getHouseReserve(uint tokenId) public view returns (uint) {\r\n    require(ownerOf(tokenId) != address(0), \"Casino does not exist\");\r\n    return houseReserves[tokenId];\r\n  } \r\n\r\n  function depositHouseReserve(uint tokenId) public payable {\r\n    require(ownerOf(tokenId) != address(0), \"Casino does not exist\");\r\n    houseReserves[tokenId] += msg.value;\r\n  } \r\n\r\n  function withdrawalHouseReserve(uint tokenId, uint amount) public payable {\r\n    require(msg.sender == ownerOf(tokenId), \"Account is not the owner of the casino\");\r\n    require(houseReserves[tokenId] >= amount);\r\n    houseReserves[tokenId] -= amount;\r\n    msg.sender.transfer(amount);\r\n  } \r\n\r\n  function getRandomPercent() internal view returns (uint) {\r\n    return uint256(keccak256(abi.encodePacked(block.timestamp, block.difficulty))) % 100;\r\n  }\r\n\r\n  function makeBet(uint tokenId, uint oddsPercentage) public payable {\r\n    require(ownerOf(tokenId) != address(0), \"Casino does not exist\");\r\n    require(oddsPercentage > 1, \"Bet is too low\");\r\n    require(oddsPercentage < 99, \"Bet is too high\");\r\n    // Remove 4% house charges\r\n    uint payout = msg.value.mul(96).div(oddsPercentage);\r\n    require(payout < houseReserves[tokenId].add(msg.value), \"Payout is too high\");\r\n    require(payout < MAX_PAYOUT, \"Payout is too high\");\r\n    // Bet is now underway.\r\n    // Add wager to house.\r\n    houseReserves[tokenId] = houseReserves[tokenId].add(msg.value);\r\n    // Roll the dice\r\n    uint roll = getRandomPercent();\r\n    // Payout winner if needed\r\n    if (roll <= oddsPercentage) {\r\n      // Remove winnings from house.\r\n      houseReserves[tokenId] = houseReserves[tokenId].sub(payout);\r\n      msg.sender.transfer(payout);\r\n    }\r\n    // Make the result available\r\n    emit BetResult(tokenId, roll, oddsPercentage);\r\n  }\r\n\r\n  function setExtraData(uint tokenId, string memory data) public payable {\r\n    require(msg.sender == ownerOf(tokenId), \"Account is not the owner of the casino\");\r\n    extraData[tokenId] = data;\r\n  } \r\n\r\n  function getExtraData(uint tokenId) public view returns (string memory) {\r\n    require(ownerOf(tokenId) != address(0));\r\n    return extraData[tokenId];\r\n  } \r\n\r\n}",
  "sourcePath": "D:/dapps/peoples-casino/contracts/PeoplesCasino.sol",
  "compiler": {
    "name": "solc",
    "version": "0.5.8+commit.23d335f2.Emscripten.clang"
  },
  "schemaVersion": "3.0.11",
  "updatedAt": "2019-09-08T04:10:22.229Z",
  "devdoc": {
    "methods": {
      "approve(address,uint256)": {
        "details": "Approves another address to transfer the given token ID The zero address indicates there is no approved address. There can only be one approved address per token at a given time. Can only be called by the token owner or an approved operator.",
        "params": {
          "to": "address to be approved for the given token ID",
          "tokenId": "uint256 ID of the token to be approved"
        }
      },
      "balanceOf(address)": {
        "details": "Gets the balance of the specified address.",
        "params": {
          "owner": "address to query the balance of"
        },
        "return": "uint256 representing the amount owned by the passed address"
      },
      "getApproved(uint256)": {
        "details": "Gets the approved address for a token ID, or zero if no address set Reverts if the token ID does not exist.",
        "params": {
          "tokenId": "uint256 ID of the token to query the approval of"
        },
        "return": "address currently approved for the given token ID"
      },
      "isOwner()": {
        "details": "Returns true if the caller is the current owner."
      },
      "mintTo(address)": {
        "details": "Mints a token to an address with a tokenURI.\r",
        "params": {
          "_to": "address of the future owner of the token\r"
        }
      },
      "name()": {
        "details": "Gets the token name.",
        "return": "string representing the token name"
      },
      "owner()": {
        "details": "Returns the address of the current owner."
      },
      "ownerOf(uint256)": {
        "details": "Gets the owner of the specified token ID.",
        "params": {
          "tokenId": "uint256 ID of the token to query the owner of"
        },
        "return": "address currently marked as the owner of the given token ID"
      },
      "renounceOwnership()": {
        "details": "Leaves the contract without owner. It will not be possible to call `onlyOwner` functions anymore. Can only be called by the current owner.     * > Note: Renouncing ownership will leave the contract without an owner, thereby removing any functionality that is only available to the owner."
      },
      "safeTransferFrom(address,address,uint256)": {
        "details": "Safely transfers the ownership of a given token ID to another address If the target address is a contract, it must implement `onERC721Received`, which is called upon a safe transfer, and return the magic value `bytes4(keccak256(\"onERC721Received(address,address,uint256,bytes)\"))`; otherwise, the transfer is reverted. Requires the msg.sender to be the owner, approved, or operator",
        "params": {
          "from": "current owner of the token",
          "to": "address to receive the ownership of the given token ID",
          "tokenId": "uint256 ID of the token to be transferred"
        }
      },
      "safeTransferFrom(address,address,uint256,bytes)": {
        "details": "Safely transfers the ownership of a given token ID to another address If the target address is a contract, it must implement `onERC721Received`, which is called upon a safe transfer, and return the magic value `bytes4(keccak256(\"onERC721Received(address,address,uint256,bytes)\"))`; otherwise, the transfer is reverted. Requires the msg.sender to be the owner, approved, or operator",
        "params": {
          "_data": "bytes data to send along with a safe transfer check",
          "from": "current owner of the token",
          "to": "address to receive the ownership of the given token ID",
          "tokenId": "uint256 ID of the token to be transferred"
        }
      },
      "setApprovalForAll(address,bool)": {
        "details": "Sets or unsets the approval of a given operator An operator is allowed to transfer all tokens of the sender on their behalf.",
        "params": {
          "approved": "representing the status of the approval to be set",
          "to": "operator address to set the approval"
        }
      },
      "supportsInterface(bytes4)": {
        "details": "See `IERC165.supportsInterface`.     * Time complexity O(1), guaranteed to always use less than 30 000 gas."
      },
      "symbol()": {
        "details": "Gets the token symbol.",
        "return": "string representing the token symbol"
      },
      "tokenByIndex(uint256)": {
        "details": "Gets the token ID at a given index of all the tokens in this contract Reverts if the index is greater or equal to the total number of tokens.",
        "params": {
          "index": "uint256 representing the index to be accessed of the tokens list"
        },
        "return": "uint256 token ID at the given index of the tokens list"
      },
      "tokenOfOwnerByIndex(address,uint256)": {
        "details": "Gets the token ID at a given index of the tokens list of the requested owner.",
        "params": {
          "index": "uint256 representing the index to be accessed of the requested tokens list",
          "owner": "address owning the tokens list to be accessed"
        },
        "return": "uint256 token ID at the given index of the tokens list owned by the requested address"
      },
      "totalSupply()": {
        "details": "Gets the total amount of tokens stored by the contract.",
        "return": "uint256 representing the total amount of tokens"
      },
      "transferFrom(address,address,uint256)": {
        "details": "Transfers the ownership of a given token ID to another address. Usage of this method is discouraged, use `safeTransferFrom` whenever possible. Requires the msg.sender to be the owner, approved, or operator.",
        "params": {
          "from": "current owner of the token",
          "to": "address to receive the ownership of the given token ID",
          "tokenId": "uint256 ID of the token to be transferred"
        }
      },
      "transferOwnership(address)": {
        "details": "Transfers ownership of the contract to a new account (`newOwner`). Can only be called by the current owner."
      }
    },
    "title": "PeoplesCasino\r PeoplesCasino - a contract for non-fungible functional casino games.\r"
  },
  "userdoc": {
    "methods": {
      "isApprovedForAll(address,address)": {
        "notice": "Override isApprovedForAll to whitelist user's OpenSea proxy accounts to enable gas-less listings.\r"
      }
    }
  }
}