{
  "contractName": "TradeableERC721Token",
  "abi": [
    {
      "constant": true,
      "inputs": [
        {
          "name": "interfaceId",
          "type": "bytes4"
        }
      ],
      "name": "supportsInterface",
      "outputs": [
        {
          "name": "",
          "type": "bool"
        }
      ],
      "payable": false,
      "stateMutability": "view",
      "type": "function"
    },
    {
      "constant": true,
      "inputs": [],
      "name": "name",
      "outputs": [
        {
          "name": "",
          "type": "string"
        }
      ],
      "payable": false,
      "stateMutability": "view",
      "type": "function"
    },
    {
      "constant": true,
      "inputs": [
        {
          "name": "tokenId",
          "type": "uint256"
        }
      ],
      "name": "getApproved",
      "outputs": [
        {
          "name": "",
          "type": "address"
        }
      ],
      "payable": false,
      "stateMutability": "view",
      "type": "function"
    },
    {
      "constant": false,
      "inputs": [
        {
          "name": "to",
          "type": "address"
        },
        {
          "name": "tokenId",
          "type": "uint256"
        }
      ],
      "name": "approve",
      "outputs": [],
      "payable": false,
      "stateMutability": "nonpayable",
      "type": "function"
    },
    {
      "constant": true,
      "inputs": [],
      "name": "totalSupply",
      "outputs": [
        {
          "name": "",
          "type": "uint256"
        }
      ],
      "payable": false,
      "stateMutability": "view",
      "type": "function"
    },
    {
      "constant": false,
      "inputs": [
        {
          "name": "from",
          "type": "address"
        },
        {
          "name": "to",
          "type": "address"
        },
        {
          "name": "tokenId",
          "type": "uint256"
        }
      ],
      "name": "transferFrom",
      "outputs": [],
      "payable": false,
      "stateMutability": "nonpayable",
      "type": "function"
    },
    {
      "constant": true,
      "inputs": [
        {
          "name": "owner",
          "type": "address"
        },
        {
          "name": "index",
          "type": "uint256"
        }
      ],
      "name": "tokenOfOwnerByIndex",
      "outputs": [
        {
          "name": "",
          "type": "uint256"
        }
      ],
      "payable": false,
      "stateMutability": "view",
      "type": "function"
    },
    {
      "constant": false,
      "inputs": [
        {
          "name": "from",
          "type": "address"
        },
        {
          "name": "to",
          "type": "address"
        },
        {
          "name": "tokenId",
          "type": "uint256"
        }
      ],
      "name": "safeTransferFrom",
      "outputs": [],
      "payable": false,
      "stateMutability": "nonpayable",
      "type": "function"
    },
    {
      "constant": true,
      "inputs": [
        {
          "name": "index",
          "type": "uint256"
        }
      ],
      "name": "tokenByIndex",
      "outputs": [
        {
          "name": "",
          "type": "uint256"
        }
      ],
      "payable": false,
      "stateMutability": "view",
      "type": "function"
    },
    {
      "constant": true,
      "inputs": [
        {
          "name": "tokenId",
          "type": "uint256"
        }
      ],
      "name": "ownerOf",
      "outputs": [
        {
          "name": "",
          "type": "address"
        }
      ],
      "payable": false,
      "stateMutability": "view",
      "type": "function"
    },
    {
      "constant": true,
      "inputs": [
        {
          "name": "owner",
          "type": "address"
        }
      ],
      "name": "balanceOf",
      "outputs": [
        {
          "name": "",
          "type": "uint256"
        }
      ],
      "payable": false,
      "stateMutability": "view",
      "type": "function"
    },
    {
      "constant": false,
      "inputs": [],
      "name": "renounceOwnership",
      "outputs": [],
      "payable": false,
      "stateMutability": "nonpayable",
      "type": "function"
    },
    {
      "constant": true,
      "inputs": [],
      "name": "owner",
      "outputs": [
        {
          "name": "",
          "type": "address"
        }
      ],
      "payable": false,
      "stateMutability": "view",
      "type": "function"
    },
    {
      "constant": true,
      "inputs": [],
      "name": "isOwner",
      "outputs": [
        {
          "name": "",
          "type": "bool"
        }
      ],
      "payable": false,
      "stateMutability": "view",
      "type": "function"
    },
    {
      "constant": true,
      "inputs": [],
      "name": "symbol",
      "outputs": [
        {
          "name": "",
          "type": "string"
        }
      ],
      "payable": false,
      "stateMutability": "view",
      "type": "function"
    },
    {
      "constant": false,
      "inputs": [
        {
          "name": "to",
          "type": "address"
        },
        {
          "name": "approved",
          "type": "bool"
        }
      ],
      "name": "setApprovalForAll",
      "outputs": [],
      "payable": false,
      "stateMutability": "nonpayable",
      "type": "function"
    },
    {
      "constant": false,
      "inputs": [
        {
          "name": "from",
          "type": "address"
        },
        {
          "name": "to",
          "type": "address"
        },
        {
          "name": "tokenId",
          "type": "uint256"
        },
        {
          "name": "_data",
          "type": "bytes"
        }
      ],
      "name": "safeTransferFrom",
      "outputs": [],
      "payable": false,
      "stateMutability": "nonpayable",
      "type": "function"
    },
    {
      "constant": false,
      "inputs": [
        {
          "name": "newOwner",
          "type": "address"
        }
      ],
      "name": "transferOwnership",
      "outputs": [],
      "payable": false,
      "stateMutability": "nonpayable",
      "type": "function"
    },
    {
      "inputs": [
        {
          "name": "_name",
          "type": "string"
        },
        {
          "name": "_symbol",
          "type": "string"
        },
        {
          "name": "_proxyRegistryAddress",
          "type": "address"
        }
      ],
      "payable": false,
      "stateMutability": "nonpayable",
      "type": "constructor"
    },
    {
      "anonymous": false,
      "inputs": [
        {
          "indexed": true,
          "name": "previousOwner",
          "type": "address"
        },
        {
          "indexed": true,
          "name": "newOwner",
          "type": "address"
        }
      ],
      "name": "OwnershipTransferred",
      "type": "event"
    },
    {
      "anonymous": false,
      "inputs": [
        {
          "indexed": true,
          "name": "from",
          "type": "address"
        },
        {
          "indexed": true,
          "name": "to",
          "type": "address"
        },
        {
          "indexed": true,
          "name": "tokenId",
          "type": "uint256"
        }
      ],
      "name": "Transfer",
      "type": "event"
    },
    {
      "anonymous": false,
      "inputs": [
        {
          "indexed": true,
          "name": "owner",
          "type": "address"
        },
        {
          "indexed": true,
          "name": "approved",
          "type": "address"
        },
        {
          "indexed": true,
          "name": "tokenId",
          "type": "uint256"
        }
      ],
      "name": "Approval",
      "type": "event"
    },
    {
      "anonymous": false,
      "inputs": [
        {
          "indexed": true,
          "name": "owner",
          "type": "address"
        },
        {
          "indexed": true,
          "name": "operator",
          "type": "address"
        },
        {
          "indexed": false,
          "name": "approved",
          "type": "bool"
        }
      ],
      "name": "ApprovalForAll",
      "type": "event"
    },
    {
      "constant": false,
      "inputs": [
        {
          "name": "_to",
          "type": "address"
        }
      ],
      "name": "mintTo",
      "outputs": [],
      "payable": false,
      "stateMutability": "nonpayable",
      "type": "function"
    },
    {
      "constant": true,
      "inputs": [],
      "name": "baseTokenURI",
      "outputs": [
        {
          "name": "",
          "type": "string"
        }
      ],
      "payable": false,
      "stateMutability": "view",
      "type": "function"
    },
    {
      "constant": true,
      "inputs": [
        {
          "name": "_tokenId",
          "type": "uint256"
        }
      ],
      "name": "tokenURI",
      "outputs": [
        {
          "name": "",
          "type": "string"
        }
      ],
      "payable": false,
      "stateMutability": "view",
      "type": "function"
    },
    {
      "constant": true,
      "inputs": [
        {
          "name": "owner",
          "type": "address"
        },
        {
          "name": "operator",
          "type": "address"
        }
      ],
      "name": "isApprovedForAll",
      "outputs": [
        {
          "name": "",
          "type": "bool"
        }
      ],
      "payable": false,
      "stateMutability": "view",
      "type": "function"
    }
  ],
  "bytecode": "0x60806040526000600e553480156200001657600080fd5b50604051620031ec380380620031ec833981018060405260608110156200003c57600080fd5b8101908080516401000000008111156200005557600080fd5b828101905060208101848111156200006c57600080fd5b81518560018202830111640100000000821117156200008a57600080fd5b50509291906020018051640100000000811115620000a757600080fd5b82810190506020810184811115620000be57600080fd5b8151856001820283011164010000000082111715620000dc57600080fd5b505092919060200180519060200190929190505050828281816200010d6301ffc9a760e01b6200029360201b60201c565b620001256380ac58cd60e01b6200029360201b60201c565b6200013d63780e9d6360e01b6200029360201b60201c565b8160099080519060200190620001559291906200039c565b5080600a90805190602001906200016e9291906200039c565b5062000187635b5e139f60e01b6200029360201b60201c565b5050505033600c60006101000a81548173ffffffffffffffffffffffffffffffffffffffff021916908373ffffffffffffffffffffffffffffffffffffffff160217905550600c60009054906101000a900473ffffffffffffffffffffffffffffffffffffffff1673ffffffffffffffffffffffffffffffffffffffff16600073ffffffffffffffffffffffffffffffffffffffff167f8be0079c531659141344cd1fd0a4f28419497f9722a3daafe3b4186f6b6457e060405160405180910390a380600d60006101000a81548173ffffffffffffffffffffffffffffffffffffffff021916908373ffffffffffffffffffffffffffffffffffffffff1602179055505050506200044b565b63ffffffff60e01b817bffffffffffffffffffffffffffffffffffffffffffffffffffffffff1916141562000330576040517f08c379a000000000000000000000000000000000000000000000000000000000815260040180806020018281038252601c8152602001807f4552433136353a20696e76616c696420696e746572666163652069640000000081525060200191505060405180910390fd5b6001600080837bffffffffffffffffffffffffffffffffffffffffffffffffffffffff19167bffffffffffffffffffffffffffffffffffffffffffffffffffffffff1916815260200190815260200160002060006101000a81548160ff02191690831515021790555050565b828054600181600116156101000203166002900490600052602060002090601f016020900481019282601f10620003df57805160ff191683800117855562000410565b8280016001018555821562000410579182015b828111156200040f578251825591602001919060010190620003f2565b5b5090506200041f919062000423565b5090565b6200044891905b80821115620004445760008160009055506001016200042a565b5090565b90565b612d91806200045b6000396000f3fe608060405234801561001057600080fd5b50600436106101425760003560e01c8063715018a6116100b8578063a22cb4651161007c578063a22cb4651461068c578063b88d4fde146106dc578063c87b56dd146107e1578063d547cfb714610888578063e985e9c51461090b578063f2fde38b1461098757610142565b8063715018a61461054f578063755edd17146105595780638da5cb5b1461059d5780638f32d59b146105e757806395d89b411461060957610142565b806323b872dd1161010a57806323b872dd146103095780632f745c591461037757806342842e0e146103d95780634f6ccce7146104475780636352211e1461048957806370a08231146104f757610142565b806301ffc9a71461014757806306fdde03146101ac578063081812fc1461022f578063095ea7b31461029d57806318160ddd146102eb575b600080fd5b6101926004803603602081101561015d57600080fd5b8101908080357bffffffffffffffffffffffffffffffffffffffffffffffffffffffff191690602001909291905050506109cb565b604051808215151515815260200191505060405180910390f35b6101b4610a32565b6040518080602001828103825283818151815260200191508051906020019080838360005b838110156101f45780820151818401526020810190506101d9565b50505050905090810190601f1680156102215780820380516001836020036101000a031916815260200191505b509250505060405180910390f35b61025b6004803603602081101561024557600080fd5b8101908080359060200190929190505050610ad4565b604051808273ffffffffffffffffffffffffffffffffffffffff1673ffffffffffffffffffffffffffffffffffffffff16815260200191505060405180910390f35b6102e9600480360360408110156102b357600080fd5b81019080803573ffffffffffffffffffffffffffffffffffffffff16906020019092919080359060200190929190505050610b6f565b005b6102f3610d48565b6040518082815260200191505060405180910390f35b6103756004803603606081101561031f57600080fd5b81019080803573ffffffffffffffffffffffffffffffffffffffff169060200190929190803573ffffffffffffffffffffffffffffffffffffffff16906020019092919080359060200190929190505050610d55565b005b6103c36004803603604081101561038d57600080fd5b81019080803573ffffffffffffffffffffffffffffffffffffffff16906020019092919080359060200190929190505050610dc4565b6040518082815260200191505060405180910390f35b610445600480360360608110156103ef57600080fd5b81019080803573ffffffffffffffffffffffffffffffffffffffff169060200190929190803573ffffffffffffffffffffffffffffffffffffffff16906020019092919080359060200190929190505050610e83565b005b6104736004803603602081101561045d57600080fd5b8101908080359060200190929190505050610ea3565b6040518082815260200191505060405180910390f35b6104b56004803603602081101561049f57600080fd5b8101908080359060200190929190505050610f23565b604051808273ffffffffffffffffffffffffffffffffffffffff1673ffffffffffffffffffffffffffffffffffffffff16815260200191505060405180910390f35b6105396004803603602081101561050d57600080fd5b81019080803573ffffffffffffffffffffffffffffffffffffffff169060200190929190505050610feb565b6040518082815260200191505060405180910390f35b6105576110c0565b005b61059b6004803603602081101561056f57600080fd5b81019080803573ffffffffffffffffffffffffffffffffffffffff1690602001909291905050506111fb565b005b6105a5611297565b604051808273ffffffffffffffffffffffffffffffffffffffff1673ffffffffffffffffffffffffffffffffffffffff16815260200191505060405180910390f35b6105ef6112c1565b604051808215151515815260200191505060405180910390f35b610611611319565b6040518080602001828103825283818151815260200191508051906020019080838360005b83811015610651578082015181840152602081019050610636565b50505050905090810190601f16801561067e5780820380516001836020036101000a031916815260200191505b509250505060405180910390f35b6106da600480360360408110156106a257600080fd5b81019080803573ffffffffffffffffffffffffffffffffffffffff1690602001909291908035151590602001909291905050506113bb565b005b6107df600480360360808110156106f257600080fd5b81019080803573ffffffffffffffffffffffffffffffffffffffff169060200190929190803573ffffffffffffffffffffffffffffffffffffffff169060200190929190803590602001909291908035906020019064010000000081111561075957600080fd5b82018360208201111561076b57600080fd5b8035906020019184600183028401116401000000008311171561078d57600080fd5b91908080601f016020809104026020016040519081016040528093929190818152602001838380828437600081840152601f19601f82011690508083019250505050505050919291929050505061155e565b005b61080d600480360360208110156107f757600080fd5b81019080803590602001909291905050506115d0565b6040518080602001828103825283818151815260200191508051906020019080838360005b8381101561084d578082015181840152602081019050610832565b50505050905090810190601f16801561087a5780820380516001836020036101000a031916815260200191505b509250505060405180910390f35b6108906115f2565b6040518080602001828103825283818151815260200191508051906020019080838360005b838110156108d05780820151818401526020810190506108b5565b50505050905090810190601f1680156108fd5780820380516001836020036101000a031916815260200191505b509250505060405180910390f35b61096d6004803603604081101561092157600080fd5b81019080803573ffffffffffffffffffffffffffffffffffffffff169060200190929190803573ffffffffffffffffffffffffffffffffffffffff169060200190929190505050611609565b604051808215151515815260200191505060405180910390f35b6109c96004803603602081101561099d57600080fd5b81019080803573ffffffffffffffffffffffffffffffffffffffff16906020019092919050505061173a565b005b6000806000837bffffffffffffffffffffffffffffffffffffffffffffffffffffffff19167bffffffffffffffffffffffffffffffffffffffffffffffffffffffff1916815260200190815260200160002060009054906101000a900460ff169050919050565b606060098054600181600116156101000203166002900480601f016020809104026020016040519081016040528092919081815260200182805460018160011615610100020316600290048015610aca5780601f10610a9f57610100808354040283529160200191610aca565b820191906000526020600020905b815481529060010190602001808311610aad57829003601f168201915b5050505050905090565b6000610adf826117c0565b610b34576040517f08c379a000000000000000000000000000000000000000000000000000000000815260040180806020018281038252602c815260200180612c93602c913960400191505060405180910390fd5b6002600083815260200190815260200160002060009054906101000a900473ffffffffffffffffffffffffffffffffffffffff169050919050565b6000610b7a82610f23565b90508073ffffffffffffffffffffffffffffffffffffffff168373ffffffffffffffffffffffffffffffffffffffff161415610c01576040517f08c379a0000000000000000000000000000000000000000000000000000000008152600401808060200182810382526021815260200180612ce86021913960400191505060405180910390fd5b8073ffffffffffffffffffffffffffffffffffffffff163373ffffffffffffffffffffffffffffffffffffffff161480610c415750610c408133611609565b5b610c96576040517f08c379a0000000000000000000000000000000000000000000000000000000008152600401808060200182810382526038815260200180612c086038913960400191505060405180910390fd5b826002600084815260200190815260200160002060006101000a81548173ffffffffffffffffffffffffffffffffffffffff021916908373ffffffffffffffffffffffffffffffffffffffff160217905550818373ffffffffffffffffffffffffffffffffffffffff168273ffffffffffffffffffffffffffffffffffffffff167f8c5be1e5ebec7d5bd14f71427d1e84f3dd0314c0f7b2291e5b200ac8c7c3b92560405160405180910390a4505050565b6000600780549050905090565b610d5f3382611832565b610db4576040517f08c379a0000000000000000000000000000000000000000000000000000000008152600401808060200182810382526031815260200180612d096031913960400191505060405180910390fd5b610dbf838383611926565b505050565b6000610dcf83610feb565b8210610e26576040517f08c379a000000000000000000000000000000000000000000000000000000000815260040180806020018281038252602b815260200180612b35602b913960400191505060405180910390fd5b600560008473ffffffffffffffffffffffffffffffffffffffff1673ffffffffffffffffffffffffffffffffffffffff1681526020019081526020016000208281548110610e7057fe5b9060005260206000200154905092915050565b610e9e8383836040518060200160405280600081525061155e565b505050565b6000610ead610d48565b8210610f04576040517f08c379a000000000000000000000000000000000000000000000000000000000815260040180806020018281038252602c815260200180612d3a602c913960400191505060405180910390fd5b60078281548110610f1157fe5b90600052602060002001549050919050565b6000806001600084815260200190815260200160002060009054906101000a900473ffffffffffffffffffffffffffffffffffffffff169050600073ffffffffffffffffffffffffffffffffffffffff168173ffffffffffffffffffffffffffffffffffffffff161415610fe2576040517f08c379a0000000000000000000000000000000000000000000000000000000008152600401808060200182810382526029815260200180612c6a6029913960400191505060405180910390fd5b80915050919050565b60008073ffffffffffffffffffffffffffffffffffffffff168273ffffffffffffffffffffffffffffffffffffffff161415611072576040517f08c379a000000000000000000000000000000000000000000000000000000000815260040180806020018281038252602a815260200180612c40602a913960400191505060405180910390fd5b6110b9600360008473ffffffffffffffffffffffffffffffffffffffff1673ffffffffffffffffffffffffffffffffffffffff16815260200190815260200160002061194a565b9050919050565b6110c86112c1565b61113a576040517f08c379a00000000000000000000000000000000000000000000000000000000081526004018080602001828103825260208152602001807f4f776e61626c653a2063616c6c6572206973206e6f7420746865206f776e657281525060200191505060405180910390fd5b600073ffffffffffffffffffffffffffffffffffffffff16600c60009054906101000a900473ffffffffffffffffffffffffffffffffffffffff1673ffffffffffffffffffffffffffffffffffffffff167f8be0079c531659141344cd1fd0a4f28419497f9722a3daafe3b4186f6b6457e060405160405180910390a36000600c60006101000a81548173ffffffffffffffffffffffffffffffffffffffff021916908373ffffffffffffffffffffffffffffffffffffffff160217905550565b6112036112c1565b611275576040517f08c379a00000000000000000000000000000000000000000000000000000000081526004018080602001828103825260208152602001807f4f776e61626c653a2063616c6c6572206973206e6f7420746865206f776e657281525060200191505060405180910390fd5b600061127f611958565b905061128b8282611975565b611293611996565b5050565b6000600c60009054906101000a900473ffffffffffffffffffffffffffffffffffffffff16905090565b6000600c60009054906101000a900473ffffffffffffffffffffffffffffffffffffffff1673ffffffffffffffffffffffffffffffffffffffff163373ffffffffffffffffffffffffffffffffffffffff1614905090565b6060600a8054600181600116156101000203166002900480601f0160208091040260200160405190810160405280929190818152602001828054600181600116156101000203166002900480156113b15780601f10611386576101008083540402835291602001916113b1565b820191906000526020600020905b81548152906001019060200180831161139457829003601f168201915b5050505050905090565b3373ffffffffffffffffffffffffffffffffffffffff168273ffffffffffffffffffffffffffffffffffffffff16141561145d576040517f08c379a00000000000000000000000000000000000000000000000000000000081526004018080602001828103825260198152602001807f4552433732313a20617070726f766520746f2063616c6c65720000000000000081525060200191505060405180910390fd5b80600460003373ffffffffffffffffffffffffffffffffffffffff1673ffffffffffffffffffffffffffffffffffffffff16815260200190815260200160002060008473ffffffffffffffffffffffffffffffffffffffff1673ffffffffffffffffffffffffffffffffffffffff16815260200190815260200160002060006101000a81548160ff0219169083151502179055508173ffffffffffffffffffffffffffffffffffffffff163373ffffffffffffffffffffffffffffffffffffffff167f17307eab39ab6107e8899845ad3d59bd9653f200f220920489ca2b5937696c3183604051808215151515815260200191505060405180910390a35050565b611569848484610d55565b611575848484846119aa565b6115ca576040517f08c379a0000000000000000000000000000000000000000000000000000000008152600401808060200182810382526032815260200180612b606032913960400191505060405180910390fd5b50505050565b60606115eb6115dd6115f2565b6115e684611b93565b611cc0565b9050919050565b606060405180602001604052806000815250905090565b600080600d60009054906101000a900473ffffffffffffffffffffffffffffffffffffffff1690508273ffffffffffffffffffffffffffffffffffffffff168173ffffffffffffffffffffffffffffffffffffffff1663c4552791866040518263ffffffff1660e01b8152600401808273ffffffffffffffffffffffffffffffffffffffff1673ffffffffffffffffffffffffffffffffffffffff16815260200191505060206040518083038186803b1580156116c557600080fd5b505afa1580156116d9573d6000803e3d6000fd5b505050506040513d60208110156116ef57600080fd5b810190808051906020019092919050505073ffffffffffffffffffffffffffffffffffffffff161415611726576001915050611734565b6117308484611d04565b9150505b92915050565b6117426112c1565b6117b4576040517f08c379a00000000000000000000000000000000000000000000000000000000081526004018080602001828103825260208152602001807f4f776e61626c653a2063616c6c6572206973206e6f7420746865206f776e657281525060200191505060405180910390fd5b6117bd81611d98565b50565b6000806001600084815260200190815260200160002060009054906101000a900473ffffffffffffffffffffffffffffffffffffffff169050600073ffffffffffffffffffffffffffffffffffffffff168173ffffffffffffffffffffffffffffffffffffffff161415915050919050565b600061183d826117c0565b611892576040517f08c379a000000000000000000000000000000000000000000000000000000000815260040180806020018281038252602c815260200180612bdc602c913960400191505060405180910390fd5b600061189d83610f23565b90508073ffffffffffffffffffffffffffffffffffffffff168473ffffffffffffffffffffffffffffffffffffffff16148061190c57508373ffffffffffffffffffffffffffffffffffffffff166118f484610ad4565b73ffffffffffffffffffffffffffffffffffffffff16145b8061191d575061191c8185611609565b5b91505092915050565b611931838383611ede565b61193b8382612139565b61194582826122d7565b505050565b600081600001549050919050565b60006119706001600e5461239e90919063ffffffff16565b905090565b61197f8282612426565b61198982826122d7565b6119928161263e565b5050565b600e60008154809291906001019190505550565b60006119cb8473ffffffffffffffffffffffffffffffffffffffff1661268a565b6119d85760019050611b8b565b60008473ffffffffffffffffffffffffffffffffffffffff1663150b7a02338887876040518563ffffffff1660e01b8152600401808573ffffffffffffffffffffffffffffffffffffffff1673ffffffffffffffffffffffffffffffffffffffff1681526020018473ffffffffffffffffffffffffffffffffffffffff1673ffffffffffffffffffffffffffffffffffffffff16815260200183815260200180602001828103825283818151815260200191508051906020019080838360005b83811015611ab3578082015181840152602081019050611a98565b50505050905090810190601f168015611ae05780820380516001836020036101000a031916815260200191505b5095505050505050602060405180830381600087803b158015611b0257600080fd5b505af1158015611b16573d6000803e3d6000fd5b505050506040513d6020811015611b2c57600080fd5b8101908080519060200190929190505050905063150b7a0260e01b7bffffffffffffffffffffffffffffffffffffffffffffffffffffffff1916817bffffffffffffffffffffffffffffffffffffffffffffffffffffffff1916149150505b949350505050565b60606000821415611bdb576040518060400160405280600181526020017f30000000000000000000000000000000000000000000000000000000000000008152509050611cbb565b600082905060005b60008214611c05578080600101915050600a8281611bfd57fe5b049150611be3565b6060816040519080825280601f01601f191660200182016040528015611c3a5781602001600182028038833980820191505090505b50905060006001830390505b60008614611cb357600a8681611c5857fe5b0660300160f81b82828060019003935081518110611c7257fe5b60200101907effffffffffffffffffffffffffffffffffffffffffffffffffffffffffffff1916908160001a905350600a8681611cab57fe5b049550611c46565b819450505050505b919050565b6060611cfc838360405180602001604052806000815250604051806020016040528060008152506040518060200160405280600081525061269d565b905092915050565b6000600460008473ffffffffffffffffffffffffffffffffffffffff1673ffffffffffffffffffffffffffffffffffffffff16815260200190815260200160002060008373ffffffffffffffffffffffffffffffffffffffff1673ffffffffffffffffffffffffffffffffffffffff16815260200190815260200160002060009054906101000a900460ff16905092915050565b600073ffffffffffffffffffffffffffffffffffffffff168173ffffffffffffffffffffffffffffffffffffffff161415611e1e576040517f08c379a0000000000000000000000000000000000000000000000000000000008152600401808060200182810382526026815260200180612b926026913960400191505060405180910390fd5b8073ffffffffffffffffffffffffffffffffffffffff16600c60009054906101000a900473ffffffffffffffffffffffffffffffffffffffff1673ffffffffffffffffffffffffffffffffffffffff167f8be0079c531659141344cd1fd0a4f28419497f9722a3daafe3b4186f6b6457e060405160405180910390a380600c60006101000a81548173ffffffffffffffffffffffffffffffffffffffff021916908373ffffffffffffffffffffffffffffffffffffffff16021790555050565b8273ffffffffffffffffffffffffffffffffffffffff16611efe82610f23565b73ffffffffffffffffffffffffffffffffffffffff1614611f6a576040517f08c379a0000000000000000000000000000000000000000000000000000000008152600401808060200182810382526029815260200180612cbf6029913960400191505060405180910390fd5b600073ffffffffffffffffffffffffffffffffffffffff168273ffffffffffffffffffffffffffffffffffffffff161415611ff0576040517f08c379a0000000000000000000000000000000000000000000000000000000008152600401808060200182810382526024815260200180612bb86024913960400191505060405180910390fd5b611ff981612963565b612040600360008573ffffffffffffffffffffffffffffffffffffffff1673ffffffffffffffffffffffffffffffffffffffff168152602001908152602001600020612a21565b612087600360008473ffffffffffffffffffffffffffffffffffffffff1673ffffffffffffffffffffffffffffffffffffffff168152602001908152602001600020612a44565b816001600083815260200190815260200160002060006101000a81548173ffffffffffffffffffffffffffffffffffffffff021916908373ffffffffffffffffffffffffffffffffffffffff160217905550808273ffffffffffffffffffffffffffffffffffffffff168473ffffffffffffffffffffffffffffffffffffffff167fddf252ad1be2c89b69c2b068fc378daa952ba7f163c4a11628f55a4df523b3ef60405160405180910390a4505050565b60006121916001600560008673ffffffffffffffffffffffffffffffffffffffff1673ffffffffffffffffffffffffffffffffffffffff16815260200190815260200160002080549050612a5a90919063ffffffff16565b905060006006600084815260200190815260200160002054905081811461227e576000600560008673ffffffffffffffffffffffffffffffffffffffff1673ffffffffffffffffffffffffffffffffffffffff16815260200190815260200160002083815481106121fe57fe5b9060005260206000200154905080600560008773ffffffffffffffffffffffffffffffffffffffff1673ffffffffffffffffffffffffffffffffffffffff168152602001908152602001600020838154811061225657fe5b9060005260206000200181905550816006600083815260200190815260200160002081905550505b600560008573ffffffffffffffffffffffffffffffffffffffff1673ffffffffffffffffffffffffffffffffffffffff1681526020019081526020016000208054809190600190036122d09190612ae3565b5050505050565b600560008373ffffffffffffffffffffffffffffffffffffffff1673ffffffffffffffffffffffffffffffffffffffff168152602001908152602001600020805490506006600083815260200190815260200160002081905550600560008373ffffffffffffffffffffffffffffffffffffffff1673ffffffffffffffffffffffffffffffffffffffff1681526020019081526020016000208190806001815401808255809150509060018203906000526020600020016000909192909190915055505050565b60008082840190508381101561241c576040517f08c379a000000000000000000000000000000000000000000000000000000000815260040180806020018281038252601b8152602001807f536166654d6174683a206164646974696f6e206f766572666c6f77000000000081525060200191505060405180910390fd5b8091505092915050565b600073ffffffffffffffffffffffffffffffffffffffff168273ffffffffffffffffffffffffffffffffffffffff1614156124c9576040517f08c379a00000000000000000000000000000000000000000000000000000000081526004018080602001828103825260208152602001807f4552433732313a206d696e7420746f20746865207a65726f206164647265737381525060200191505060405180910390fd5b6124d2816117c0565b15612545576040517f08c379a000000000000000000000000000000000000000000000000000000000815260040180806020018281038252601c8152602001807f4552433732313a20746f6b656e20616c7265616479206d696e7465640000000081525060200191505060405180910390fd5b816001600083815260200190815260200160002060006101000a81548173ffffffffffffffffffffffffffffffffffffffff021916908373ffffffffffffffffffffffffffffffffffffffff1602179055506125de600360008473ffffffffffffffffffffffffffffffffffffffff1673ffffffffffffffffffffffffffffffffffffffff168152602001908152602001600020612a44565b808273ffffffffffffffffffffffffffffffffffffffff16600073ffffffffffffffffffffffffffffffffffffffff167fddf252ad1be2c89b69c2b068fc378daa952ba7f163c4a11628f55a4df523b3ef60405160405180910390a45050565b6007805490506008600083815260200190815260200160002081905550600781908060018154018082558091505090600182039060005260206000200160009091929091909150555050565b600080823b905060008111915050919050565b6060808690506060869050606086905060608690506060869050606081518351855187518951010101016040519080825280601f01601f1916602001820160405280156126f95781602001600182028038833980820191505090505b5090506060819050600080905060008090505b885181101561277a5788818151811061272157fe5b602001015160f81c60f81b83838060010194508151811061273e57fe5b60200101907effffffffffffffffffffffffffffffffffffffffffffffffffffffffffffff1916908160001a905350808060010191505061270c565b5060008090505b87518110156127ef5787818151811061279657fe5b602001015160f81c60f81b8383806001019450815181106127b357fe5b60200101907effffffffffffffffffffffffffffffffffffffffffffffffffffffffffffff1916908160001a9053508080600101915050612781565b5060008090505b86518110156128645786818151811061280b57fe5b602001015160f81c60f81b83838060010194508151811061282857fe5b60200101907effffffffffffffffffffffffffffffffffffffffffffffffffffffffffffff1916908160001a90535080806001019150506127f6565b5060008090505b85518110156128d95785818151811061288057fe5b602001015160f81c60f81b83838060010194508151811061289d57fe5b60200101907effffffffffffffffffffffffffffffffffffffffffffffffffffffffffffff1916908160001a905350808060010191505061286b565b5060008090505b845181101561294e578481815181106128f557fe5b602001015160f81c60f81b83838060010194508151811061291257fe5b60200101907effffffffffffffffffffffffffffffffffffffffffffffffffffffffffffff1916908160001a90535080806001019150506128e0565b50819850505050505050505095945050505050565b600073ffffffffffffffffffffffffffffffffffffffff166002600083815260200190815260200160002060009054906101000a900473ffffffffffffffffffffffffffffffffffffffff1673ffffffffffffffffffffffffffffffffffffffff1614612a1e5760006002600083815260200190815260200160002060006101000a81548173ffffffffffffffffffffffffffffffffffffffff021916908373ffffffffffffffffffffffffffffffffffffffff1602179055505b50565b612a3960018260000154612a5a90919063ffffffff16565b816000018190555050565b6001816000016000828254019250508190555050565b600082821115612ad2576040517f08c379a000000000000000000000000000000000000000000000000000000000815260040180806020018281038252601e8152602001807f536166654d6174683a207375627472616374696f6e206f766572666c6f77000081525060200191505060405180910390fd5b600082840390508091505092915050565b815481835581811115612b0a57818360005260206000209182019101612b099190612b0f565b5b505050565b612b3191905b80821115612b2d576000816000905550600101612b15565b5090565b9056fe455243373231456e756d657261626c653a206f776e657220696e646578206f7574206f6620626f756e64734552433732313a207472616e7366657220746f206e6f6e20455243373231526563656976657220696d706c656d656e7465724f776e61626c653a206e6577206f776e657220697320746865207a65726f20616464726573734552433732313a207472616e7366657220746f20746865207a65726f20616464726573734552433732313a206f70657261746f7220717565727920666f72206e6f6e6578697374656e7420746f6b656e4552433732313a20617070726f76652063616c6c6572206973206e6f74206f776e6572206e6f7220617070726f76656420666f7220616c6c4552433732313a2062616c616e636520717565727920666f7220746865207a65726f20616464726573734552433732313a206f776e657220717565727920666f72206e6f6e6578697374656e7420746f6b656e4552433732313a20617070726f76656420717565727920666f72206e6f6e6578697374656e7420746f6b656e4552433732313a207472616e73666572206f6620746f6b656e2074686174206973206e6f74206f776e4552433732313a20617070726f76616c20746f2063757272656e74206f776e65724552433732313a207472616e736665722063616c6c6572206973206e6f74206f776e6572206e6f7220617070726f766564455243373231456e756d657261626c653a20676c6f62616c20696e646578206f7574206f6620626f756e6473a165627a7a723058208b2edc31acaf23e51780a31867ed22fbe1e4b09f7fffd2c402ace5d0d5988a610029",
  "source": "pragma solidity ^0.5.0;\r\n\r\nimport 'openzeppelin-solidity/contracts/token/ERC721/ERC721Full.sol';\r\nimport 'openzeppelin-solidity/contracts/ownership/Ownable.sol';\r\nimport './Strings.sol';\r\n\r\ncontract OwnableDelegateProxy { }\r\n\r\ncontract ProxyRegistry {\r\n    mapping(address => OwnableDelegateProxy) public proxies;\r\n}\r\n\r\n/**\r\n * @title TradeableERC721Token\r\n * TradeableERC721Token - ERC721 contract that whitelists a trading address, and has minting functionality.\r\n */\r\ncontract TradeableERC721Token is ERC721Full, Ownable {\r\n  using Strings for string;\r\n\r\n  address proxyRegistryAddress;\r\n  uint256 private _currentTokenId = 0;\r\n\r\n  constructor(string memory _name, string memory _symbol, address _proxyRegistryAddress) ERC721Full(_name, _symbol) public {\r\n    proxyRegistryAddress = _proxyRegistryAddress;\r\n  }\r\n\r\n  /**\r\n    * @dev Mints a token to an address with a tokenURI.\r\n    * @param _to address of the future owner of the token\r\n    */\r\n  function mintTo(address _to) public onlyOwner {\r\n    uint256 newTokenId = _getNextTokenId();\r\n    _mint(_to, newTokenId);\r\n    _incrementTokenId();\r\n  }\r\n\r\n  /**\r\n    * @dev calculates the next token ID based on value of _currentTokenId \r\n    * @return uint256 for the next token ID\r\n    */\r\n  function _getNextTokenId() private view returns (uint256) {\r\n    return _currentTokenId.add(1);\r\n  }\r\n\r\n  /**\r\n    * @dev increments the value of _currentTokenId \r\n    */\r\n  function _incrementTokenId() private  {\r\n    _currentTokenId++;\r\n  }\r\n\r\n  function baseTokenURI() public view returns (string memory) {\r\n    return \"\";\r\n  }\r\n\r\n  function tokenURI(uint256 _tokenId) external view returns (string memory) {\r\n    return Strings.strConcat(\r\n        baseTokenURI(),\r\n        Strings.uint2str(_tokenId)\r\n    );\r\n  }\r\n\r\n  /**\r\n   * Override isApprovedForAll to whitelist user's OpenSea proxy accounts to enable gas-less listings.\r\n   */\r\n  function isApprovedForAll(\r\n    address owner,\r\n    address operator\r\n  )\r\n    public\r\n    view\r\n    returns (bool)\r\n  {\r\n    // Whitelist OpenSea proxy contract for easy trading.\r\n    ProxyRegistry proxyRegistry = ProxyRegistry(proxyRegistryAddress);\r\n    if (address(proxyRegistry.proxies(owner)) == operator) {\r\n        return true;\r\n    }\r\n\r\n    return super.isApprovedForAll(owner, operator);\r\n  }\r\n}",
  "sourcePath": "D:\\dapps\\peoples-casino\\contracts\\TradeableERC721Token.sol",
  "compiler": {
    "name": "solc",
    "version": "0.5.8+commit.23d335f2.Emscripten.clang"
  },
  "schemaVersion": "3.0.11",
  "updatedAt": "2019-09-24T08:51:01.915Z",
  "devdoc": {
    "methods": {
      "approve(address,uint256)": {
        "details": "Approves another address to transfer the given token ID The zero address indicates there is no approved address. There can only be one approved address per token at a given time. Can only be called by the token owner or an approved operator.",
        "params": {
          "to": "address to be approved for the given token ID",
          "tokenId": "uint256 ID of the token to be approved"
        }
      },
      "balanceOf(address)": {
        "details": "Gets the balance of the specified address.",
        "params": {
          "owner": "address to query the balance of"
        },
        "return": "uint256 representing the amount owned by the passed address"
      },
      "getApproved(uint256)": {
        "details": "Gets the approved address for a token ID, or zero if no address set Reverts if the token ID does not exist.",
        "params": {
          "tokenId": "uint256 ID of the token to query the approval of"
        },
        "return": "address currently approved for the given token ID"
      },
      "isOwner()": {
        "details": "Returns true if the caller is the current owner."
      },
      "mintTo(address)": {
        "details": "Mints a token to an address with a tokenURI.\r",
        "params": {
          "_to": "address of the future owner of the token\r"
        }
      },
      "name()": {
        "details": "Gets the token name.",
        "return": "string representing the token name"
      },
      "owner()": {
        "details": "Returns the address of the current owner."
      },
      "ownerOf(uint256)": {
        "details": "Gets the owner of the specified token ID.",
        "params": {
          "tokenId": "uint256 ID of the token to query the owner of"
        },
        "return": "address currently marked as the owner of the given token ID"
      },
      "renounceOwnership()": {
        "details": "Leaves the contract without owner. It will not be possible to call `onlyOwner` functions anymore. Can only be called by the current owner.     * > Note: Renouncing ownership will leave the contract without an owner, thereby removing any functionality that is only available to the owner."
      },
      "safeTransferFrom(address,address,uint256)": {
        "details": "Safely transfers the ownership of a given token ID to another address If the target address is a contract, it must implement `onERC721Received`, which is called upon a safe transfer, and return the magic value `bytes4(keccak256(\"onERC721Received(address,address,uint256,bytes)\"))`; otherwise, the transfer is reverted. Requires the msg.sender to be the owner, approved, or operator",
        "params": {
          "from": "current owner of the token",
          "to": "address to receive the ownership of the given token ID",
          "tokenId": "uint256 ID of the token to be transferred"
        }
      },
      "safeTransferFrom(address,address,uint256,bytes)": {
        "details": "Safely transfers the ownership of a given token ID to another address If the target address is a contract, it must implement `onERC721Received`, which is called upon a safe transfer, and return the magic value `bytes4(keccak256(\"onERC721Received(address,address,uint256,bytes)\"))`; otherwise, the transfer is reverted. Requires the msg.sender to be the owner, approved, or operator",
        "params": {
          "_data": "bytes data to send along with a safe transfer check",
          "from": "current owner of the token",
          "to": "address to receive the ownership of the given token ID",
          "tokenId": "uint256 ID of the token to be transferred"
        }
      },
      "setApprovalForAll(address,bool)": {
        "details": "Sets or unsets the approval of a given operator An operator is allowed to transfer all tokens of the sender on their behalf.",
        "params": {
          "approved": "representing the status of the approval to be set",
          "to": "operator address to set the approval"
        }
      },
      "supportsInterface(bytes4)": {
        "details": "See `IERC165.supportsInterface`.     * Time complexity O(1), guaranteed to always use less than 30 000 gas."
      },
      "symbol()": {
        "details": "Gets the token symbol.",
        "return": "string representing the token symbol"
      },
      "tokenByIndex(uint256)": {
        "details": "Gets the token ID at a given index of all the tokens in this contract Reverts if the index is greater or equal to the total number of tokens.",
        "params": {
          "index": "uint256 representing the index to be accessed of the tokens list"
        },
        "return": "uint256 token ID at the given index of the tokens list"
      },
      "tokenOfOwnerByIndex(address,uint256)": {
        "details": "Gets the token ID at a given index of the tokens list of the requested owner.",
        "params": {
          "index": "uint256 representing the index to be accessed of the requested tokens list",
          "owner": "address owning the tokens list to be accessed"
        },
        "return": "uint256 token ID at the given index of the tokens list owned by the requested address"
      },
      "totalSupply()": {
        "details": "Gets the total amount of tokens stored by the contract.",
        "return": "uint256 representing the total amount of tokens"
      },
      "transferFrom(address,address,uint256)": {
        "details": "Transfers the ownership of a given token ID to another address. Usage of this method is discouraged, use `safeTransferFrom` whenever possible. Requires the msg.sender to be the owner, approved, or operator.",
        "params": {
          "from": "current owner of the token",
          "to": "address to receive the ownership of the given token ID",
          "tokenId": "uint256 ID of the token to be transferred"
        }
      },
      "transferOwnership(address)": {
        "details": "Transfers ownership of the contract to a new account (`newOwner`). Can only be called by the current owner."
      }
    },
    "title": "TradeableERC721Token\r TradeableERC721Token - ERC721 contract that whitelists a trading address, and has minting functionality.\r"
  },
  "userdoc": {
    "methods": {
      "isApprovedForAll(address,address)": {
        "notice": "Override isApprovedForAll to whitelist user's OpenSea proxy accounts to enable gas-less listings.\r"
      }
    }
  }
}